{
  "contractName": "Airdrop",
  "abi": [
    {
      "constant": true,
      "inputs": [],
      "name": "hasInitialized",
      "outputs": [
        {
          "name": "",
          "type": "bool"
        }
      ],
      "payable": false,
      "stateMutability": "view",
      "type": "function"
    },
    {
      "constant": true,
      "inputs": [
        {
          "name": "_script",
          "type": "bytes"
        }
      ],
      "name": "getEVMScriptExecutor",
      "outputs": [
        {
          "name": "",
          "type": "address"
        }
      ],
      "payable": false,
      "stateMutability": "view",
      "type": "function"
    },
    {
      "constant": true,
      "inputs": [],
      "name": "tokenManager",
      "outputs": [
        {
          "name": "",
          "type": "address"
        }
      ],
      "payable": false,
      "stateMutability": "view",
      "type": "function"
    },
    {
      "constant": true,
      "inputs": [],
      "name": "getRecoveryVault",
      "outputs": [
        {
          "name": "",
          "type": "address"
        }
      ],
      "payable": false,
      "stateMutability": "view",
      "type": "function"
    },
    {
      "constant": true,
      "inputs": [],
      "name": "START_ROLE",
      "outputs": [
        {
          "name": "",
          "type": "bytes32"
        }
      ],
      "payable": false,
      "stateMutability": "view",
      "type": "function"
    },
    {
      "constant": true,
      "inputs": [
        {
          "name": "",
          "type": "uint256"
        }
      ],
      "name": "airdrops",
      "outputs": [
        {
          "name": "root",
          "type": "bytes32"
        },
        {
          "name": "dataURI",
          "type": "string"
        }
      ],
      "payable": false,
      "stateMutability": "view",
      "type": "function"
    },
    {
      "constant": true,
      "inputs": [
        {
          "name": "token",
          "type": "address"
        }
      ],
      "name": "allowRecoverability",
      "outputs": [
        {
          "name": "",
          "type": "bool"
        }
      ],
      "payable": false,
      "stateMutability": "view",
      "type": "function"
    },
    {
      "constant": true,
      "inputs": [],
      "name": "appId",
      "outputs": [
        {
          "name": "",
          "type": "bytes32"
        }
      ],
      "payable": false,
      "stateMutability": "view",
      "type": "function"
    },
    {
      "constant": true,
      "inputs": [],
      "name": "getInitializationBlock",
      "outputs": [
        {
          "name": "",
          "type": "uint256"
        }
      ],
      "payable": false,
      "stateMutability": "view",
      "type": "function"
    },
    {
      "constant": false,
      "inputs": [
        {
          "name": "_token",
          "type": "address"
        }
      ],
      "name": "transferToVault",
      "outputs": [],
      "payable": false,
      "stateMutability": "nonpayable",
      "type": "function"
    },
    {
      "constant": true,
      "inputs": [
        {
          "name": "_sender",
          "type": "address"
        },
        {
          "name": "_role",
          "type": "bytes32"
        },
        {
          "name": "_params",
          "type": "uint256[]"
        }
      ],
      "name": "canPerform",
      "outputs": [
        {
          "name": "",
          "type": "bool"
        }
      ],
      "payable": false,
      "stateMutability": "view",
      "type": "function"
    },
    {
      "constant": true,
      "inputs": [],
      "name": "getEVMScriptRegistry",
      "outputs": [
        {
          "name": "",
          "type": "address"
        }
      ],
      "payable": false,
      "stateMutability": "view",
      "type": "function"
    },
    {
      "constant": true,
      "inputs": [],
      "name": "airdropsCount",
      "outputs": [
        {
          "name": "",
          "type": "uint256"
        }
      ],
      "payable": false,
      "stateMutability": "view",
      "type": "function"
    },
    {
      "constant": true,
      "inputs": [],
      "name": "kernel",
      "outputs": [
        {
          "name": "",
          "type": "address"
        }
      ],
      "payable": false,
      "stateMutability": "view",
      "type": "function"
    },
    {
      "constant": true,
      "inputs": [],
      "name": "isPetrified",
      "outputs": [
        {
          "name": "",
          "type": "bool"
        }
      ],
      "payable": false,
      "stateMutability": "view",
      "type": "function"
    },
    {
      "anonymous": false,
      "inputs": [
        {
          "indexed": false,
          "name": "id",
          "type": "uint256"
        }
      ],
      "name": "Start",
      "type": "event"
    },
    {
      "anonymous": false,
      "inputs": [
        {
          "indexed": false,
          "name": "id",
          "type": "uint256"
        },
        {
          "indexed": false,
          "name": "recipient",
          "type": "address"
        },
        {
          "indexed": false,
          "name": "amount",
          "type": "uint256"
        }
      ],
      "name": "Award",
      "type": "event"
    },
    {
      "anonymous": false,
      "inputs": [
        {
          "indexed": true,
          "name": "executor",
          "type": "address"
        },
        {
          "indexed": false,
          "name": "script",
          "type": "bytes"
        },
        {
          "indexed": false,
          "name": "input",
          "type": "bytes"
        },
        {
          "indexed": false,
          "name": "returnData",
          "type": "bytes"
        }
      ],
      "name": "ScriptResult",
      "type": "event"
    },
    {
      "anonymous": false,
      "inputs": [
        {
          "indexed": true,
          "name": "vault",
          "type": "address"
        },
        {
          "indexed": true,
          "name": "token",
          "type": "address"
        },
        {
          "indexed": false,
          "name": "amount",
          "type": "uint256"
        }
      ],
      "name": "RecoverToVault",
      "type": "event"
    },
    {
      "constant": false,
      "inputs": [
        {
          "name": "_tokenManager",
          "type": "address"
        }
      ],
      "name": "initialize",
      "outputs": [],
      "payable": false,
      "stateMutability": "nonpayable",
      "type": "function"
    },
    {
      "constant": false,
      "inputs": [
        {
          "name": "_root",
          "type": "bytes32"
        },
        {
          "name": "_dataURI",
          "type": "string"
        }
      ],
      "name": "start",
      "outputs": [],
      "payable": false,
      "stateMutability": "nonpayable",
      "type": "function"
    },
    {
      "constant": false,
      "inputs": [
        {
          "name": "_id",
          "type": "uint256"
        },
        {
          "name": "_recipient",
          "type": "address"
        },
        {
          "name": "_amount",
          "type": "uint256"
        },
        {
          "name": "_proof",
          "type": "bytes32[]"
        }
      ],
      "name": "award",
      "outputs": [],
      "payable": false,
      "stateMutability": "nonpayable",
      "type": "function"
    },
    {
      "constant": false,
      "inputs": [
        {
          "name": "_ids",
          "type": "uint256[]"
        },
        {
          "name": "_recipient",
          "type": "address"
        },
        {
          "name": "_amounts",
          "type": "uint256[]"
        },
        {
          "name": "_proofs",
          "type": "bytes"
        },
        {
          "name": "_proofLengths",
          "type": "uint256[]"
        }
      ],
      "name": "awardFromMany",
      "outputs": [],
      "payable": false,
      "stateMutability": "nonpayable",
      "type": "function"
    },
    {
      "constant": false,
      "inputs": [
        {
          "name": "_id",
          "type": "uint256"
        },
        {
          "name": "_recipients",
          "type": "address[]"
        },
        {
          "name": "_amounts",
          "type": "uint256[]"
        },
        {
          "name": "_proofs",
          "type": "bytes"
        },
        {
          "name": "_proofLengths",
          "type": "uint256[]"
        }
      ],
      "name": "awardToMany",
      "outputs": [],
      "payable": false,
      "stateMutability": "nonpayable",
      "type": "function"
    },
    {
      "constant": true,
      "inputs": [
        {
          "name": "_proofs",
          "type": "bytes"
        },
        {
          "name": "_marker",
          "type": "uint256"
        },
        {
          "name": "proofLength",
          "type": "uint256"
        }
      ],
      "name": "extractProof",
      "outputs": [
        {
          "name": "proof",
          "type": "bytes32[]"
        }
      ],
      "payable": false,
      "stateMutability": "pure",
      "type": "function"
    },
    {
      "constant": true,
      "inputs": [
        {
          "name": "root",
          "type": "bytes32"
        },
        {
          "name": "proof",
          "type": "bytes32[]"
        },
        {
          "name": "hash",
          "type": "bytes32"
        }
      ],
      "name": "validate",
      "outputs": [
        {
          "name": "",
          "type": "bool"
        }
      ],
      "payable": false,
      "stateMutability": "pure",
      "type": "function"
    },
    {
      "constant": true,
      "inputs": [
        {
          "name": "_id",
          "type": "uint256"
        },
        {
          "name": "_recipient",
          "type": "address"
        }
      ],
      "name": "awarded",
      "outputs": [
        {
          "name": "",
          "type": "bool"
        }
      ],
      "payable": false,
      "stateMutability": "view",
      "type": "function"
    }
  ],
  "bytecode": "0x60806040526200001d62000023640100000000026401000000009004565b62000309565b60006200003e6200015e640100000000026401000000009004565b146040805190810160405280601881526020017f494e49545f414c52454144595f494e495449414c495a4544000000000000000081525090151562000121576040517f08c379a00000000000000000000000000000000000000000000000000000000081526004018080602001828103825283818151815260200191508051906020019080838360005b83811015620000e5578082015181840152602081019050620000c8565b50505050905090810190601f168015620001135780820380516001836020036101000a031916815260200191505b509250505060405180910390fd5b506200015c7fffffffffffffffffffffffffffffffffffffffffffffffffffffffffffffffff620001ab640100000000026401000000009004565b565b6000620001a67febb05b386a8d34882b8711d156f463690983dc47815980fb82aeeff1aa43579e60010260001916620002f76401000000000262002bdd176401000000009004565b905090565b6000620001c66200015e640100000000026401000000009004565b146040805190810160405280601881526020017f494e49545f414c52454144595f494e495449414c495a45440000000000000000815250901515620002a9576040517f08c379a00000000000000000000000000000000000000000000000000000000081526004018080602001828103825283818151815260200191508051906020019080838360005b838110156200026d57808201518184015260208101905062000250565b50505050905090810190601f1680156200029b5780820380516001836020036101000a031916815260200191505b509250505060405180910390fd5b50620002f4817febb05b386a8d34882b8711d156f463690983dc47815980fb82aeeff1aa43579e600102600019166200030264010000000002620030ca179091906401000000009004565b50565b600081549050919050565b8082555050565b6131a280620003196000396000f300608060405260043610610133576000357c0100000000000000000000000000000000000000000000000000000000900463ffffffff1680630803fac0146101385780632914b9bd146101675780632a709b14146102105780632bb768c21461026757806332f0a3b5146103015780633746f5fc14610358578063507b4063146103f25780635455d6ed146104255780635af52de81461056157806360db5082146106b357806374063c21146107685780637e7db6e11461083a5780637f9f96c41461089557806380afdea8146108fa57806380c9ea501461092d5780638b3dd749146109a45780639d4941d8146109cf578063a1658fad14610a12578063a479e50814610abe578063c4d66de814610b15578063d0bb1d4014610b58578063d4aae0c414610b83578063de4796ed14610bda575b600080fd5b34801561014457600080fd5b5061014d610c09565b604051808215151515815260200191505060405180910390f35b34801561017357600080fd5b506101ce600480360381019080803590602001908201803590602001908080601f0160208091040260200160405190810160405280939291908181526020018383808284378201915050505050509192919290505050610c34565b604051808273ffffffffffffffffffffffffffffffffffffffff1673ffffffffffffffffffffffffffffffffffffffff16815260200191505060405180910390f35b34801561021c57600080fd5b50610225610d53565b604051808273ffffffffffffffffffffffffffffffffffffffff1673ffffffffffffffffffffffffffffffffffffffff16815260200191505060405180910390f35b34801561027357600080fd5b506102ff60048036038101908080359060200190929190803573ffffffffffffffffffffffffffffffffffffffff1690602001909291908035906020019092919080359060200190820180359060200190808060200260200160405190810160405280939291908181526020018383602002808284378201915050505050509192919290505050610d79565b005b34801561030d57600080fd5b50610316611248565b604051808273ffffffffffffffffffffffffffffffffffffffff1673ffffffffffffffffffffffffffffffffffffffff16815260200191505060405180910390f35b34801561036457600080fd5b506103d860048036038101908080356000191690602001909291908035906020019082018035906020019080806020026020016040519081016040528093929190818152602001838360200280828437820191505050505050919291929080356000191690602001909291905050506112f5565b604051808215151515815260200191505060405180910390f35b3480156103fe57600080fd5b506104076114bb565b60405180826000191660001916815260200191505060405180910390f35b34801561043157600080fd5b5061055f600480360381019080803590602001909291908035906020019082018035906020019080806020026020016040519081016040528093929190818152602001838360200280828437820191505050505050919291929080359060200190820180359060200190808060200260200160405190810160405280939291908181526020018383602002808284378201915050505050509192919290803590602001908201803590602001908080601f0160208091040260200160405190810160405280939291908181526020018383808284378201915050505050509192919290803590602001908201803590602001908080602002602001604051908101604052809392919081815260200183836020028082843782019150505050505091929192905050506114f4565b005b34801561056d57600080fd5b506106b160048036038101908080359060200190820180359060200190808060200260200160405190810160405280939291908181526020018383602002808284378201915050505050509192919290803573ffffffffffffffffffffffffffffffffffffffff16906020019092919080359060200190820180359060200190808060200260200160405190810160405280939291908181526020018383602002808284378201915050505050509192919290803590602001908201803590602001908080601f01602080910402602001604051908101604052809392919081815260200183838082843782019150505050505091929192908035906020019082018035906020019080806020026020016040519081016040528093929190818152602001838360200280828437820191505050505050919291929050505061191c565b005b3480156106bf57600080fd5b506106de60048036038101908080359060200190929190505050611eba565b60405180836000191660001916815260200180602001828103825283818151815260200191508051906020019080838360005b8381101561072c578082015181840152602081019050610711565b50505050905090810190601f1680156107595780820380516001836020036101000a031916815260200191505b50935050505060405180910390f35b34801561077457600080fd5b506107e3600480360381019080803590602001908201803590602001908080601f01602080910402602001604051908101604052809392919081815260200183838082843782019150505050505091929192908035906020019092919080359060200190929190505050611f76565b6040518080602001828103825283818151815260200191508051906020019060200280838360005b8381101561082657808201518184015260208101905061080b565b505050509050019250505060405180910390f35b34801561084657600080fd5b5061087b600480360381019080803573ffffffffffffffffffffffffffffffffffffffff169060200190929190505050612003565b604051808215151515815260200191505060405180910390f35b3480156108a157600080fd5b506108e060048036038101908080359060200190929190803573ffffffffffffffffffffffffffffffffffffffff16906020019092919050505061200e565b604051808215151515815260200191505060405180910390f35b34801561090657600080fd5b5061090f612078565b60405180826000191660001916815260200191505060405180910390f35b34801561093957600080fd5b506109a26004803603810190808035600019169060200190929190803590602001908201803590602001908080601f01602080910402602001604051908101604052809392919081815260200183838082843782019150505050505091929192905050506120af565b005b3480156109b057600080fd5b506109b961220f565b6040518082815260200191505060405180910390f35b3480156109db57600080fd5b50610a10600480360381019080803573ffffffffffffffffffffffffffffffffffffffff169060200190929190505050612246565b005b348015610a1e57600080fd5b50610aa4600480360381019080803573ffffffffffffffffffffffffffffffffffffffff169060200190929190803560001916906020019092919080359060200190820180359060200190808060200260200160405190810160405280939291908181526020018383602002808284378201915050505050509192919290505050612664565b604051808215151515815260200191505060405180910390f35b348015610aca57600080fd5b50610ad3612860565b604051808273ffffffffffffffffffffffffffffffffffffffff1673ffffffffffffffffffffffffffffffffffffffff16815260200191505060405180910390f35b348015610b2157600080fd5b50610b56600480360381019080803573ffffffffffffffffffffffffffffffffffffffff16906020019092919050505061297b565b005b348015610b6457600080fd5b50610b6d612ab1565b6040518082815260200191505060405180910390f35b348015610b8f57600080fd5b50610b98612ab7565b604051808273ffffffffffffffffffffffffffffffffffffffff1673ffffffffffffffffffffffffffffffffffffffff16815260200191505060405180910390f35b348015610be657600080fd5b50610bef612aee565b604051808215151515815260200191505060405180910390f35b600080610c1461220f565b905060008114158015610c2e575080610c2b612b1f565b10155b91505090565b6000610c3e612860565b73ffffffffffffffffffffffffffffffffffffffff166304bf2a7f836040518263ffffffff167c01000000000000000000000000000000000000000000000000000000000281526004018080602001828103825283818151815260200191508051906020019080838360005b83811015610cc5578082015181840152602081019050610caa565b50505050905090810190601f168015610cf25780820380516001836020036101000a031916815260200191505b5092505050602060405180830381600087803b158015610d1157600080fd5b505af1158015610d25573d6000803e3d6000fd5b505050506040513d6020811015610d3b57600080fd5b81019080805190602001909291905050509050919050565b600160009054906101000a900473ffffffffffffffffffffffffffffffffffffffff1681565b60008060008087815260200190815260200160002091508484604051602001808373ffffffffffffffffffffffffffffffffffffffff1673ffffffffffffffffffffffffffffffffffffffff166c01000000000000000000000000028152601401828152602001925050506040516020818303038152906040526040518082805190602001908083835b602083101515610e285780518252602082019150602081019050602083039250610e03565b6001836020036101000a03801982511681845116808217855250505050505090500191505060405180910390209050610e66826000015484836112f5565b6040805190810160405280600781526020017f494e56414c494400000000000000000000000000000000000000000000000000815250901515610f44576040517f08c379a00000000000000000000000000000000000000000000000000000000081526004018080602001828103825283818151815260200191508051906020019080838360005b83811015610f09578082015181840152602081019050610eee565b50505050905090810190601f168015610f365780820380516001836020036101000a031916815260200191505b509250505060405180910390fd5b5060008087815260200190815260200160002060020160008673ffffffffffffffffffffffffffffffffffffffff1673ffffffffffffffffffffffffffffffffffffffff16815260200190815260200160002060009054906101000a900460ff16156040805190810160405280600781526020017f4157415244454400000000000000000000000000000000000000000000000000815250901515611084576040517f08c379a00000000000000000000000000000000000000000000000000000000081526004018080602001828103825283818151815260200191508051906020019080838360005b8381101561104957808201518184015260208101905061102e565b50505050905090810190601f1680156110765780820380516001836020036101000a031916815260200191505b509250505060405180910390fd5b50600160008088815260200190815260200160002060020160008773ffffffffffffffffffffffffffffffffffffffff1673ffffffffffffffffffffffffffffffffffffffff16815260200190815260200160002060006101000a81548160ff021916908315150217905550600160009054906101000a900473ffffffffffffffffffffffffffffffffffffffff1673ffffffffffffffffffffffffffffffffffffffff166340c10f1986866040518363ffffffff167c0100000000000000000000000000000000000000000000000000000000028152600401808373ffffffffffffffffffffffffffffffffffffffff1673ffffffffffffffffffffffffffffffffffffffff16815260200182815260200192505050600060405180830381600087803b1580156111b557600080fd5b505af11580156111c9573d6000803e3d6000fd5b505050507f67c06f918d7834a3b7eca6ddf11d9ab59f9f187e90e8550fe54065ee38171b07868686604051808481526020018373ffffffffffffffffffffffffffffffffffffffff1673ffffffffffffffffffffffffffffffffffffffff168152602001828152602001935050505060405180910390a1505050505050565b6000611252612ab7565b73ffffffffffffffffffffffffffffffffffffffff166332f0a3b56040518163ffffffff167c0100000000000000000000000000000000000000000000000000000000028152600401602060405180830381600087803b1580156112b557600080fd5b505af11580156112c9573d6000803e3d6000fd5b505050506040513d60208110156112df57600080fd5b8101908080519060200190929190505050905090565b600080600090505b83518110156114a657838181518110151561131457fe5b9060200190602002015160001916836000191610156113e55782848281518110151561133c57fe5b906020019060200201516040516020018083600019166000191681526020018260001916600019168152602001925050506040516020818303038152906040526040518082805190602001908083835b6020831015156113b1578051825260208201915060208101905060208303925061138c565b6001836020036101000a03801982511681845116808217855250505050505090500191505060405180910390209250611499565b83818151811015156113f357fe5b90602001906020020151836040516020018083600019166000191681526020018260001916600019168152602001925050506040516020818303038152906040526040518082805190602001908083835b6020831015156114695780518252602082019150602081019050602083039250611444565b6001836020036101000a038019825116818451168082178552505050505050905001915050604051809103902092505b80806001019150506112fd565b84600019168360001916149150509392505050565b60405180807f53544152545f524f4c4500000000000000000000000000000000000000000000815250600a019050604051809103902081565b60008060006060600060209450600093505b885184101561191057888481518110151561151d57fe5b906020019060200201519250600073ffffffffffffffffffffffffffffffffffffffff168373ffffffffffffffffffffffffffffffffffffffff16141561156357611903565b6000808b815260200190815260200160002060020160008473ffffffffffffffffffffffffffffffffffffffff1673ffffffffffffffffffffffffffffffffffffffff16815260200190815260200160002060009054906101000a900460ff16156115cd57611903565b60016000808c815260200190815260200160002060020160008573ffffffffffffffffffffffffffffffffffffffff1673ffffffffffffffffffffffffffffffffffffffff16815260200190815260200160002060006101000a81548160ff02191690831515021790555061165a8786888781518110151561164b57fe5b90602001906020020151611f76565b91506020868581518110151561166c57fe5b90602001906020020151028501945082888581518110151561168a57fe5b90602001906020020151604051602001808373ffffffffffffffffffffffffffffffffffffffff1673ffffffffffffffffffffffffffffffffffffffff166c01000000000000000000000000028152601401828152602001925050506040516020818303038152906040526040518082805190602001908083835b60208310151561172a5780518252602082019150602081019050602083039250611705565b6001836020036101000a038019825116818451168082178552505050505050905001915050604051809103902090506117796000808c81526020019081526020016000206000015483836112f5565b151561178457611903565b600160009054906101000a900473ffffffffffffffffffffffffffffffffffffffff1673ffffffffffffffffffffffffffffffffffffffff166340c10f19848a878151811015156117d157fe5b906020019060200201516040518363ffffffff167c0100000000000000000000000000000000000000000000000000000000028152600401808373ffffffffffffffffffffffffffffffffffffffff1673ffffffffffffffffffffffffffffffffffffffff16815260200182815260200192505050600060405180830381600087803b15801561186057600080fd5b505af1158015611874573d6000803e3d6000fd5b505050507f67c06f918d7834a3b7eca6ddf11d9ab59f9f187e90e8550fe54065ee38171b078a848a878151811015156118a957fe5b90602001906020020151604051808481526020018373ffffffffffffffffffffffffffffffffffffffff1673ffffffffffffffffffffffffffffffffffffffff168152602001828152602001935050505060405180910390a15b8380600101945050611506565b50505050505050505050565b6000806000806060600060209450600093505b8a51841015611dd0578a8481518110151561194657fe5b9060200190602002015192506119748886898781518110151561196557fe5b90602001906020020151611f76565b91506020878581518110151561198657fe5b9060200190602002015102850194508989858151811015156119a457fe5b90602001906020020151604051602001808373ffffffffffffffffffffffffffffffffffffffff1673ffffffffffffffffffffffffffffffffffffffff166c01000000000000000000000000028152601401828152602001925050506040516020818303038152906040526040518082805190602001908083835b602083101515611a445780518252602082019150602081019050602083039250611a1f565b6001836020036101000a03801982511681845116808217855250505050505090500191505060405180910390209050611a936000808581526020019081526020016000206000015483836112f5565b6040805190810160405280600781526020017f494e56414c494400000000000000000000000000000000000000000000000000815250901515611b71576040517f08c379a00000000000000000000000000000000000000000000000000000000081526004018080602001828103825283818151815260200191508051906020019080838360005b83811015611b36578082015181840152602081019050611b1b565b50505050905090810190601f168015611b635780820380516001836020036101000a031916815260200191505b509250505060405180910390fd5b5060008084815260200190815260200160002060020160008b73ffffffffffffffffffffffffffffffffffffffff1673ffffffffffffffffffffffffffffffffffffffff16815260200190815260200160002060009054906101000a900460ff16156040805190810160405280600781526020017f4157415244454400000000000000000000000000000000000000000000000000815250901515611cb1576040517f08c379a00000000000000000000000000000000000000000000000000000000081526004018080602001828103825283818151815260200191508051906020019080838360005b83811015611c76578082015181840152602081019050611c5b565b50505050905090810190601f168015611ca35780820380516001836020036101000a031916815260200191505b509250505060405180910390fd5b50600160008085815260200190815260200160002060020160008c73ffffffffffffffffffffffffffffffffffffffff1673ffffffffffffffffffffffffffffffffffffffff16815260200190815260200160002060006101000a81548160ff0219169083151502179055508884815181101515611d2b57fe5b90602001906020020151860195507f67c06f918d7834a3b7eca6ddf11d9ab59f9f187e90e8550fe54065ee38171b07838b8b87815181101515611d6a57fe5b90602001906020020151604051808481526020018373ffffffffffffffffffffffffffffffffffffffff1673ffffffffffffffffffffffffffffffffffffffff168152602001828152602001935050505060405180910390a1838060010194505061192f565b600160009054906101000a900473ffffffffffffffffffffffffffffffffffffffff1673ffffffffffffffffffffffffffffffffffffffff166340c10f198b886040518363ffffffff167c0100000000000000000000000000000000000000000000000000000000028152600401808373ffffffffffffffffffffffffffffffffffffffff1673ffffffffffffffffffffffffffffffffffffffff16815260200182815260200192505050600060405180830381600087803b158015611e9557600080fd5b505af1158015611ea9573d6000803e3d6000fd5b505050505050505050505050505050565b6000602052806000526040600020600091509050806000015490806001018054600181600116156101000203166002900480601f016020809104026020016040519081016040528092919081815260200182805460018160011615610100020316600290048015611f6c5780601f10611f4157610100808354040283529160200191611f6c565b820191906000526020600020905b815481529060010190602001808311611f4f57829003601f168201915b5050505050905082565b606060008083604051908082528060200260200182016040528015611faa5781602001602082028038833980820191505090505b509250600090505b83811015611ffa57848601519150818382815181101515611fcf57fe5b9060200190602002019060001916908160001916815250506020850194508080600101915050611fb2565b50509392505050565b600060019050919050565b600080600084815260200190815260200160002060020160008373ffffffffffffffffffffffffffffffffffffffff1673ffffffffffffffffffffffffffffffffffffffff16815260200190815260200160002060009054906101000a900460ff16905092915050565b60006120aa7fd625496217aa6a3453eecb9c3489dc5a53e6c67b444329ea2b2cbc9ff547639b60010260001916612b27565b905090565b60405180807f53544152545f524f4c4500000000000000000000000000000000000000000000815250600a01905060405180910390206121203382600060405190808252806020026020018201604052801561211a5781602001602082028038833980820191505090505b50612664565b6040805190810160405280600f81526020017f4150505f415554485f4641494c454400000000000000000000000000000000008152509015156121fe576040517f08c379a00000000000000000000000000000000000000000000000000000000081526004018080602001828103825283818151815260200191508051906020019080838360005b838110156121c35780820151818401526020810190506121a8565b50505050905090810190601f1680156121f05780820380516001836020036101000a031916815260200191505b509250505060405180910390fd5b506122098383612b32565b50505050565b60006122417febb05b386a8d34882b8711d156f463690983dc47815980fb82aeeff1aa43579e60010260001916612bdd565b905090565b600080600061225484612003565b6040805190810160405280601281526020017f5245434f5645525f444953414c4c4f5745440000000000000000000000000000815250901515612332576040517f08c379a00000000000000000000000000000000000000000000000000000000081526004018080602001828103825283818151815260200191508051906020019080838360005b838110156122f75780820151818401526020810190506122dc565b50505050905090810190601f1680156123245780820380516001836020036101000a031916815260200191505b509250505060405180910390fd5b5061233b611248565b925061234683612be8565b6040805190810160405280601a81526020017f5245434f5645525f5641554c545f4e4f545f434f4e5452414354000000000000815250901515612424576040517f08c379a00000000000000000000000000000000000000000000000000000000081526004018080602001828103825283818151815260200191508051906020019080838360005b838110156123e95780820151818401526020810190506123ce565b50505050905090810190601f1680156124165780820380516001836020036101000a031916815260200191505b509250505060405180910390fd5b50600073ffffffffffffffffffffffffffffffffffffffff168473ffffffffffffffffffffffffffffffffffffffff1614156124c0573073ffffffffffffffffffffffffffffffffffffffff163191508273ffffffffffffffffffffffffffffffffffffffff166108fc839081150290604051600060405180830381858888f193505050501580156124ba573d6000803e3d6000fd5b506125f9565b8390506124ec308273ffffffffffffffffffffffffffffffffffffffff16612c3a90919063ffffffff16565b915061251983838373ffffffffffffffffffffffffffffffffffffffff16612e149092919063ffffffff16565b6040805190810160405280601d81526020017f5245434f5645525f544f4b454e5f5452414e534645525f4641494c45440000008152509015156125f7576040517f08c379a00000000000000000000000000000000000000000000000000000000081526004018080602001828103825283818151815260200191508051906020019080838360005b838110156125bc5780820151818401526020810190506125a1565b50505050905090810190601f1680156125e95780820380516001836020036101000a031916815260200191505b509250505060405180910390fd5b505b8373ffffffffffffffffffffffffffffffffffffffff168373ffffffffffffffffffffffffffffffffffffffff167f596caf56044b55fb8c4ca640089bbc2b63cae3e978b851f5745cbb7c5b288e02846040518082815260200191505060405180910390a350505050565b60008061266f610c09565b151561267e5760009150612858565b612686612ab7565b9050600073ffffffffffffffffffffffffffffffffffffffff168173ffffffffffffffffffffffffffffffffffffffff1614156126c65760009150612858565b8073ffffffffffffffffffffffffffffffffffffffff1663fdef91068630876126ee88612ef4565b6040518563ffffffff167c0100000000000000000000000000000000000000000000000000000000028152600401808573ffffffffffffffffffffffffffffffffffffffff1673ffffffffffffffffffffffffffffffffffffffff1681526020018473ffffffffffffffffffffffffffffffffffffffff1673ffffffffffffffffffffffffffffffffffffffff168152602001836000191660001916815260200180602001828103825283818151815260200191508051906020019080838360005b838110156127cb5780820151818401526020810190506127b0565b50505050905090810190601f1680156127f85780820380516001836020036101000a031916815260200191505b5095505050505050602060405180830381600087803b15801561281a57600080fd5b505af115801561282e573d6000803e3d6000fd5b505050506040513d602081101561284457600080fd5b810190808051906020019092919050505091505b509392505050565b60008061286b612ab7565b73ffffffffffffffffffffffffffffffffffffffff1663be00bbd87fd6f028ca0e8edb4a8c9757ca4fdccab25fa1e0317da1188108f7d2dee14902fb6001027fddbcfd564f642ab5627cf68b9b7d374fb4f8a36e941a75d89c87998cef03bd616001026040518363ffffffff167c0100000000000000000000000000000000000000000000000000000000028152600401808360001916600019168152602001826000191660001916815260200192505050602060405180830381600087803b15801561293757600080fd5b505af115801561294b573d6000803e3d6000fd5b505050506040513d602081101561296157600080fd5b810190808051906020019092919050505090508091505090565b600061298561220f565b146040805190810160405280601881526020017f494e49545f414c52454144595f494e495449414c495a45440000000000000000815250901515612a64576040517f08c379a00000000000000000000000000000000000000000000000000000000081526004018080602001828103825283818151815260200191508051906020019080838360005b83811015612a29578082015181840152602081019050612a0e565b50505050905090810190601f168015612a565780820380516001836020036101000a031916815260200191505b509250505060405180910390fd5b50612a6d612f0b565b80600160006101000a81548173ffffffffffffffffffffffffffffffffffffffff021916908373ffffffffffffffffffffffffffffffffffffffff16021790555050565b60025481565b6000612ae97f4172f0f7d2289153072b0a6ca36959e0cbe2efc3afe50fc81636caa96338137b60010260001916613038565b905090565b60007fffffffffffffffffffffffffffffffffffffffffffffffffffffffffffffffff612b1961220f565b14905090565b600043905090565b600081549050919050565b6000600260008154600101919050819055905060408051908101604052808460001916815260200183815250600080838152602001908152602001600020600082015181600001906000191690556020820151816001019080519060200190612b9c9291906130d1565b509050507ff06a29c94c6f4edc1085072972d9441f7603e81c8535a308f214285d0653c850816040518082815260200191505060405180910390a192915050565b600081549050919050565b600080600073ffffffffffffffffffffffffffffffffffffffff168373ffffffffffffffffffffffffffffffffffffffff161415612c295760009150612c34565b823b90506000811191505b50919050565b600060606000808573ffffffffffffffffffffffffffffffffffffffff166370a0823190507c01000000000000000000000000000000000000000000000000000000000285604051602401808273ffffffffffffffffffffffffffffffffffffffff1673ffffffffffffffffffffffffffffffffffffffff168152602001915050604051602081830303815290604052907bffffffffffffffffffffffffffffffffffffffffffffffffffffffff19166020820180517bffffffffffffffffffffffffffffffffffffffffffffffffffffffff83818316178352505050509250612d248684613043565b91509150816040805190810160405280601c81526020017f534146455f4552435f32305f42414c414e43455f524556455254454400000000815250901515612e07576040517f08c379a00000000000000000000000000000000000000000000000000000000081526004018080602001828103825283818151815260200191508051906020019080838360005b83811015612dcc578082015181840152602081019050612db1565b50505050905090810190601f168015612df95780820380516001836020036101000a031916815260200191505b509250505060405180910390fd5b5080935050505092915050565b6000606063a9059cbb7c0100000000000000000000000000000000000000000000000000000000028484604051602401808373ffffffffffffffffffffffffffffffffffffffff1673ffffffffffffffffffffffffffffffffffffffff16815260200182815260200192505050604051602081830303815290604052907bffffffffffffffffffffffffffffffffffffffffffffffffffffffff19166020820180517bffffffffffffffffffffffffffffffffffffffffffffffffffffffff83818316178352505050509050612eea8582613078565b9150509392505050565b606060006020835102905082915080825250919050565b6000612f1561220f565b146040805190810160405280601881526020017f494e49545f414c52454144595f494e495449414c495a45440000000000000000815250901515612ff4576040517f08c379a00000000000000000000000000000000000000000000000000000000081526004018080602001828103825283818151815260200191508051906020019080838360005b83811015612fb9578082015181840152602081019050612f9e565b50505050905090810190601f168015612fe65780820380516001836020036101000a031916815260200191505b509250505060405180910390fd5b50613036613000612b1f565b7febb05b386a8d34882b8711d156f463690983dc47815980fb82aeeff1aa43579e600102600019166130ca90919063ffffffff16565b565b600081549050919050565b6000806000806040516020818751602089018a5afa9250600083111561306857805191505b5081819350935050509250929050565b6000806040516020818551602087016000895af160008111156130be573d600081146130ab57602081146130b4576130bc565b600193506130bc565b600183511493505b505b50508091505092915050565b8082555050565b828054600181600116156101000203166002900490600052602060002090601f016020900481019282601f1061311257805160ff1916838001178555613140565b82800160010185558215613140579182015b8281111561313f578251825591602001919060010190613124565b5b50905061314d9190613151565b5090565b61317391905b8082111561316f576000816000905550600101613157565b5090565b905600a165627a7a72305820c6a0c8d0b8d7ff397f983a23a783805946139cb9bbe39020b5f3e451b3b936e80029",
  "source": "pragma solidity ^0.4.24;\n\nimport \"@aragon/os/contracts/apps/AragonApp.sol\";\nimport \"@aragon/apps-token-manager/contracts/TokenManager.sol\";\n\ncontract Airdrop is AragonApp {\n\n    struct Airdrop {\n      bytes32 root;\n      string dataURI;\n      mapping(address => bool) awarded;\n    }\n\n    /// Events\n    event Start(uint id);\n    event Award(uint id, address recipient, uint amount);\n\n    /// State\n    mapping(uint => Airdrop) public airdrops;\n    TokenManager public tokenManager;\n    uint public airdropsCount;\n\n    /// ACL\n    bytes32 constant public START_ROLE = keccak256(\"START_ROLE\");\n\n    // Errors\n    string private constant ERROR_AWARDED = \"AWARDED\";\n    string private constant ERROR_INVALID = \"INVALID\";\n\n    function initialize(address _tokenManager) onlyInit public {\n        initialized();\n\n        tokenManager = TokenManager(_tokenManager);\n    }\n\n    /**\n     * @notice Start a new airdrop `_root` / `_dataURI`\n     * @param _root New airdrop merkle root\n     * @param _dataURI Data URI for airdrop data\n     */\n    function start(bytes32 _root, string _dataURI) auth(START_ROLE) public {\n        _start(_root, _dataURI);\n    }\n\n    function _start(bytes32 _root, string _dataURI) internal returns(uint id){\n        id = ++airdropsCount;    // start at 1\n        airdrops[id] = Airdrop(_root, _dataURI);\n        emit Start(id);\n    }\n\n    /**\n     * @notice Award from airdrop\n     * @param _id Airdrop id\n     * @param _recipient Airdrop recipient\n     * @param _amount The token amount\n     * @param _proof Merkle proof to correspond to data supplied\n     */\n    function award(uint _id, address _recipient, uint256 _amount, bytes32[] _proof) public {\n        Airdrop storage airdrop = airdrops[_id];\n\n        bytes32 hash = keccak256(abi.encodePacked(_recipient, _amount));\n        require( validate(airdrop.root, _proof, hash), ERROR_INVALID );\n\n        require( !airdrops[_id].awarded[_recipient], ERROR_AWARDED );\n\n        airdrops[_id].awarded[_recipient] = true;\n\n        tokenManager.mint(_recipient, _amount);\n\n        emit Award(_id, _recipient, _amount);\n    }\n\n    /**\n     * @notice Award from airdrop\n     * @param _ids Airdrop ids\n     * @param _recipient Recepient of award\n     * @param _amounts The amounts\n     * @param _proofs Merkle proofs\n     * @param _proofLengths Merkle proof lengths\n     */\n    function awardFromMany(uint[] _ids, address _recipient, uint[] _amounts, bytes _proofs, uint[] _proofLengths) public {\n        uint totalAmount;\n\n        uint marker = 32;\n\n        for (uint i = 0; i < _ids.length; i++) {\n            uint id = _ids[i];\n\n            bytes32[] memory proof = extractProof(_proofs, marker, _proofLengths[i]);\n            marker += _proofLengths[i]*32;\n\n            bytes32 hash = keccak256(abi.encodePacked(_recipient, _amounts[i]));\n            require( validate(airdrops[id].root, proof, hash), ERROR_INVALID );\n\n            require( !airdrops[id].awarded[_recipient], ERROR_AWARDED );\n\n            airdrops[id].awarded[_recipient] = true;\n\n            totalAmount += _amounts[i];\n\n            emit Award(id, _recipient, _amounts[i]);\n        }\n\n        tokenManager.mint(_recipient, totalAmount);\n    }\n\n    /**\n     * @notice Award from airdrop\n     * @param _id Airdrop ids\n     * @param _recipients Recepients of award\n     * @param _amounts The amounts\n     * @param _proofs Merkle proofs\n     * @param _proofLengths Merkle proof lengths\n     */\n    function awardToMany(uint _id, address[] _recipients, uint[] _amounts, bytes _proofs, uint[] _proofLengths) public {\n        uint marker = 32;\n\n        for (uint i = 0; i < _recipients.length; i++) {\n            address recipient = _recipients[i];\n\n            if( recipient == address(0) )\n                continue;\n\n            if( airdrops[_id].awarded[recipient] )\n                continue;\n\n            airdrops[_id].awarded[recipient] = true;\n\n            bytes32[] memory proof = extractProof(_proofs, marker, _proofLengths[i]);\n            marker += _proofLengths[i]*32;\n\n            bytes32 hash = keccak256(abi.encodePacked(recipient, _amounts[i]));\n            if( !validate(airdrops[_id].root, proof, hash) )\n                continue;\n\n            tokenManager.mint(recipient, _amounts[i]);\n\n            emit Award(_id, recipient, _amounts[i]);\n        }\n    }\n\n    function extractProof(bytes _proofs, uint _marker, uint proofLength) public pure returns (bytes32[] proof) {\n\n        proof = new bytes32[](proofLength);\n\n        bytes32 el;\n\n        for (uint j = 0; j < proofLength; j++) {\n            assembly {\n                el := mload(add(_proofs, _marker))\n            }\n            proof[j] = el;\n            _marker += 32;\n        }\n\n    }\n\n    function validate(bytes32 root, bytes32[] proof, bytes32 hash) public pure returns (bool) {\n\n        for (uint i = 0; i < proof.length; i++) {\n            if (hash < proof[i]) {\n                hash = keccak256(abi.encodePacked(hash, proof[i]));\n            } else {\n                hash = keccak256(abi.encodePacked(proof[i], hash));\n            }\n        }\n\n        return hash == root;\n    }\n\n    /**\n     * @notice Check if recipient:`_recipient` awarded from airdrop:`_id`\n     * @param _id Airdrop id\n     * @param _recipient Recipient to check\n     */\n    function awarded(uint _id, address _recipient) public view returns(bool) {\n        return airdrops[_id].awarded[_recipient];\n    }\n}\n",
  "sourcePath": "@1hive/airdrop-app/contracts/Airdrop.sol",
  "compiler": {
    "name": "solc",
    "version": "0.4.24+commit.e67f0147.Emscripten.clang"
  },
  "schemaVersion": "2.0.1",
  "updatedAt": "2019-10-18T19:49:43.773Z"
}