{
  "contractName": "AirdropDuo",
  "abi": [
    {
      "constant": true,
      "inputs": [],
      "name": "hasInitialized",
      "outputs": [
        {
          "name": "",
          "type": "bool"
        }
      ],
      "payable": false,
      "stateMutability": "view",
      "type": "function"
    },
    {
      "constant": true,
      "inputs": [
        {
          "name": "_script",
          "type": "bytes"
        }
      ],
      "name": "getEVMScriptExecutor",
      "outputs": [
        {
          "name": "",
          "type": "address"
        }
      ],
      "payable": false,
      "stateMutability": "view",
      "type": "function"
    },
    {
      "constant": true,
      "inputs": [],
      "name": "tokenManager1",
      "outputs": [
        {
          "name": "",
          "type": "address"
        }
      ],
      "payable": false,
      "stateMutability": "view",
      "type": "function"
    },
    {
      "constant": true,
      "inputs": [],
      "name": "getRecoveryVault",
      "outputs": [
        {
          "name": "",
          "type": "address"
        }
      ],
      "payable": false,
      "stateMutability": "view",
      "type": "function"
    },
    {
      "constant": true,
      "inputs": [],
      "name": "START_ROLE",
      "outputs": [
        {
          "name": "",
          "type": "bytes32"
        }
      ],
      "payable": false,
      "stateMutability": "view",
      "type": "function"
    },
    {
      "constant": true,
      "inputs": [
        {
          "name": "",
          "type": "uint256"
        }
      ],
      "name": "airdrops",
      "outputs": [
        {
          "name": "root",
          "type": "bytes32"
        },
        {
          "name": "dataURI",
          "type": "string"
        }
      ],
      "payable": false,
      "stateMutability": "view",
      "type": "function"
    },
    {
      "constant": true,
      "inputs": [],
      "name": "tokenManager0",
      "outputs": [
        {
          "name": "",
          "type": "address"
        }
      ],
      "payable": false,
      "stateMutability": "view",
      "type": "function"
    },
    {
      "constant": true,
      "inputs": [
        {
          "name": "token",
          "type": "address"
        }
      ],
      "name": "allowRecoverability",
      "outputs": [
        {
          "name": "",
          "type": "bool"
        }
      ],
      "payable": false,
      "stateMutability": "view",
      "type": "function"
    },
    {
      "constant": true,
      "inputs": [],
      "name": "appId",
      "outputs": [
        {
          "name": "",
          "type": "bytes32"
        }
      ],
      "payable": false,
      "stateMutability": "view",
      "type": "function"
    },
    {
      "constant": true,
      "inputs": [],
      "name": "getInitializationBlock",
      "outputs": [
        {
          "name": "",
          "type": "uint256"
        }
      ],
      "payable": false,
      "stateMutability": "view",
      "type": "function"
    },
    {
      "constant": false,
      "inputs": [
        {
          "name": "_token",
          "type": "address"
        }
      ],
      "name": "transferToVault",
      "outputs": [],
      "payable": false,
      "stateMutability": "nonpayable",
      "type": "function"
    },
    {
      "constant": true,
      "inputs": [
        {
          "name": "_sender",
          "type": "address"
        },
        {
          "name": "_role",
          "type": "bytes32"
        },
        {
          "name": "_params",
          "type": "uint256[]"
        }
      ],
      "name": "canPerform",
      "outputs": [
        {
          "name": "",
          "type": "bool"
        }
      ],
      "payable": false,
      "stateMutability": "view",
      "type": "function"
    },
    {
      "constant": true,
      "inputs": [],
      "name": "getEVMScriptRegistry",
      "outputs": [
        {
          "name": "",
          "type": "address"
        }
      ],
      "payable": false,
      "stateMutability": "view",
      "type": "function"
    },
    {
      "constant": true,
      "inputs": [],
      "name": "airdropsCount",
      "outputs": [
        {
          "name": "",
          "type": "uint256"
        }
      ],
      "payable": false,
      "stateMutability": "view",
      "type": "function"
    },
    {
      "constant": true,
      "inputs": [],
      "name": "kernel",
      "outputs": [
        {
          "name": "",
          "type": "address"
        }
      ],
      "payable": false,
      "stateMutability": "view",
      "type": "function"
    },
    {
      "constant": true,
      "inputs": [],
      "name": "isPetrified",
      "outputs": [
        {
          "name": "",
          "type": "bool"
        }
      ],
      "payable": false,
      "stateMutability": "view",
      "type": "function"
    },
    {
      "anonymous": false,
      "inputs": [
        {
          "indexed": false,
          "name": "id",
          "type": "uint256"
        }
      ],
      "name": "Start",
      "type": "event"
    },
    {
      "anonymous": false,
      "inputs": [
        {
          "indexed": false,
          "name": "id",
          "type": "uint256"
        },
        {
          "indexed": false,
          "name": "recipient",
          "type": "address"
        },
        {
          "indexed": false,
          "name": "amount0",
          "type": "uint256"
        },
        {
          "indexed": false,
          "name": "amount1",
          "type": "uint256"
        }
      ],
      "name": "Award",
      "type": "event"
    },
    {
      "anonymous": false,
      "inputs": [
        {
          "indexed": true,
          "name": "executor",
          "type": "address"
        },
        {
          "indexed": false,
          "name": "script",
          "type": "bytes"
        },
        {
          "indexed": false,
          "name": "input",
          "type": "bytes"
        },
        {
          "indexed": false,
          "name": "returnData",
          "type": "bytes"
        }
      ],
      "name": "ScriptResult",
      "type": "event"
    },
    {
      "anonymous": false,
      "inputs": [
        {
          "indexed": true,
          "name": "vault",
          "type": "address"
        },
        {
          "indexed": true,
          "name": "token",
          "type": "address"
        },
        {
          "indexed": false,
          "name": "amount",
          "type": "uint256"
        }
      ],
      "name": "RecoverToVault",
      "type": "event"
    },
    {
      "constant": false,
      "inputs": [
        {
          "name": "_tokenManager0",
          "type": "address"
        },
        {
          "name": "_tokenManager1",
          "type": "address"
        }
      ],
      "name": "initialize",
      "outputs": [],
      "payable": false,
      "stateMutability": "nonpayable",
      "type": "function"
    },
    {
      "constant": false,
      "inputs": [
        {
          "name": "_root",
          "type": "bytes32"
        },
        {
          "name": "_dataURI",
          "type": "string"
        }
      ],
      "name": "start",
      "outputs": [],
      "payable": false,
      "stateMutability": "nonpayable",
      "type": "function"
    },
    {
      "constant": false,
      "inputs": [
        {
          "name": "_id",
          "type": "uint256"
        },
        {
          "name": "_recipient",
          "type": "address"
        },
        {
          "name": "_amount0",
          "type": "uint256"
        },
        {
          "name": "_amount1",
          "type": "uint256"
        },
        {
          "name": "_proof",
          "type": "bytes32[]"
        }
      ],
      "name": "award",
      "outputs": [],
      "payable": false,
      "stateMutability": "nonpayable",
      "type": "function"
    },
    {
      "constant": false,
      "inputs": [
        {
          "name": "_ids",
          "type": "uint256[]"
        },
        {
          "name": "_recipient",
          "type": "address"
        },
        {
          "name": "_amount0s",
          "type": "uint256[]"
        },
        {
          "name": "_amount1s",
          "type": "uint256[]"
        },
        {
          "name": "_proofs",
          "type": "bytes"
        },
        {
          "name": "_proofLengths",
          "type": "uint256[]"
        }
      ],
      "name": "awardFromMany",
      "outputs": [],
      "payable": false,
      "stateMutability": "nonpayable",
      "type": "function"
    },
    {
      "constant": false,
      "inputs": [
        {
          "name": "_id",
          "type": "uint256"
        },
        {
          "name": "_recipients",
          "type": "address[]"
        },
        {
          "name": "_amount0s",
          "type": "uint256[]"
        },
        {
          "name": "_amount1s",
          "type": "uint256[]"
        },
        {
          "name": "_proofs",
          "type": "bytes"
        },
        {
          "name": "_proofLengths",
          "type": "uint256[]"
        }
      ],
      "name": "awardToMany",
      "outputs": [],
      "payable": false,
      "stateMutability": "nonpayable",
      "type": "function"
    },
    {
      "constant": true,
      "inputs": [
        {
          "name": "_proofs",
          "type": "bytes"
        },
        {
          "name": "_marker",
          "type": "uint256"
        },
        {
          "name": "proofLength",
          "type": "uint256"
        }
      ],
      "name": "extractProof",
      "outputs": [
        {
          "name": "proof",
          "type": "bytes32[]"
        }
      ],
      "payable": false,
      "stateMutability": "pure",
      "type": "function"
    },
    {
      "constant": true,
      "inputs": [
        {
          "name": "root",
          "type": "bytes32"
        },
        {
          "name": "proof",
          "type": "bytes32[]"
        },
        {
          "name": "hash",
          "type": "bytes32"
        }
      ],
      "name": "validate",
      "outputs": [
        {
          "name": "",
          "type": "bool"
        }
      ],
      "payable": false,
      "stateMutability": "pure",
      "type": "function"
    },
    {
      "constant": true,
      "inputs": [
        {
          "name": "_id",
          "type": "uint256"
        },
        {
          "name": "_recipient",
          "type": "address"
        }
      ],
      "name": "awarded",
      "outputs": [
        {
          "name": "",
          "type": "bool"
        }
      ],
      "payable": false,
      "stateMutability": "view",
      "type": "function"
    }
  ],
  "bytecode": "0x60806040526200001d62000023640100000000026401000000009004565b62000309565b60006200003e6200015e640100000000026401000000009004565b146040805190810160405280601881526020017f494e49545f414c52454144595f494e495449414c495a4544000000000000000081525090151562000121576040517f08c379a00000000000000000000000000000000000000000000000000000000081526004018080602001828103825283818151815260200191508051906020019080838360005b83811015620000e5578082015181840152602081019050620000c8565b50505050905090810190601f168015620001135780820380516001836020036101000a031916815260200191505b509250505060405180910390fd5b506200015c7fffffffffffffffffffffffffffffffffffffffffffffffffffffffffffffffff620001ab640100000000026401000000009004565b565b6000620001a67febb05b386a8d34882b8711d156f463690983dc47815980fb82aeeff1aa43579e60010260001916620002f764010000000002620031a6176401000000009004565b905090565b6000620001c66200015e640100000000026401000000009004565b146040805190810160405280601881526020017f494e49545f414c52454144595f494e495449414c495a45440000000000000000815250901515620002a9576040517f08c379a00000000000000000000000000000000000000000000000000000000081526004018080602001828103825283818151815260200191508051906020019080838360005b838110156200026d57808201518184015260208101905062000250565b50505050905090810190601f1680156200029b5780820380516001836020036101000a031916815260200191505b509250505060405180910390fd5b50620002f4817febb05b386a8d34882b8711d156f463690983dc47815980fb82aeeff1aa43579e600102600019166200030264010000000002620034df179091906401000000009004565b50565b600081549050919050565b8082555050565b61363e80620003196000396000f30060806040526004361061013e576000357c0100000000000000000000000000000000000000000000000000000000900463ffffffff1680630803fac0146101435780632914b9bd146101725780632998ed7c1461021b57806332f0a3b5146102725780633746f5fc146102c9578063485cc95514610363578063507b4063146103c657806359518e86146103f957806360db508214610578578063624a5ad91461062d57806374063c21146106845780637e7db6e1146107565780637f9f96c4146107b157806380afdea81461081657806380c9ea50146108495780638b3dd749146108c05780639d4941d8146108eb578063a1658fad1461092e578063a479e508146109da578063c007566214610a31578063d0bb1d4014610bc6578063d4aae0c414610bf1578063db01ca4f14610c48578063de4796ed14610cec575b600080fd5b34801561014f57600080fd5b50610158610d1b565b604051808215151515815260200191505060405180910390f35b34801561017e57600080fd5b506101d9600480360381019080803590602001908201803590602001908080601f0160208091040260200160405190810160405280939291908181526020018383808284378201915050505050509192919290505050610d46565b604051808273ffffffffffffffffffffffffffffffffffffffff1673ffffffffffffffffffffffffffffffffffffffff16815260200191505060405180910390f35b34801561022757600080fd5b50610230610e65565b604051808273ffffffffffffffffffffffffffffffffffffffff1673ffffffffffffffffffffffffffffffffffffffff16815260200191505060405180910390f35b34801561027e57600080fd5b50610287610e8b565b604051808273ffffffffffffffffffffffffffffffffffffffff1673ffffffffffffffffffffffffffffffffffffffff16815260200191505060405180910390f35b3480156102d557600080fd5b506103496004803603810190808035600019169060200190929190803590602001908201803590602001908080602002602001604051908101604052809392919081815260200183836020028082843782019150505050505091929192908035600019169060200190929190505050610f38565b604051808215151515815260200191505060405180910390f35b34801561036f57600080fd5b506103c4600480360381019080803573ffffffffffffffffffffffffffffffffffffffff169060200190929190803573ffffffffffffffffffffffffffffffffffffffff1690602001909291905050506110fe565b005b3480156103d257600080fd5b506103db611276565b60405180826000191660001916815260200191505060405180910390f35b34801561040557600080fd5b5061057660048036038101908080359060200190929190803590602001908201803590602001908080602002602001604051908101604052809392919081815260200183836020028082843782019150505050505091929192908035906020019082018035906020019080806020026020016040519081016040528093929190818152602001838360200280828437820191505050505050919291929080359060200190820180359060200190808060200260200160405190810160405280939291908181526020018383602002808284378201915050505050509192919290803590602001908201803590602001908080601f0160208091040260200160405190810160405280939291908181526020018383808284378201915050505050509192919290803590602001908201803590602001908080602002602001604051908101604052809392919081815260200183836020028082843782019150505050505091929192905050506112af565b005b34801561058457600080fd5b506105a3600480360381019080803590602001909291905050506117d0565b60405180836000191660001916815260200180602001828103825283818151815260200191508051906020019080838360005b838110156105f15780820151818401526020810190506105d6565b50505050905090810190601f16801561061e5780820380516001836020036101000a031916815260200191505b50935050505060405180910390f35b34801561063957600080fd5b5061064261188c565b604051808273ffffffffffffffffffffffffffffffffffffffff1673ffffffffffffffffffffffffffffffffffffffff16815260200191505060405180910390f35b34801561069057600080fd5b506106ff600480360381019080803590602001908201803590602001908080601f016020809104026020016040519081016040528093929190818152602001838380828437820191505050505050919291929080359060200190929190803590602001909291905050506118b2565b6040518080602001828103825283818151815260200191508051906020019060200280838360005b83811015610742578082015181840152602081019050610727565b505050509050019250505060405180910390f35b34801561076257600080fd5b50610797600480360381019080803573ffffffffffffffffffffffffffffffffffffffff16906020019092919050505061193f565b604051808215151515815260200191505060405180910390f35b3480156107bd57600080fd5b506107fc60048036038101908080359060200190929190803573ffffffffffffffffffffffffffffffffffffffff16906020019092919050505061194a565b604051808215151515815260200191505060405180910390f35b34801561082257600080fd5b5061082b6119b4565b60405180826000191660001916815260200191505060405180910390f35b34801561085557600080fd5b506108be6004803603810190808035600019169060200190929190803590602001908201803590602001908080601f01602080910402602001604051908101604052809392919081815260200183838082843782019150505050505091929192905050506119eb565b005b3480156108cc57600080fd5b506108d5611b4b565b6040518082815260200191505060405180910390f35b3480156108f757600080fd5b5061092c600480360381019080803573ffffffffffffffffffffffffffffffffffffffff169060200190929190505050611b82565b005b34801561093a57600080fd5b506109c0600480360381019080803573ffffffffffffffffffffffffffffffffffffffff169060200190929190803560001916906020019092919080359060200190820180359060200190808060200260200160405190810160405280939291908181526020018383602002808284378201915050505050509192919290505050611fa0565b604051808215151515815260200191505060405180910390f35b3480156109e657600080fd5b506109ef61219c565b604051808273ffffffffffffffffffffffffffffffffffffffff1673ffffffffffffffffffffffffffffffffffffffff16815260200191505060405180910390f35b348015610a3d57600080fd5b50610bc460048036038101908080359060200190820180359060200190808060200260200160405190810160405280939291908181526020018383602002808284378201915050505050509192919290803573ffffffffffffffffffffffffffffffffffffffff1690602001909291908035906020019082018035906020019080806020026020016040519081016040528093929190818152602001838360200280828437820191505050505050919291929080359060200190820180359060200190808060200260200160405190810160405280939291908181526020018383602002808284378201915050505050509192919290803590602001908201803590602001908080601f0160208091040260200160405190810160405280939291908181526020018383808284378201915050505050509192919290803590602001908201803590602001908080602002602001604051908101604052809392919081815260200183836020028082843782019150505050505091929192905050506122b7565b005b348015610bd257600080fd5b50610bdb612990565b6040518082815260200191505060405180910390f35b348015610bfd57600080fd5b50610c06612996565b604051808273ffffffffffffffffffffffffffffffffffffffff1673ffffffffffffffffffffffffffffffffffffffff16815260200191505060405180910390f35b348015610c5457600080fd5b50610cea60048036038101908080359060200190929190803573ffffffffffffffffffffffffffffffffffffffff1690602001909291908035906020019092919080359060200190929190803590602001908201803590602001908080602002602001604051908101604052809392919081815260200183836020028082843782019150505050505091929192905050506129cd565b005b348015610cf857600080fd5b50610d01612f8a565b604051808215151515815260200191505060405180910390f35b600080610d26611b4b565b905060008114158015610d40575080610d3d612fbb565b10155b91505090565b6000610d5061219c565b73ffffffffffffffffffffffffffffffffffffffff166304bf2a7f836040518263ffffffff167c01000000000000000000000000000000000000000000000000000000000281526004018080602001828103825283818151815260200191508051906020019080838360005b83811015610dd7578082015181840152602081019050610dbc565b50505050905090810190601f168015610e045780820380516001836020036101000a031916815260200191505b5092505050602060405180830381600087803b158015610e2357600080fd5b505af1158015610e37573d6000803e3d6000fd5b505050506040513d6020811015610e4d57600080fd5b81019080805190602001909291905050509050919050565b600260009054906101000a900473ffffffffffffffffffffffffffffffffffffffff1681565b6000610e95612996565b73ffffffffffffffffffffffffffffffffffffffff166332f0a3b56040518163ffffffff167c0100000000000000000000000000000000000000000000000000000000028152600401602060405180830381600087803b158015610ef857600080fd5b505af1158015610f0c573d6000803e3d6000fd5b505050506040513d6020811015610f2257600080fd5b8101908080519060200190929190505050905090565b600080600090505b83518110156110e9578381815181101515610f5757fe5b90602001906020020151600019168360001916101561102857828482815181101515610f7f57fe5b906020019060200201516040516020018083600019166000191681526020018260001916600019168152602001925050506040516020818303038152906040526040518082805190602001908083835b602083101515610ff45780518252602082019150602081019050602083039250610fcf565b6001836020036101000a038019825116818451168082178552505050505050905001915050604051809103902092506110dc565b838181518110151561103657fe5b90602001906020020151836040516020018083600019166000191681526020018260001916600019168152602001925050506040516020818303038152906040526040518082805190602001908083835b6020831015156110ac5780518252602082019150602081019050602083039250611087565b6001836020036101000a038019825116818451168082178552505050505050905001915050604051809103902092505b8080600101915050610f40565b84600019168360001916149150509392505050565b6000611108611b4b565b146040805190810160405280601881526020017f494e49545f414c52454144595f494e495449414c495a454400000000000000008152509015156111e7576040517f08c379a00000000000000000000000000000000000000000000000000000000081526004018080602001828103825283818151815260200191508051906020019080838360005b838110156111ac578082015181840152602081019050611191565b50505050905090810190601f1680156111d95780820380516001836020036101000a031916815260200191505b509250505060405180910390fd5b506111f0612fc3565b81600160006101000a81548173ffffffffffffffffffffffffffffffffffffffff021916908373ffffffffffffffffffffffffffffffffffffffff16021790555080600260006101000a81548173ffffffffffffffffffffffffffffffffffffffff021916908373ffffffffffffffffffffffffffffffffffffffff1602179055505050565b60405180807f53544152545f524f4c4500000000000000000000000000000000000000000000815250600a019050604051809103902081565b60008060006060600060209450600093505b89518410156117c35789848151811015156112d857fe5b9060200190602002015192506000808c815260200190815260200160002060020160008473ffffffffffffffffffffffffffffffffffffffff1673ffffffffffffffffffffffffffffffffffffffff16815260200190815260200160002060009054906101000a900460ff161561134e576117b6565b60016000808d815260200190815260200160002060020160008573ffffffffffffffffffffffffffffffffffffffff1673ffffffffffffffffffffffffffffffffffffffff16815260200190815260200160002060006101000a81548160ff0219169083151502179055506113db878688878151811015156113cc57fe5b906020019060200201516118b2565b9150602086858151811015156113ed57fe5b90602001906020020151028501945082898581518110151561140b57fe5b90602001906020020151898681518110151561142357fe5b90602001906020020151604051602001808473ffffffffffffffffffffffffffffffffffffffff1673ffffffffffffffffffffffffffffffffffffffff166c0100000000000000000000000002815260140183815260200182815260200193505050506040516020818303038152906040526040518082805190602001908083835b6020831015156114ca57805182526020820191506020810190506020830392506114a5565b6001836020036101000a038019825116818451168082178552505050505050905001915050604051809103902090506115196000808d8152602001908152602001600020600001548383610f38565b1515611524576117b6565b600160009054906101000a900473ffffffffffffffffffffffffffffffffffffffff1673ffffffffffffffffffffffffffffffffffffffff166340c10f19848b8781518110151561157157fe5b906020019060200201516040518363ffffffff167c0100000000000000000000000000000000000000000000000000000000028152600401808373ffffffffffffffffffffffffffffffffffffffff1673ffffffffffffffffffffffffffffffffffffffff16815260200182815260200192505050600060405180830381600087803b15801561160057600080fd5b505af1158015611614573d6000803e3d6000fd5b50505050600260009054906101000a900473ffffffffffffffffffffffffffffffffffffffff1673ffffffffffffffffffffffffffffffffffffffff166340c10f19848a8781518110151561166557fe5b906020019060200201516040518363ffffffff167c0100000000000000000000000000000000000000000000000000000000028152600401808373ffffffffffffffffffffffffffffffffffffffff1673ffffffffffffffffffffffffffffffffffffffff16815260200182815260200192505050600060405180830381600087803b1580156116f457600080fd5b505af1158015611708573d6000803e3d6000fd5b505050507faef6b958f127fbbcebd32e1ac7a97e73725baf62c3852dd157c88690afff9e998b848b8781518110151561173d57fe5b906020019060200201518b8881518110151561175557fe5b90602001906020020151604051808581526020018473ffffffffffffffffffffffffffffffffffffffff1673ffffffffffffffffffffffffffffffffffffffff16815260200183815260200182815260200194505050505060405180910390a15b83806001019450506112c1565b5050505050505050505050565b6000602052806000526040600020600091509050806000015490806001018054600181600116156101000203166002900480601f0160208091040260200160405190810160405280929190818152602001828054600181600116156101000203166002900480156118825780601f1061185757610100808354040283529160200191611882565b820191906000526020600020905b81548152906001019060200180831161186557829003601f168201915b5050505050905082565b600160009054906101000a900473ffffffffffffffffffffffffffffffffffffffff1681565b6060600080836040519080825280602002602001820160405280156118e65781602001602082028038833980820191505090505b509250600090505b838110156119365784860151915081838281518110151561190b57fe5b90602001906020020190600019169081600019168152505060208501945080806001019150506118ee565b50509392505050565b600060019050919050565b600080600084815260200190815260200160002060020160008373ffffffffffffffffffffffffffffffffffffffff1673ffffffffffffffffffffffffffffffffffffffff16815260200190815260200160002060009054906101000a900460ff16905092915050565b60006119e67fd625496217aa6a3453eecb9c3489dc5a53e6c67b444329ea2b2cbc9ff547639b600102600019166130f0565b905090565b60405180807f53544152545f524f4c4500000000000000000000000000000000000000000000815250600a0190506040518091039020611a5c33826000604051908082528060200260200182016040528015611a565781602001602082028038833980820191505090505b50611fa0565b6040805190810160405280600f81526020017f4150505f415554485f4641494c45440000000000000000000000000000000000815250901515611b3a576040517f08c379a00000000000000000000000000000000000000000000000000000000081526004018080602001828103825283818151815260200191508051906020019080838360005b83811015611aff578082015181840152602081019050611ae4565b50505050905090810190601f168015611b2c5780820380516001836020036101000a031916815260200191505b509250505060405180910390fd5b50611b4583836130fb565b50505050565b6000611b7d7febb05b386a8d34882b8711d156f463690983dc47815980fb82aeeff1aa43579e600102600019166131a6565b905090565b6000806000611b908461193f565b6040805190810160405280601281526020017f5245434f5645525f444953414c4c4f5745440000000000000000000000000000815250901515611c6e576040517f08c379a00000000000000000000000000000000000000000000000000000000081526004018080602001828103825283818151815260200191508051906020019080838360005b83811015611c33578082015181840152602081019050611c18565b50505050905090810190601f168015611c605780820380516001836020036101000a031916815260200191505b509250505060405180910390fd5b50611c77610e8b565b9250611c82836131b1565b6040805190810160405280601a81526020017f5245434f5645525f5641554c545f4e4f545f434f4e5452414354000000000000815250901515611d60576040517f08c379a00000000000000000000000000000000000000000000000000000000081526004018080602001828103825283818151815260200191508051906020019080838360005b83811015611d25578082015181840152602081019050611d0a565b50505050905090810190601f168015611d525780820380516001836020036101000a031916815260200191505b509250505060405180910390fd5b50600073ffffffffffffffffffffffffffffffffffffffff168473ffffffffffffffffffffffffffffffffffffffff161415611dfc573073ffffffffffffffffffffffffffffffffffffffff163191508273ffffffffffffffffffffffffffffffffffffffff166108fc839081150290604051600060405180830381858888f19350505050158015611df6573d6000803e3d6000fd5b50611f35565b839050611e28308273ffffffffffffffffffffffffffffffffffffffff1661320390919063ffffffff16565b9150611e5583838373ffffffffffffffffffffffffffffffffffffffff166133dd9092919063ffffffff16565b6040805190810160405280601d81526020017f5245434f5645525f544f4b454e5f5452414e534645525f4641494c4544000000815250901515611f33576040517f08c379a00000000000000000000000000000000000000000000000000000000081526004018080602001828103825283818151815260200191508051906020019080838360005b83811015611ef8578082015181840152602081019050611edd565b50505050905090810190601f168015611f255780820380516001836020036101000a031916815260200191505b509250505060405180910390fd5b505b8373ffffffffffffffffffffffffffffffffffffffff168373ffffffffffffffffffffffffffffffffffffffff167f596caf56044b55fb8c4ca640089bbc2b63cae3e978b851f5745cbb7c5b288e02846040518082815260200191505060405180910390a350505050565b600080611fab610d1b565b1515611fba5760009150612194565b611fc2612996565b9050600073ffffffffffffffffffffffffffffffffffffffff168173ffffffffffffffffffffffffffffffffffffffff1614156120025760009150612194565b8073ffffffffffffffffffffffffffffffffffffffff1663fdef910686308761202a886134bd565b6040518563ffffffff167c0100000000000000000000000000000000000000000000000000000000028152600401808573ffffffffffffffffffffffffffffffffffffffff1673ffffffffffffffffffffffffffffffffffffffff1681526020018473ffffffffffffffffffffffffffffffffffffffff1673ffffffffffffffffffffffffffffffffffffffff168152602001836000191660001916815260200180602001828103825283818151815260200191508051906020019080838360005b838110156121075780820151818401526020810190506120ec565b50505050905090810190601f1680156121345780820380516001836020036101000a031916815260200191505b5095505050505050602060405180830381600087803b15801561215657600080fd5b505af115801561216a573d6000803e3d6000fd5b505050506040513d602081101561218057600080fd5b810190808051906020019092919050505091505b509392505050565b6000806121a7612996565b73ffffffffffffffffffffffffffffffffffffffff1663be00bbd87fd6f028ca0e8edb4a8c9757ca4fdccab25fa1e0317da1188108f7d2dee14902fb6001027fddbcfd564f642ab5627cf68b9b7d374fb4f8a36e941a75d89c87998cef03bd616001026040518363ffffffff167c0100000000000000000000000000000000000000000000000000000000028152600401808360001916600019168152602001826000191660001916815260200192505050602060405180830381600087803b15801561227357600080fd5b505af1158015612287573d6000803e3d6000fd5b505050506040513d602081101561229d57600080fd5b810190808051906020019092919050505090508091505090565b60008060008060006060600060209450600093505b8c518410156127c7578c848151811015156122e357fe5b90602001906020020151925061231189868a8781518110151561230257fe5b906020019060200201516118b2565b91506020888581518110151561232357fe5b9060200190602002015102850194508b8b8581518110151561234157fe5b906020019060200201518b8681518110151561235957fe5b90602001906020020151604051602001808473ffffffffffffffffffffffffffffffffffffffff1673ffffffffffffffffffffffffffffffffffffffff166c0100000000000000000000000002815260140183815260200182815260200193505050506040516020818303038152906040526040518082805190602001908083835b60208310151561240057805182526020820191506020810190506020830392506123db565b6001836020036101000a0380198251168184511680821785525050505050509050019150506040518091039020905061244f600080858152602001908152602001600020600001548383610f38565b6040805190810160405280600781526020017f494e56414c49440000000000000000000000000000000000000000000000000081525090151561252d576040517f08c379a00000000000000000000000000000000000000000000000000000000081526004018080602001828103825283818151815260200191508051906020019080838360005b838110156124f25780820151818401526020810190506124d7565b50505050905090810190601f16801561251f5780820380516001836020036101000a031916815260200191505b509250505060405180910390fd5b5060008084815260200190815260200160002060020160008d73ffffffffffffffffffffffffffffffffffffffff1673ffffffffffffffffffffffffffffffffffffffff16815260200190815260200160002060009054906101000a900460ff16156040805190810160405280600781526020017f415741524445440000000000000000000000000000000000000000000000000081525090151561266d576040517f08c379a00000000000000000000000000000000000000000000000000000000081526004018080602001828103825283818151815260200191508051906020019080838360005b83811015612632578082015181840152602081019050612617565b50505050905090810190601f16801561265f5780820380516001836020036101000a031916815260200191505b509250505060405180910390fd5b50600160008085815260200190815260200160002060020160008e73ffffffffffffffffffffffffffffffffffffffff1673ffffffffffffffffffffffffffffffffffffffff16815260200190815260200160002060006101000a81548160ff0219169083151502179055508a848151811015156126e757fe5b9060200190602002015187019650898481518110151561270357fe5b90602001906020020151860195507faef6b958f127fbbcebd32e1ac7a97e73725baf62c3852dd157c88690afff9e99838d8d8781518110151561274257fe5b906020019060200201518d8881518110151561275a57fe5b90602001906020020151604051808581526020018473ffffffffffffffffffffffffffffffffffffffff1673ffffffffffffffffffffffffffffffffffffffff16815260200183815260200182815260200194505050505060405180910390a183806001019450506122cc565b600160009054906101000a900473ffffffffffffffffffffffffffffffffffffffff1673ffffffffffffffffffffffffffffffffffffffff166340c10f198d896040518363ffffffff167c0100000000000000000000000000000000000000000000000000000000028152600401808373ffffffffffffffffffffffffffffffffffffffff1673ffffffffffffffffffffffffffffffffffffffff16815260200182815260200192505050600060405180830381600087803b15801561288c57600080fd5b505af11580156128a0573d6000803e3d6000fd5b50505050600260009054906101000a900473ffffffffffffffffffffffffffffffffffffffff1673ffffffffffffffffffffffffffffffffffffffff166340c10f198d886040518363ffffffff167c0100000000000000000000000000000000000000000000000000000000028152600401808373ffffffffffffffffffffffffffffffffffffffff1673ffffffffffffffffffffffffffffffffffffffff16815260200182815260200192505050600060405180830381600087803b15801561296957600080fd5b505af115801561297d573d6000803e3d6000fd5b5050505050505050505050505050505050565b60035481565b60006129c87f4172f0f7d2289153072b0a6ca36959e0cbe2efc3afe50fc81636caa96338137b600102600019166134d4565b905090565b6000806000808881526020019081526020016000209150858585604051602001808473ffffffffffffffffffffffffffffffffffffffff1673ffffffffffffffffffffffffffffffffffffffff166c0100000000000000000000000002815260140183815260200182815260200193505050506040516020818303038152906040526040518082805190602001908083835b602083101515612a845780518252602082019150602081019050602083039250612a5f565b6001836020036101000a03801982511681845116808217855250505050505090500191505060405180910390209050612ac282600001548483610f38565b6040805190810160405280600781526020017f494e56414c494400000000000000000000000000000000000000000000000000815250901515612ba0576040517f08c379a00000000000000000000000000000000000000000000000000000000081526004018080602001828103825283818151815260200191508051906020019080838360005b83811015612b65578082015181840152602081019050612b4a565b50505050905090810190601f168015612b925780820380516001836020036101000a031916815260200191505b509250505060405180910390fd5b5060008088815260200190815260200160002060020160008773ffffffffffffffffffffffffffffffffffffffff1673ffffffffffffffffffffffffffffffffffffffff16815260200190815260200160002060009054906101000a900460ff16156040805190810160405280600781526020017f4157415244454400000000000000000000000000000000000000000000000000815250901515612ce0576040517f08c379a00000000000000000000000000000000000000000000000000000000081526004018080602001828103825283818151815260200191508051906020019080838360005b83811015612ca5578082015181840152602081019050612c8a565b50505050905090810190601f168015612cd25780820380516001836020036101000a031916815260200191505b509250505060405180910390fd5b50600160008089815260200190815260200160002060020160008873ffffffffffffffffffffffffffffffffffffffff1673ffffffffffffffffffffffffffffffffffffffff16815260200190815260200160002060006101000a81548160ff021916908315150217905550600160009054906101000a900473ffffffffffffffffffffffffffffffffffffffff1673ffffffffffffffffffffffffffffffffffffffff166340c10f1987876040518363ffffffff167c0100000000000000000000000000000000000000000000000000000000028152600401808373ffffffffffffffffffffffffffffffffffffffff1673ffffffffffffffffffffffffffffffffffffffff16815260200182815260200192505050600060405180830381600087803b158015612e1157600080fd5b505af1158015612e25573d6000803e3d6000fd5b50505050600260009054906101000a900473ffffffffffffffffffffffffffffffffffffffff1673ffffffffffffffffffffffffffffffffffffffff166340c10f1987866040518363ffffffff167c0100000000000000000000000000000000000000000000000000000000028152600401808373ffffffffffffffffffffffffffffffffffffffff1673ffffffffffffffffffffffffffffffffffffffff16815260200182815260200192505050600060405180830381600087803b158015612eee57600080fd5b505af1158015612f02573d6000803e3d6000fd5b505050507faef6b958f127fbbcebd32e1ac7a97e73725baf62c3852dd157c88690afff9e9987878787604051808581526020018473ffffffffffffffffffffffffffffffffffffffff1673ffffffffffffffffffffffffffffffffffffffff16815260200183815260200182815260200194505050505060405180910390a150505050505050565b60007fffffffffffffffffffffffffffffffffffffffffffffffffffffffffffffffff612fb5611b4b565b14905090565b600043905090565b6000612fcd611b4b565b146040805190810160405280601881526020017f494e49545f414c52454144595f494e495449414c495a454400000000000000008152509015156130ac576040517f08c379a00000000000000000000000000000000000000000000000000000000081526004018080602001828103825283818151815260200191508051906020019080838360005b83811015613071578082015181840152602081019050613056565b50505050905090810190601f16801561309e5780820380516001836020036101000a031916815260200191505b509250505060405180910390fd5b506130ee6130b8612fbb565b7febb05b386a8d34882b8711d156f463690983dc47815980fb82aeeff1aa43579e600102600019166134df90919063ffffffff16565b565b600081549050919050565b600060036000815460010191905081905590506040805190810160405280846000191681526020018381525060008083815260200190815260200160002060008201518160000190600019169055602082015181600101908051906020019061316592919061356d565b509050507ff06a29c94c6f4edc1085072972d9441f7603e81c8535a308f214285d0653c850816040518082815260200191505060405180910390a192915050565b600081549050919050565b600080600073ffffffffffffffffffffffffffffffffffffffff168373ffffffffffffffffffffffffffffffffffffffff1614156131f257600091506131fd565b823b90506000811191505b50919050565b600060606000808573ffffffffffffffffffffffffffffffffffffffff166370a0823190507c01000000000000000000000000000000000000000000000000000000000285604051602401808273ffffffffffffffffffffffffffffffffffffffff1673ffffffffffffffffffffffffffffffffffffffff168152602001915050604051602081830303815290604052907bffffffffffffffffffffffffffffffffffffffffffffffffffffffff19166020820180517bffffffffffffffffffffffffffffffffffffffffffffffffffffffff838183161783525050505092506132ed86846134e6565b91509150816040805190810160405280601c81526020017f534146455f4552435f32305f42414c414e43455f5245564552544544000000008152509015156133d0576040517f08c379a00000000000000000000000000000000000000000000000000000000081526004018080602001828103825283818151815260200191508051906020019080838360005b8381101561339557808201518184015260208101905061337a565b50505050905090810190601f1680156133c25780820380516001836020036101000a031916815260200191505b509250505060405180910390fd5b5080935050505092915050565b6000606063a9059cbb7c0100000000000000000000000000000000000000000000000000000000028484604051602401808373ffffffffffffffffffffffffffffffffffffffff1673ffffffffffffffffffffffffffffffffffffffff16815260200182815260200192505050604051602081830303815290604052907bffffffffffffffffffffffffffffffffffffffffffffffffffffffff19166020820180517bffffffffffffffffffffffffffffffffffffffffffffffffffffffff838183161783525050505090506134b3858261351b565b9150509392505050565b606060006020835102905082915080825250919050565b600081549050919050565b8082555050565b6000806000806040516020818751602089018a5afa9250600083111561350b57805191505b5081819350935050509250929050565b6000806040516020818551602087016000895af16000811115613561573d6000811461354e57602081146135575761355f565b6001935061355f565b600183511493505b505b50508091505092915050565b828054600181600116156101000203166002900490600052602060002090601f016020900481019282601f106135ae57805160ff19168380011785556135dc565b828001600101855582156135dc579182015b828111156135db5782518255916020019190600101906135c0565b5b5090506135e991906135ed565b5090565b61360f91905b8082111561360b5760008160009055506001016135f3565b5090565b905600a165627a7a723058207e78c9d3577b53fca09d98e91ebc78a671e34b7d990f47b3cd298d32e2d0adc60029",
  "source": "pragma solidity ^0.4.24;\n\nimport \"@aragon/os/contracts/apps/AragonApp.sol\";\nimport \"@aragon/apps-token-manager/contracts/TokenManager.sol\";\n\ncontract AirdropDuo is AragonApp {\n\n    struct Airdrop {\n      bytes32 root;\n      string dataURI;\n      mapping(address => bool) awarded;\n    }\n\n    /// Events\n    event Start(uint id);\n    event Award(uint id, address recipient, uint amount0, uint amount1);\n\n    /// State\n    mapping(uint => Airdrop) public airdrops;\n    TokenManager public tokenManager0;\n    TokenManager public tokenManager1;\n    uint public airdropsCount;\n\n    /// ACL\n    bytes32 constant public START_ROLE = keccak256(\"START_ROLE\");\n\n    // Errors\n    string private constant ERROR_AWARDED = \"AWARDED\";\n    string private constant ERROR_INVALID = \"INVALID\";\n\n    function initialize(address _tokenManager0, address _tokenManager1) onlyInit public {\n        initialized();\n\n        tokenManager0 = TokenManager(_tokenManager0);\n        tokenManager1 = TokenManager(_tokenManager1);\n    }\n\n    /**\n     * @notice Start a new airdrop `_root` / `_dataURI`\n     * @param _root New airdrop merkle root\n     * @param _dataURI Data URI for airdrop data\n     */\n    function start(bytes32 _root, string _dataURI) auth(START_ROLE) public {\n        _start(_root, _dataURI);\n    }\n\n    function _start(bytes32 _root, string _dataURI) internal returns(uint id){\n        id = ++airdropsCount;    // start at 1\n        airdrops[id] = Airdrop(_root, _dataURI);\n        emit Start(id);\n    }\n\n    /**\n     * @notice Award from airdrop\n     * @param _id Airdrop id\n     * @param _recipient Recepient of award\n     * @param _amount0 The token0 amount\n     * @param _amount1 The token1 amount\n     * @param _proof Merkle proof to correspond to data supplied\n     */\n    function award(uint _id, address _recipient, uint256 _amount0, uint256 _amount1, bytes32[] _proof) public {\n        Airdrop storage airdrop = airdrops[_id];\n\n        bytes32 hash = keccak256(abi.encodePacked(_recipient, _amount0, _amount1));\n        require( validate(airdrop.root, _proof, hash), ERROR_INVALID );\n\n        require( !airdrops[_id].awarded[_recipient], ERROR_AWARDED );\n\n        airdrops[_id].awarded[_recipient] = true;\n\n        tokenManager0.mint(_recipient, _amount0);\n        tokenManager1.mint(_recipient, _amount1);\n\n        emit Award(_id, _recipient, _amount0, _amount1);\n    }\n\n    /**\n     * @notice Award from airdrop\n     * @param _ids Airdrop ids\n     * @param _recipient Recepient of award\n     * @param _amount0s The token0 amounts\n     * @param _amount1s The token1 amounts\n     * @param _proofs Merkle proofs\n     * @param _proofLengths Merkle proof lengths\n     */\n    function awardFromMany(uint[] _ids, address _recipient, uint[] _amount0s, uint[] _amount1s, bytes _proofs, uint[] _proofLengths) public {\n\n        uint totalAmount0;\n        uint totalAmount1;\n\n        uint marker = 32;\n\n        for (uint i = 0; i < _ids.length; i++) {\n            uint id = _ids[i];\n\n            bytes32[] memory proof = extractProof(_proofs, marker, _proofLengths[i]);\n            marker += _proofLengths[i]*32;\n\n            bytes32 hash = keccak256(abi.encodePacked(_recipient, _amount0s[i], _amount1s[i]));\n            require( validate(airdrops[id].root, proof, hash), ERROR_INVALID );\n\n            require( !airdrops[id].awarded[_recipient], ERROR_AWARDED );\n\n            airdrops[id].awarded[_recipient] = true;\n\n            totalAmount0 += _amount0s[i];\n            totalAmount1 += _amount1s[i];\n\n            emit Award(id, _recipient, _amount0s[i], _amount1s[i]);\n        }\n\n        tokenManager0.mint(_recipient, totalAmount0);\n        tokenManager1.mint(_recipient, totalAmount1);\n\n    }\n\n    /**\n     * @notice Award from airdrop\n     * @param _id Airdrop ids\n     * @param _recipients Recepients of award\n     * @param _amount0s The karma amount\n     * @param _amount1s The currency amount\n     * @param _proofs Merkle proofs\n     * @param _proofLengths Merkle proof lengths\n     */\n    function awardToMany(uint _id, address[] _recipients, uint[] _amount0s, uint[] _amount1s, bytes _proofs, uint[] _proofLengths) public {\n\n        uint marker = 32;\n\n        for (uint i = 0; i < _recipients.length; i++) {\n            address recipient = _recipients[i];\n\n            if( airdrops[_id].awarded[recipient] )\n                continue;\n\n            airdrops[_id].awarded[recipient] = true;\n\n            bytes32[] memory proof = extractProof(_proofs, marker, _proofLengths[i]);\n            marker += _proofLengths[i]*32;\n\n            bytes32 hash = keccak256(abi.encodePacked(recipient, _amount0s[i], _amount1s[i]));\n            if( !validate(airdrops[_id].root, proof, hash) )\n                continue;\n\n            tokenManager0.mint(recipient, _amount0s[i]);\n            tokenManager1.mint(recipient, _amount1s[i]);\n\n            emit Award(_id, recipient, _amount0s[i], _amount1s[i]);\n        }\n\n    }\n\n    function extractProof(bytes _proofs, uint _marker, uint proofLength) public pure returns (bytes32[] proof) {\n\n        proof = new bytes32[](proofLength);\n\n        bytes32 el;\n\n        for (uint j = 0; j < proofLength; j++) {\n            assembly {\n                el := mload(add(_proofs, _marker))\n            }\n            proof[j] = el;\n            _marker += 32;\n        }\n\n    }\n\n    function validate(bytes32 root, bytes32[] proof, bytes32 hash) public pure returns (bool) {\n\n        for (uint i = 0; i < proof.length; i++) {\n            if (hash < proof[i]) {\n                hash = keccak256(abi.encodePacked(hash, proof[i]));\n            } else {\n                hash = keccak256(abi.encodePacked(proof[i], hash));\n            }\n        }\n\n        return hash == root;\n    }\n\n    /**\n     * @notice Check if address:`_recipient` awarded in airdrop:`_id`\n     * @param _id Airdrop id\n     * @param _recipient Recipient to check\n     */\n    function awarded(uint _id, address _recipient) public view returns(bool) {\n        return airdrops[_id].awarded[_recipient];\n    }\n}\n",
  "sourcePath": "@daonuts/airdrop-duo-app/contracts/AirdropDuo.sol",
  "compiler": {
    "name": "solc",
    "version": "0.4.24+commit.e67f0147.Emscripten.clang"
  },
  "schemaVersion": "2.0.1",
  "updatedAt": "2019-10-25T13:11:26.198Z"
}