{
  "contractName": "CallsScript",
  "abi": [
    {
      "constant": true,
      "inputs": [],
      "name": "hasInitialized",
      "outputs": [
        {
          "name": "",
          "type": "bool"
        }
      ],
      "payable": false,
      "stateMutability": "view",
      "type": "function"
    },
    {
      "constant": true,
      "inputs": [],
      "name": "getInitializationBlock",
      "outputs": [
        {
          "name": "",
          "type": "uint256"
        }
      ],
      "payable": false,
      "stateMutability": "view",
      "type": "function"
    },
    {
      "constant": true,
      "inputs": [],
      "name": "isPetrified",
      "outputs": [
        {
          "name": "",
          "type": "bool"
        }
      ],
      "payable": false,
      "stateMutability": "view",
      "type": "function"
    },
    {
      "anonymous": false,
      "inputs": [
        {
          "indexed": true,
          "name": "sender",
          "type": "address"
        },
        {
          "indexed": true,
          "name": "src",
          "type": "address"
        },
        {
          "indexed": true,
          "name": "dst",
          "type": "address"
        }
      ],
      "name": "LogScriptCall",
      "type": "event"
    },
    {
      "constant": false,
      "inputs": [
        {
          "name": "_script",
          "type": "bytes"
        },
        {
          "name": "",
          "type": "bytes"
        },
        {
          "name": "_blacklist",
          "type": "address[]"
        }
      ],
      "name": "execScript",
      "outputs": [
        {
          "name": "",
          "type": "bytes"
        }
      ],
      "payable": false,
      "stateMutability": "nonpayable",
      "type": "function"
    },
    {
      "constant": true,
      "inputs": [],
      "name": "executorType",
      "outputs": [
        {
          "name": "",
          "type": "bytes32"
        }
      ],
      "payable": false,
      "stateMutability": "pure",
      "type": "function"
    }
  ],
  "bytecode": "0x608060405261001b610020640100000000026401000000009004565b6102f2565b6000610039610153640100000000026401000000009004565b146040805190810160405280601881526020017f494e49545f414c52454144595f494e495449414c495a45440000000000000000815250901515610118576040517f08c379a00000000000000000000000000000000000000000000000000000000081526004018080602001828103825283818151815260200191508051906020019080838360005b838110156100dd5780820151818401526020810190506100c2565b50505050905090810190601f16801561010a5780820380516001836020036101000a031916815260200191505b509250505060405180910390fd5b506101517fffffffffffffffffffffffffffffffffffffffffffffffffffffffffffffffff61019d640100000000026401000000009004565b565b60006101987febb05b386a8d34882b8711d156f463690983dc47815980fb82aeeff1aa43579e600102600019166102e0640100000000026109b8176401000000009004565b905090565b60006101b6610153640100000000026401000000009004565b146040805190810160405280601881526020017f494e49545f414c52454144595f494e495449414c495a45440000000000000000815250901515610295576040517f08c379a00000000000000000000000000000000000000000000000000000000081526004018080602001828103825283818151815260200191508051906020019080838360005b8381101561025a57808201518184015260208101905061023f565b50505050905090810190601f1680156102875780820380516001836020036101000a031916815260200191505b509250505060405180910390fd5b506102dd817febb05b386a8d34882b8711d156f463690983dc47815980fb82aeeff1aa43579e600102600019166102eb640100000000026109d4179091906401000000009004565b50565b600081549050919050565b8082555050565b610a07806103016000396000f30060806040526004361061006d576000357c0100000000000000000000000000000000000000000000000000000000900463ffffffff1680630803fac014610072578063279cea35146100a15780638333d9b2146101855780638b3dd749146101b8578063de4796ed146101e3575b600080fd5b34801561007e57600080fd5b50610087610212565b604051808215151515815260200191505060405180910390f35b3480156100ad57600080fd5b5061010a60048036038101908080359060200190820180359060200191909192939192939080359060200190820180359060200191909192939192939080359060200190820180359060200191909192939192939050505061023d565b6040518080602001828103825283818151815260200191508051906020019080838360005b8381101561014a57808201518184015260208101905061012f565b50505050905090810190601f1680156101775780820380516001836020036101000a031916815260200191505b509250505060405180910390f35b34801561019157600080fd5b5061019a610869565b60405180826000191660001916815260200191505060405180910390f35b3480156101c457600080fd5b506101cd610894565b6040518082815260200191505060405180910390f35b3480156101ef57600080fd5b506101f86108cb565b604051808215151515815260200191505060405180910390f35b60008061021d610894565b9050600081141580156102375750806102346108fc565b10155b91505090565b60606000806000806000806000610252610212565b6040805190810160405280601481526020017f494e49545f4e4f545f494e495449414c495a4544000000000000000000000000815250901515610330576040517f08c379a00000000000000000000000000000000000000000000000000000000081526004018080602001828103825283818151815260200191508051906020019080838360005b838110156102f55780820151818401526020810190506102da565b50505050905090810190601f1680156103225780820380516001836020036101000a031916815260200191505b509250505060405180910390fd5b50600496505b8d8d9050871015610858576018878f8f90500310156040805190810160405280601781526020017f45564d43414c4c535f494e56414c49445f4c454e475448000000000000000000815250901515610429576040517f08c379a00000000000000000000000000000000000000000000000000000000081526004018080602001828103825283818151815260200191508051906020019080838360005b838110156103ee5780820151818401526020810190506103d3565b50505050905090810190601f16801561041b5780820380516001836020036101000a031916815260200191505b509250505060405180910390fd5b5061046f878f8f8080601f01602080910402602001604051908101604052809392919081815260200183838082843782019150505050505061090490919063ffffffff16565b9550600094505b898990508510156105c757898986818110151561048f57fe5b9050602002013573ffffffffffffffffffffffffffffffffffffffff1673ffffffffffffffffffffffffffffffffffffffff168673ffffffffffffffffffffffffffffffffffffffff1614156040805190810160405280601981526020017f45564d43414c4c535f424c41434b4c49535445445f43414c4c000000000000008152509015156105b9576040517f08c379a00000000000000000000000000000000000000000000000000000000081526004018080602001828103825283818151815260200191508051906020019080838360005b8381101561057e578082015181840152602081019050610563565b50505050905090810190601f1680156105ab5780820380516001836020036101000a031916815260200191505b509250505060405180910390fd5b508480600101955050610476565b8573ffffffffffffffffffffffffffffffffffffffff163073ffffffffffffffffffffffffffffffffffffffff163373ffffffffffffffffffffffffffffffffffffffff167f9dcff9d94fbfdb4622d11edb383005f95e78efb446c72d92f8e615c6025c470360405160405180910390a4610680601488018f8f8080601f01602080910402602001604051908101604052809392919081815260200183838082843782019150505050505061094e90919063ffffffff16565b63ffffffff1693506004601488010192506106d6838f8f8080601f0160208091040260200160405190810160405280939291908181526020018383808284378201915050505050506109a890919063ffffffff16565b915083830196508d8d90508711156040805190810160405280601781526020017f45564d43414c4c535f494e56414c49445f4c454e4754480000000000000000008152509015156107c2576040517f08c379a00000000000000000000000000000000000000000000000000000000081526004018080602001828103825283818151815260200191508051906020019080838360005b8381101561078757808201518184015260208101905061076c565b50505050905090810190601f1680156107b45780820380516001836020036101000a031916815260200191505b509250505060405180910390fd5b50600080858460008a6113885a03f1905080600081146107e157610852565b6040513d600081146107f6573d6000833e3d82fd5b7f08c379a000000000000000000000000000000000000000000000000000000000825260206004830152601660248301527f45564d43414c4c535f43414c4c5f5245564552544544000000000000000000006044830152606482fd5b50610336565b505050505050509695505050505050565b60007f2dc858a00f3e417be1394b87c07158e989ec681ce8cc68a9093680ac1a870302600102905090565b60006108c67febb05b386a8d34882b8711d156f463690983dc47815980fb82aeeff1aa43579e600102600019166109b8565b905090565b60007fffffffffffffffffffffffffffffffffffffffffffffffffffffffffffffffff6108f6610894565b14905090565b600043905090565b60008061091184846109c3565b90506c010000000000000000000000007fffffffffffffffffffffffffffffffffffffffff00000000000000000000000082160491505092915050565b60008061095b84846109c3565b90507c01000000000000000000000000000000000000000000000000000000007fffffffff0000000000000000000000000000000000000000000000000000000082160491505092915050565b6000816020018301905092915050565b600081549050919050565b600081602001830151905092915050565b80825550505600a165627a7a7230582060b45fbac781929c34d9ee002ea468b542729135959cae386661aa1cda0ae4680029",
  "source": "pragma solidity 0.4.24;\n\n// Inspired by https://github.com/reverendus/tx-manager\n\nimport \"../ScriptHelpers.sol\";\nimport \"./BaseEVMScriptExecutor.sol\";\n\n\ncontract CallsScript is BaseEVMScriptExecutor {\n    using ScriptHelpers for bytes;\n\n    /* Hardcoded constants to save gas\n    bytes32 internal constant EXECUTOR_TYPE = keccak256(\"CALLS_SCRIPT\");\n    */\n    bytes32 internal constant EXECUTOR_TYPE = 0x2dc858a00f3e417be1394b87c07158e989ec681ce8cc68a9093680ac1a870302;\n\n    string private constant ERROR_BLACKLISTED_CALL = \"EVMCALLS_BLACKLISTED_CALL\";\n    string private constant ERROR_INVALID_LENGTH = \"EVMCALLS_INVALID_LENGTH\";\n\n    /* This is manually crafted in assembly\n    string private constant ERROR_CALL_REVERTED = \"EVMCALLS_CALL_REVERTED\";\n    */\n\n    event LogScriptCall(address indexed sender, address indexed src, address indexed dst);\n\n    /**\n    * @notice Executes a number of call scripts\n    * @param _script [ specId (uint32) ] many calls with this structure ->\n    *    [ to (address: 20 bytes) ] [ calldataLength (uint32: 4 bytes) ] [ calldata (calldataLength bytes) ]\n    * @param _blacklist Addresses the script cannot call to, or will revert.\n    * @return Always returns empty byte array\n    */\n    function execScript(bytes _script, bytes, address[] _blacklist) external isInitialized returns (bytes) {\n        uint256 location = SCRIPT_START_LOCATION; // first 32 bits are spec id\n        while (location < _script.length) {\n            // Check there's at least address + calldataLength available\n            require(_script.length - location >= 0x18, ERROR_INVALID_LENGTH);\n\n            address contractAddress = _script.addressAt(location);\n            // Check address being called is not blacklist\n            for (uint256 i = 0; i < _blacklist.length; i++) {\n                require(contractAddress != _blacklist[i], ERROR_BLACKLISTED_CALL);\n            }\n\n            // logged before execution to ensure event ordering in receipt\n            // if failed entire execution is reverted regardless\n            emit LogScriptCall(msg.sender, address(this), contractAddress);\n\n            uint256 calldataLength = uint256(_script.uint32At(location + 0x14));\n            uint256 startOffset = location + 0x14 + 0x04;\n            uint256 calldataStart = _script.locationOf(startOffset);\n\n            // compute end of script / next location\n            location = startOffset + calldataLength;\n            require(location <= _script.length, ERROR_INVALID_LENGTH);\n\n            bool success;\n            assembly {\n                success := call(\n                    sub(gas, 5000),       // forward gas left - 5000\n                    contractAddress,      // address\n                    0,                    // no value\n                    calldataStart,        // calldata start\n                    calldataLength,       // calldata length\n                    0,                    // don't write output\n                    0                     // don't write output\n                )\n\n                switch success\n                case 0 {\n                    let ptr := mload(0x40)\n\n                    switch returndatasize\n                    case 0 {\n                        // No error data was returned, revert with \"EVMCALLS_CALL_REVERTED\"\n                        // See remix: doing a `revert(\"EVMCALLS_CALL_REVERTED\")` always results in\n                        // this memory layout\n                        mstore(ptr, 0x08c379a000000000000000000000000000000000000000000000000000000000)         // error identifier\n                        mstore(add(ptr, 0x04), 0x0000000000000000000000000000000000000000000000000000000000000020) // starting offset\n                        mstore(add(ptr, 0x24), 0x0000000000000000000000000000000000000000000000000000000000000016) // reason length\n                        mstore(add(ptr, 0x44), 0x45564d43414c4c535f43414c4c5f524556455254454400000000000000000000) // reason\n\n                        revert(ptr, 100) // 100 = 4 + 3 * 32 (error identifier + 3 words for the ABI encoded error)\n                    }\n                    default {\n                        // Forward the full error data\n                        returndatacopy(ptr, 0, returndatasize)\n                        revert(ptr, returndatasize)\n                    }\n                }\n                default { }\n            }\n        }\n        // No need to allocate empty bytes for the return as this can only be called via an delegatecall\n        // (due to the isInitialized modifier)\n    }\n\n    function executorType() external pure returns (bytes32) {\n        return EXECUTOR_TYPE;\n    }\n}\n",
  "sourcePath": "@aragon/os/contracts/evmscript/executors/CallsScript.sol",
  "compiler": {
    "name": "solc",
    "version": "0.4.24+commit.e67f0147.Emscripten.clang"
  },
  "schemaVersion": "2.0.1",
  "updatedAt": "2019-10-17T19:35:34.562Z"
}