{
  "contractName": "Challenge",
  "abi": [
    {
      "constant": true,
      "inputs": [
        {
          "name": "",
          "type": "uint256"
        }
      ],
      "name": "proposals",
      "outputs": [
        {
          "name": "end",
          "type": "uint64"
        },
        {
          "name": "proposer",
          "type": "address"
        },
        {
          "name": "challenger",
          "type": "address"
        },
        {
          "name": "stake",
          "type": "uint256"
        },
        {
          "name": "reward",
          "type": "uint256"
        },
        {
          "name": "script",
          "type": "bytes"
        }
      ],
      "payable": false,
      "stateMutability": "view",
      "type": "function"
    },
    {
      "constant": true,
      "inputs": [],
      "name": "hasInitialized",
      "outputs": [
        {
          "name": "",
          "type": "bool"
        }
      ],
      "payable": false,
      "stateMutability": "view",
      "type": "function"
    },
    {
      "constant": true,
      "inputs": [],
      "name": "proposalsCount",
      "outputs": [
        {
          "name": "",
          "type": "uint256"
        }
      ],
      "payable": false,
      "stateMutability": "view",
      "type": "function"
    },
    {
      "constant": true,
      "inputs": [],
      "name": "lastProposalDate",
      "outputs": [
        {
          "name": "",
          "type": "uint64"
        }
      ],
      "payable": false,
      "stateMutability": "view",
      "type": "function"
    },
    {
      "constant": true,
      "inputs": [],
      "name": "challengeFee",
      "outputs": [
        {
          "name": "",
          "type": "uint256"
        }
      ],
      "payable": false,
      "stateMutability": "view",
      "type": "function"
    },
    {
      "constant": true,
      "inputs": [
        {
          "name": "_script",
          "type": "bytes"
        }
      ],
      "name": "getEVMScriptExecutor",
      "outputs": [
        {
          "name": "",
          "type": "address"
        }
      ],
      "payable": false,
      "stateMutability": "view",
      "type": "function"
    },
    {
      "constant": true,
      "inputs": [],
      "name": "tokenManager",
      "outputs": [
        {
          "name": "",
          "type": "address"
        }
      ],
      "payable": false,
      "stateMutability": "view",
      "type": "function"
    },
    {
      "constant": true,
      "inputs": [],
      "name": "getRecoveryVault",
      "outputs": [
        {
          "name": "",
          "type": "address"
        }
      ],
      "payable": false,
      "stateMutability": "view",
      "type": "function"
    },
    {
      "constant": true,
      "inputs": [],
      "name": "MODIFY_PARAMETER_ROLE",
      "outputs": [
        {
          "name": "",
          "type": "bytes32"
        }
      ],
      "payable": false,
      "stateMutability": "view",
      "type": "function"
    },
    {
      "constant": true,
      "inputs": [],
      "name": "proposalStake",
      "outputs": [
        {
          "name": "",
          "type": "uint256"
        }
      ],
      "payable": false,
      "stateMutability": "view",
      "type": "function"
    },
    {
      "constant": true,
      "inputs": [
        {
          "name": "token",
          "type": "address"
        }
      ],
      "name": "allowRecoverability",
      "outputs": [
        {
          "name": "",
          "type": "bool"
        }
      ],
      "payable": false,
      "stateMutability": "view",
      "type": "function"
    },
    {
      "constant": true,
      "inputs": [],
      "name": "appId",
      "outputs": [
        {
          "name": "",
          "type": "bytes32"
        }
      ],
      "payable": false,
      "stateMutability": "view",
      "type": "function"
    },
    {
      "constant": true,
      "inputs": [],
      "name": "getInitializationBlock",
      "outputs": [
        {
          "name": "",
          "type": "uint256"
        }
      ],
      "payable": false,
      "stateMutability": "view",
      "type": "function"
    },
    {
      "constant": true,
      "inputs": [],
      "name": "CHALLENGE_ROLE",
      "outputs": [
        {
          "name": "",
          "type": "bytes32"
        }
      ],
      "payable": false,
      "stateMutability": "view",
      "type": "function"
    },
    {
      "constant": true,
      "inputs": [],
      "name": "SUPPORT_ROLE",
      "outputs": [
        {
          "name": "",
          "type": "bytes32"
        }
      ],
      "payable": false,
      "stateMutability": "view",
      "type": "function"
    },
    {
      "constant": false,
      "inputs": [
        {
          "name": "_token",
          "type": "address"
        }
      ],
      "name": "transferToVault",
      "outputs": [],
      "payable": false,
      "stateMutability": "nonpayable",
      "type": "function"
    },
    {
      "constant": true,
      "inputs": [
        {
          "name": "_sender",
          "type": "address"
        },
        {
          "name": "_role",
          "type": "bytes32"
        },
        {
          "name": "_params",
          "type": "uint256[]"
        }
      ],
      "name": "canPerform",
      "outputs": [
        {
          "name": "",
          "type": "bool"
        }
      ],
      "payable": false,
      "stateMutability": "view",
      "type": "function"
    },
    {
      "constant": true,
      "inputs": [],
      "name": "challengeTime",
      "outputs": [
        {
          "name": "",
          "type": "uint64"
        }
      ],
      "payable": false,
      "stateMutability": "view",
      "type": "function"
    },
    {
      "constant": true,
      "inputs": [],
      "name": "getEVMScriptRegistry",
      "outputs": [
        {
          "name": "",
          "type": "address"
        }
      ],
      "payable": false,
      "stateMutability": "view",
      "type": "function"
    },
    {
      "constant": true,
      "inputs": [],
      "name": "proposalDelay",
      "outputs": [
        {
          "name": "",
          "type": "uint64"
        }
      ],
      "payable": false,
      "stateMutability": "view",
      "type": "function"
    },
    {
      "constant": true,
      "inputs": [],
      "name": "proposalReward",
      "outputs": [
        {
          "name": "",
          "type": "uint256"
        }
      ],
      "payable": false,
      "stateMutability": "view",
      "type": "function"
    },
    {
      "constant": true,
      "inputs": [],
      "name": "kernel",
      "outputs": [
        {
          "name": "",
          "type": "address"
        }
      ],
      "payable": false,
      "stateMutability": "view",
      "type": "function"
    },
    {
      "constant": true,
      "inputs": [],
      "name": "PROPOSE_ROLE",
      "outputs": [
        {
          "name": "",
          "type": "bytes32"
        }
      ],
      "payable": false,
      "stateMutability": "view",
      "type": "function"
    },
    {
      "constant": true,
      "inputs": [],
      "name": "isPetrified",
      "outputs": [
        {
          "name": "",
          "type": "bool"
        }
      ],
      "payable": false,
      "stateMutability": "view",
      "type": "function"
    },
    {
      "constant": true,
      "inputs": [],
      "name": "supportTime",
      "outputs": [
        {
          "name": "",
          "type": "uint64"
        }
      ],
      "payable": false,
      "stateMutability": "view",
      "type": "function"
    },
    {
      "anonymous": false,
      "inputs": [
        {
          "indexed": false,
          "name": "id",
          "type": "uint256"
        }
      ],
      "name": "Propose",
      "type": "event"
    },
    {
      "anonymous": false,
      "inputs": [
        {
          "indexed": false,
          "name": "id",
          "type": "uint256"
        }
      ],
      "name": "Challenge",
      "type": "event"
    },
    {
      "anonymous": false,
      "inputs": [
        {
          "indexed": false,
          "name": "id",
          "type": "uint256"
        }
      ],
      "name": "Support",
      "type": "event"
    },
    {
      "anonymous": false,
      "inputs": [
        {
          "indexed": false,
          "name": "id",
          "type": "uint256"
        },
        {
          "indexed": false,
          "name": "success",
          "type": "bool"
        }
      ],
      "name": "End",
      "type": "event"
    },
    {
      "anonymous": false,
      "inputs": [
        {
          "indexed": true,
          "name": "executor",
          "type": "address"
        },
        {
          "indexed": false,
          "name": "script",
          "type": "bytes"
        },
        {
          "indexed": false,
          "name": "input",
          "type": "bytes"
        },
        {
          "indexed": false,
          "name": "returnData",
          "type": "bytes"
        }
      ],
      "name": "ScriptResult",
      "type": "event"
    },
    {
      "anonymous": false,
      "inputs": [
        {
          "indexed": true,
          "name": "vault",
          "type": "address"
        },
        {
          "indexed": true,
          "name": "token",
          "type": "address"
        },
        {
          "indexed": false,
          "name": "amount",
          "type": "uint256"
        }
      ],
      "name": "RecoverToVault",
      "type": "event"
    },
    {
      "constant": false,
      "inputs": [
        {
          "name": "_tokenManager",
          "type": "address"
        },
        {
          "name": "_proposalStake",
          "type": "uint256"
        },
        {
          "name": "_proposalReward",
          "type": "uint256"
        },
        {
          "name": "_challengeFee",
          "type": "uint256"
        },
        {
          "name": "_challengeTime",
          "type": "uint64"
        },
        {
          "name": "_supportTime",
          "type": "uint64"
        },
        {
          "name": "_proposalDelay",
          "type": "uint64"
        }
      ],
      "name": "initialize",
      "outputs": [],
      "payable": false,
      "stateMutability": "nonpayable",
      "type": "function"
    },
    {
      "constant": false,
      "inputs": [
        {
          "name": "_id",
          "type": "uint256"
        }
      ],
      "name": "challenge",
      "outputs": [],
      "payable": false,
      "stateMutability": "nonpayable",
      "type": "function"
    },
    {
      "constant": false,
      "inputs": [
        {
          "name": "_id",
          "type": "uint256"
        }
      ],
      "name": "support",
      "outputs": [],
      "payable": false,
      "stateMutability": "nonpayable",
      "type": "function"
    },
    {
      "constant": false,
      "inputs": [
        {
          "name": "_id",
          "type": "uint256"
        }
      ],
      "name": "end",
      "outputs": [],
      "payable": false,
      "stateMutability": "nonpayable",
      "type": "function"
    },
    {
      "constant": true,
      "inputs": [
        {
          "name": "_id",
          "type": "uint256"
        }
      ],
      "name": "statusOf",
      "outputs": [
        {
          "name": "",
          "type": "uint8"
        }
      ],
      "payable": false,
      "stateMutability": "view",
      "type": "function"
    },
    {
      "constant": false,
      "inputs": [
        {
          "name": "_id",
          "type": "uint256"
        },
        {
          "name": "_value",
          "type": "uint256"
        }
      ],
      "name": "changeParameter",
      "outputs": [],
      "payable": false,
      "stateMutability": "nonpayable",
      "type": "function"
    },
    {
      "constant": false,
      "inputs": [
        {
          "name": "_evmScript",
          "type": "bytes"
        }
      ],
      "name": "forward",
      "outputs": [],
      "payable": false,
      "stateMutability": "nonpayable",
      "type": "function"
    },
    {
      "constant": true,
      "inputs": [
        {
          "name": "_sender",
          "type": "address"
        },
        {
          "name": "",
          "type": "bytes"
        }
      ],
      "name": "canForward",
      "outputs": [
        {
          "name": "",
          "type": "bool"
        }
      ],
      "payable": false,
      "stateMutability": "view",
      "type": "function"
    },
    {
      "constant": true,
      "inputs": [],
      "name": "isForwarder",
      "outputs": [
        {
          "name": "",
          "type": "bool"
        }
      ],
      "payable": false,
      "stateMutability": "pure",
      "type": "function"
    }
  ],
  "bytecode": "0x60806040526200001d62000023640100000000026401000000009004565b62000309565b60006200003e6200015e640100000000026401000000009004565b146040805190810160405280601881526020017f494e49545f414c52454144595f494e495449414c495a4544000000000000000081525090151562000121576040517f08c379a00000000000000000000000000000000000000000000000000000000081526004018080602001828103825283818151815260200191508051906020019080838360005b83811015620000e5578082015181840152602081019050620000c8565b50505050905090810190601f168015620001135780820380516001836020036101000a031916815260200191505b509250505060405180910390fd5b506200015c7fffffffffffffffffffffffffffffffffffffffffffffffffffffffffffffffff620001ab640100000000026401000000009004565b565b6000620001a67febb05b386a8d34882b8711d156f463690983dc47815980fb82aeeff1aa43579e60010260001916620002f76401000000000262002e2f176401000000009004565b905090565b6000620001c66200015e640100000000026401000000009004565b146040805190810160405280601881526020017f494e49545f414c52454144595f494e495449414c495a45440000000000000000815250901515620002a9576040517f08c379a00000000000000000000000000000000000000000000000000000000081526004018080602001828103825283818151815260200191508051906020019080838360005b838110156200026d57808201518184015260208101905062000250565b50505050905090810190601f1680156200029b5780820380516001836020036101000a031916815260200191505b509250505060405180910390fd5b50620002f4817febb05b386a8d34882b8711d156f463690983dc47815980fb82aeeff1aa43579e60010260001916620003026401000000000262003fe0179091906401000000009004565b50565b600081549050919050565b8082555050565b61410080620003196000396000f3006080604052600436106101ac576000357c0100000000000000000000000000000000000000000000000000000000900463ffffffff168063013cf08b146101b15780630803fac0146102e65780630a9f46ad146103155780630ad2452814610340578063182ed04b1461036d5780631bd8f9ca146103ac5780632914b9bd146103d75780632a709b141461048057806332f0a3b5146104d7578063513638db1461052e57806356c9493f146105615780636ef6c66d1461058e5780637e7db6e1146105b957806380afdea8146106145780638b3dd749146106475780638f911dca1461067257806394b059ab146106a55780639d4941d8146106d8578063a1658fad1461071b578063a4727272146107c7578063a479e50814610806578063a73dbc4e1461085d578063a78b17cc146108fa578063ab82d9a014610939578063ad35efd414610966578063b7112d15146109b5578063c0774df3146109e0578063d4aae0c414610a81578063d8e27bd014610ad8578063d948d46814610b0b578063de4796ed14610b74578063e4552c7e14610ba3578063f07237e014610be2578063fd64eccb14610c19575b600080fd5b3480156101bd57600080fd5b506101dc60048036038101908080359060200190929190505050610c48565b604051808767ffffffffffffffff1667ffffffffffffffff1681526020018673ffffffffffffffffffffffffffffffffffffffff1673ffffffffffffffffffffffffffffffffffffffff1681526020018573ffffffffffffffffffffffffffffffffffffffff1673ffffffffffffffffffffffffffffffffffffffff16815260200184815260200183815260200180602001828103825283818151815260200191508051906020019080838360005b838110156102a657808201518184015260208101905061028b565b50505050905090810190601f1680156102d35780820380516001836020036101000a031916815260200191505b5097505050505050505060405180910390f35b3480156102f257600080fd5b506102fb610d70565b604051808215151515815260200191505060405180910390f35b34801561032157600080fd5b5061032a610d9b565b6040518082815260200191505060405180910390f35b34801561034c57600080fd5b5061036b60048036038101908080359060200190929190505050610da1565b005b34801561037957600080fd5b50610382611251565b604051808267ffffffffffffffff1667ffffffffffffffff16815260200191505060405180910390f35b3480156103b857600080fd5b506103c161126b565b6040518082815260200191505060405180910390f35b3480156103e357600080fd5b5061043e600480360381019080803590602001908201803590602001908080601f0160208091040260200160405190810160405280939291908181526020018383808284378201915050505050509192919290505050611271565b604051808273ffffffffffffffffffffffffffffffffffffffff1673ffffffffffffffffffffffffffffffffffffffff16815260200191505060405180910390f35b34801561048c57600080fd5b50610495611390565b604051808273ffffffffffffffffffffffffffffffffffffffff1673ffffffffffffffffffffffffffffffffffffffff16815260200191505060405180910390f35b3480156104e357600080fd5b506104ec6113b6565b604051808273ffffffffffffffffffffffffffffffffffffffff1673ffffffffffffffffffffffffffffffffffffffff16815260200191505060405180910390f35b34801561053a57600080fd5b50610543611463565b60405180826000191660001916815260200191505060405180910390f35b34801561056d57600080fd5b5061058c6004803603810190808035906020019092919050505061149c565b005b34801561059a57600080fd5b506105a3611691565b6040518082815260200191505060405180910390f35b3480156105c557600080fd5b506105fa600480360381019080803573ffffffffffffffffffffffffffffffffffffffff169060200190929190505050611697565b604051808215151515815260200191505060405180910390f35b34801561062057600080fd5b506106296116a2565b60405180826000191660001916815260200191505060405180910390f35b34801561065357600080fd5b5061065c6116d9565b6040518082815260200191505060405180910390f35b34801561067e57600080fd5b50610687611710565b60405180826000191660001916815260200191505060405180910390f35b3480156106b157600080fd5b506106ba611749565b60405180826000191660001916815260200191505060405180910390f35b3480156106e457600080fd5b50610719600480360381019080803573ffffffffffffffffffffffffffffffffffffffff169060200190929190505050611782565b005b34801561072757600080fd5b506107ad600480360381019080803573ffffffffffffffffffffffffffffffffffffffff169060200190929190803560001916906020019092919080359060200190820180359060200190808060200260200160405190810160405280939291908181526020018383602002808284378201915050505050509192919290505050611ba0565b604051808215151515815260200191505060405180910390f35b3480156107d357600080fd5b506107dc611d9c565b604051808267ffffffffffffffff1667ffffffffffffffff16815260200191505060405180910390f35b34801561081257600080fd5b5061081b611db6565b604051808273ffffffffffffffffffffffffffffffffffffffff1673ffffffffffffffffffffffffffffffffffffffff16815260200191505060405180910390f35b34801561086957600080fd5b506108f8600480360381019080803573ffffffffffffffffffffffffffffffffffffffff169060200190929190803590602001909291908035906020019092919080359060200190929190803567ffffffffffffffff169060200190929190803567ffffffffffffffff169060200190929190803567ffffffffffffffff169060200190929190505050611ed1565b005b34801561090657600080fd5b5061090f61209d565b604051808267ffffffffffffffff1667ffffffffffffffff16815260200191505060405180910390f35b34801561094557600080fd5b50610964600480360381019080803590602001909291905050506120b7565b005b34801561097257600080fd5b506109916004803603810190808035906020019092919050505061260f565b604051808260068111156109a157fe5b60ff16815260200191505060405180910390f35b3480156109c157600080fd5b506109ca612761565b6040518082815260200191505060405180910390f35b3480156109ec57600080fd5b50610a67600480360381019080803573ffffffffffffffffffffffffffffffffffffffff169060200190929190803590602001908201803590602001908080601f0160208091040260200160405190810160405280939291908181526020018383808284378201915050505050509192919290505050612767565b604051808215151515815260200191505060405180910390f35b348015610a8d57600080fd5b50610a966127e1565b604051808273ffffffffffffffffffffffffffffffffffffffff1673ffffffffffffffffffffffffffffffffffffffff16815260200191505060405180910390f35b348015610ae457600080fd5b50610aed612818565b60405180826000191660001916815260200191505060405180910390f35b348015610b1757600080fd5b50610b72600480360381019080803590602001908201803590602001908080601f0160208091040260200160405190810160405280939291908181526020018383808284378201915050505050509192919290505050612851565b005b348015610b8057600080fd5b50610b89612958565b604051808215151515815260200191505060405180910390f35b348015610baf57600080fd5b50610bb8612989565b604051808267ffffffffffffffff1667ffffffffffffffff16815260200191505060405180910390f35b348015610bee57600080fd5b50610c1760048036038101908080359060200190929190803590602001909291905050506129a3565b005b348015610c2557600080fd5b50610c2e612bdd565b604051808215151515815260200191505060405180910390f35b60006020528060005260406000206000915090508060000160009054906101000a900467ffffffffffffffff16908060000160089054906101000a900473ffffffffffffffffffffffffffffffffffffffff16908060010160009054906101000a900473ffffffffffffffffffffffffffffffffffffffff1690806002015490806003015490806004018054600181600116156101000203166002900480601f016020809104026020016040519081016040528092919081815260200182805460018160011615610100020316600290048015610d665780601f10610d3b57610100808354040283529160200191610d66565b820191906000526020600020905b815481529060010190602001808311610d4957829003601f168201915b5050505050905086565b600080610d7b6116d9565b905060008114158015610d95575080610d92612be6565b10155b91505090565b60065481565b6000806000806000806000808881526020019081526020016000209550610dc78761260f565b945060036006811115610dd657fe5b856006811115610de257fe5b1480610e04575060046006811115610df657fe5b856006811115610e0257fe5b145b6040805190810160405280600681526020017f54494d494e470000000000000000000000000000000000000000000000000000815250901515610ee2576040517f08c379a00000000000000000000000000000000000000000000000000000000081526004018080602001828103825283818151815260200191508051906020019080838360005b83811015610ea7578082015181840152602081019050610e8c565b50505050905090810190601f168015610ed45780820380516001836020036101000a031916815260200191505b509250505060405180910390fd5b508560020154935060036006811115610ef757fe5b856006811115610f0357fe5b1415610f3c57856003015492508560000160089054906101000a900473ffffffffffffffffffffffffffffffffffffffff169150610f64565b8560010160009054906101000a900473ffffffffffffffffffffffffffffffffffffffff1690505b8560000160006101000a81549067ffffffffffffffff02191690558560000160086101000a81549073ffffffffffffffffffffffffffffffffffffffff02191690558560020160009055856003016000905560036006811115610fc357fe5b856006811115610fcf57fe5b141561111657600160009054906101000a900473ffffffffffffffffffffffffffffffffffffffff1673ffffffffffffffffffffffffffffffffffffffff166340c10f19836110278688612bee90919063ffffffff16565b6040518363ffffffff167c0100000000000000000000000000000000000000000000000000000000028152600401808373ffffffffffffffffffffffffffffffffffffffff1673ffffffffffffffffffffffffffffffffffffffff16815260200182815260200192505050600060405180830381600087803b1580156110ac57600080fd5b505af11580156110c0573d6000803e3d6000fd5b505050506110cd87612ce3565b7f7b63618a9da049191a6a0fa9de63a3b9e09d9e0dfc329aba974c1d624974ffba87600160405180838152602001821515151581526020019250505060405180910390a1611248565b600160009054906101000a900473ffffffffffffffffffffffffffffffffffffffff1673ffffffffffffffffffffffffffffffffffffffff166340c10f1982866040518363ffffffff167c0100000000000000000000000000000000000000000000000000000000028152600401808373ffffffffffffffffffffffffffffffffffffffff1673ffffffffffffffffffffffffffffffffffffffff16815260200182815260200192505050600060405180830381600087803b1580156111db57600080fd5b505af11580156111ef573d6000803e3d6000fd5b505050508560040160006112039190613fe7565b7f7b63618a9da049191a6a0fa9de63a3b9e09d9e0dfc329aba974c1d624974ffba87600060405180838152602001821515151581526020019250505060405180910390a15b50505050505050565b600560189054906101000a900467ffffffffffffffff1681565b60045481565b600061127b611db6565b73ffffffffffffffffffffffffffffffffffffffff166304bf2a7f836040518263ffffffff167c01000000000000000000000000000000000000000000000000000000000281526004018080602001828103825283818151815260200191508051906020019080838360005b838110156113025780820151818401526020810190506112e7565b50505050905090810190601f16801561132f5780820380516001836020036101000a031916815260200191505b5092505050602060405180830381600087803b15801561134e57600080fd5b505af1158015611362573d6000803e3d6000fd5b505050506040513d602081101561137857600080fd5b81019080805190602001909291905050509050919050565b600160009054906101000a900473ffffffffffffffffffffffffffffffffffffffff1681565b60006113c06127e1565b73ffffffffffffffffffffffffffffffffffffffff166332f0a3b56040518163ffffffff167c0100000000000000000000000000000000000000000000000000000000028152600401602060405180830381600087803b15801561142357600080fd5b505af1158015611437573d6000803e3d6000fd5b505050506040513d602081101561144d57600080fd5b8101908080519060200190929190505050905090565b60405180807f4d4f444946595f504152414d455445525f524f4c4500000000000000000000008152506015019050604051809103902081565b600060405180807f535550504f52545f524f4c450000000000000000000000000000000000000000815250600c019050604051809103902061150f338260006040519080825280602002602001820160405280156115095781602001602082028038833980820191505090505b50611ba0565b6040805190810160405280600f81526020017f4150505f415554485f4641494c454400000000000000000000000000000000008152509015156115ed576040517f08c379a00000000000000000000000000000000000000000000000000000000081526004018080602001828103825283818151815260200191508051906020019080838360005b838110156115b2578082015181840152602081019050611597565b50505050905090810190601f1680156115df5780820380516001836020036101000a031916815260200191505b509250505060405180910390fd5b5060008084815260200190815260200160002091508160010160006101000a81549073ffffffffffffffffffffffffffffffffffffffff021916905560008260000160006101000a81548167ffffffffffffffff021916908367ffffffffffffffff1602179055507fd06a254cb2cdd63c77c51f77c86b55f431d3876b8f5099a304c3118473e05894836040518082815260200191505060405180910390a1505050565b60025481565b600060019050919050565b60006116d47fd625496217aa6a3453eecb9c3489dc5a53e6c67b444329ea2b2cbc9ff547639b60010260001916612e24565b905090565b600061170b7febb05b386a8d34882b8711d156f463690983dc47815980fb82aeeff1aa43579e60010260001916612e2f565b905090565b60405180807f4348414c4c454e47455f524f4c45000000000000000000000000000000000000815250600e019050604051809103902081565b60405180807f535550504f52545f524f4c450000000000000000000000000000000000000000815250600c019050604051809103902081565b600080600061179084611697565b6040805190810160405280601281526020017f5245434f5645525f444953414c4c4f574544000000000000000000000000000081525090151561186e576040517f08c379a00000000000000000000000000000000000000000000000000000000081526004018080602001828103825283818151815260200191508051906020019080838360005b83811015611833578082015181840152602081019050611818565b50505050905090810190601f1680156118605780820380516001836020036101000a031916815260200191505b509250505060405180910390fd5b506118776113b6565b925061188283612e3a565b6040805190810160405280601a81526020017f5245434f5645525f5641554c545f4e4f545f434f4e5452414354000000000000815250901515611960576040517f08c379a00000000000000000000000000000000000000000000000000000000081526004018080602001828103825283818151815260200191508051906020019080838360005b8381101561192557808201518184015260208101905061190a565b50505050905090810190601f1680156119525780820380516001836020036101000a031916815260200191505b509250505060405180910390fd5b50600073ffffffffffffffffffffffffffffffffffffffff168473ffffffffffffffffffffffffffffffffffffffff1614156119fc573073ffffffffffffffffffffffffffffffffffffffff163191508273ffffffffffffffffffffffffffffffffffffffff166108fc839081150290604051600060405180830381858888f193505050501580156119f6573d6000803e3d6000fd5b50611b35565b839050611a28308273ffffffffffffffffffffffffffffffffffffffff16612e8c90919063ffffffff16565b9150611a5583838373ffffffffffffffffffffffffffffffffffffffff166130669092919063ffffffff16565b6040805190810160405280601d81526020017f5245434f5645525f544f4b454e5f5452414e534645525f4641494c4544000000815250901515611b33576040517f08c379a00000000000000000000000000000000000000000000000000000000081526004018080602001828103825283818151815260200191508051906020019080838360005b83811015611af8578082015181840152602081019050611add565b50505050905090810190601f168015611b255780820380516001836020036101000a031916815260200191505b509250505060405180910390fd5b505b8373ffffffffffffffffffffffffffffffffffffffff168373ffffffffffffffffffffffffffffffffffffffff167f596caf56044b55fb8c4ca640089bbc2b63cae3e978b851f5745cbb7c5b288e02846040518082815260200191505060405180910390a350505050565b600080611bab610d70565b1515611bba5760009150611d94565b611bc26127e1565b9050600073ffffffffffffffffffffffffffffffffffffffff168173ffffffffffffffffffffffffffffffffffffffff161415611c025760009150611d94565b8073ffffffffffffffffffffffffffffffffffffffff1663fdef9106863087611c2a88613146565b6040518563ffffffff167c0100000000000000000000000000000000000000000000000000000000028152600401808573ffffffffffffffffffffffffffffffffffffffff1673ffffffffffffffffffffffffffffffffffffffff1681526020018473ffffffffffffffffffffffffffffffffffffffff1673ffffffffffffffffffffffffffffffffffffffff168152602001836000191660001916815260200180602001828103825283818151815260200191508051906020019080838360005b83811015611d07578082015181840152602081019050611cec565b50505050905090810190601f168015611d345780820380516001836020036101000a031916815260200191505b5095505050505050602060405180830381600087803b158015611d5657600080fd5b505af1158015611d6a573d6000803e3d6000fd5b505050506040513d6020811015611d8057600080fd5b810190808051906020019092919050505091505b509392505050565b600560009054906101000a900467ffffffffffffffff1681565b600080611dc16127e1565b73ffffffffffffffffffffffffffffffffffffffff1663be00bbd87fd6f028ca0e8edb4a8c9757ca4fdccab25fa1e0317da1188108f7d2dee14902fb6001027fddbcfd564f642ab5627cf68b9b7d374fb4f8a36e941a75d89c87998cef03bd616001026040518363ffffffff167c0100000000000000000000000000000000000000000000000000000000028152600401808360001916600019168152602001826000191660001916815260200192505050602060405180830381600087803b158015611e8d57600080fd5b505af1158015611ea1573d6000803e3d6000fd5b505050506040513d6020811015611eb757600080fd5b810190808051906020019092919050505090508091505090565b6000611edb6116d9565b146040805190810160405280601881526020017f494e49545f414c52454144595f494e495449414c495a45440000000000000000815250901515611fba576040517f08c379a00000000000000000000000000000000000000000000000000000000081526004018080602001828103825283818151815260200191508051906020019080838360005b83811015611f7f578082015181840152602081019050611f64565b50505050905090810190601f168015611fac5780820380516001836020036101000a031916815260200191505b509250505060405180910390fd5b50611fc361315d565b86600160006101000a81548173ffffffffffffffffffffffffffffffffffffffff021916908373ffffffffffffffffffffffffffffffffffffffff16021790555085600281905550846003819055508360048190555082600560006101000a81548167ffffffffffffffff021916908367ffffffffffffffff16021790555081600560086101000a81548167ffffffffffffffff021916908367ffffffffffffffff16021790555080600560106101000a81548167ffffffffffffffff021916908367ffffffffffffffff16021790555050505050505050565b600560109054906101000a900467ffffffffffffffff1681565b600060405180807f4348414c4c454e47455f524f4c45000000000000000000000000000000000000815250600e019050604051809103902061212a338260006040519080825280602002602001820160405280156121245781602001602082028038833980820191505090505b50611ba0565b6040805190810160405280600f81526020017f4150505f415554485f4641494c45440000000000000000000000000000000000815250901515612208576040517f08c379a00000000000000000000000000000000000000000000000000000000081526004018080602001828103825283818151815260200191508051906020019080838360005b838110156121cd5780820151818401526020810190506121b2565b50505050905090810190601f1680156121fa5780820380516001836020036101000a031916815260200191505b509250505060405180910390fd5b506000808481526020019081526020016000209150600073ffffffffffffffffffffffffffffffffffffffff168260010160009054906101000a900473ffffffffffffffffffffffffffffffffffffffff1673ffffffffffffffffffffffffffffffffffffffff16146040805190810160405280600581526020017f4552524f5200000000000000000000000000000000000000000000000000000081525090151561234f576040517f08c379a00000000000000000000000000000000000000000000000000000000081526004018080602001828103825283818151815260200191508051906020019080838360005b838110156123145780820151818401526020810190506122f9565b50505050905090810190601f1680156123415780820380516001836020036101000a031916815260200191505b509250505060405180910390fd5b50428260000160009054906101000a900467ffffffffffffffff1667ffffffffffffffff16116040805190810160405280600681526020017f54494d494e470000000000000000000000000000000000000000000000000000815250901515612453576040517f08c379a00000000000000000000000000000000000000000000000000000000081526004018080602001828103825283818151815260200191508051906020019080838360005b838110156124185780820151818401526020810190506123fd565b50505050905090810190601f1680156124455780820380516001836020036101000a031916815260200191505b509250505060405180910390fd5b50600160009054906101000a900473ffffffffffffffffffffffffffffffffffffffff1673ffffffffffffffffffffffffffffffffffffffff16639dc29fac336004546040518363ffffffff167c0100000000000000000000000000000000000000000000000000000000028152600401808373ffffffffffffffffffffffffffffffffffffffff1673ffffffffffffffffffffffffffffffffffffffff16815260200182815260200192505050600060405180830381600087803b15801561251b57600080fd5b505af115801561252f573d6000803e3d6000fd5b50505050338260010160006101000a81548173ffffffffffffffffffffffffffffffffffffffff021916908373ffffffffffffffffffffffffffffffffffffffff1602179055506125a9600560089054906101000a900467ffffffffffffffff164267ffffffffffffffff1661328a90919063ffffffff16565b8260000160006101000a81548167ffffffffffffffff021916908367ffffffffffffffff1602179055507f271cf71555a6bcba34ca2727bcb79b4eba5076aadb06cbdb1d20768452223f12836040518082815260200191505060405180910390a1505050565b6000806000808481526020019081526020016000209050600073ffffffffffffffffffffffffffffffffffffffff168160010160009054906101000a900473ffffffffffffffffffffffffffffffffffffffff1673ffffffffffffffffffffffffffffffffffffffff1614156126ef574267ffffffffffffffff168160000160009054906101000a900467ffffffffffffffff1667ffffffffffffffff1611156126bc576001915061275b565b60008160040180546001816001161561010002031660029004905011156126e6576003915061275b565b6005915061275b565b4267ffffffffffffffff168160000160009054906101000a900467ffffffffffffffff1667ffffffffffffffff16111561272c576002915061275b565b6000816004018054600181600116156101000203166002900490501115612756576004915061275b565b600691505b50919050565b60035481565b60006127d98360405180807f50524f504f53455f524f4c450000000000000000000000000000000000000000815250600c019050604051809103902060006040519080825280602002602001820160405280156127d35781602001602082028038833980820191505090505b50611ba0565b905092915050565b60006128137f4172f0f7d2289153072b0a6ca36959e0cbe2efc3afe50fc81636caa96338137b60010260001916613393565b905090565b60405180807f50524f504f53455f524f4c450000000000000000000000000000000000000000815250600c019050604051809103902081565b61285b3382612767565b6040805190810160405280600a81526020017f5045524d495353494f4e00000000000000000000000000000000000000000000815250901515612939576040517f08c379a00000000000000000000000000000000000000000000000000000000081526004018080602001828103825283818151815260200191508051906020019080838360005b838110156128fe5780820151818401526020810190506128e3565b50505050905090810190601f16801561292b5780820380516001836020036101000a031916815260200191505b509250505060405180910390fd5b5061295481602060405190810160405280600081525061339e565b5050565b60007fffffffffffffffffffffffffffffffffffffffffffffffffffffffffffffffff6129836116d9565b14905090565b600560089054906101000a900467ffffffffffffffff1681565b60405180807f4d4f444946595f504152414d455445525f524f4c45000000000000000000000081525060150190506040518091039020612a1433826000604051908082528060200260200182016040528015612a0e5781602001602082028038833980820191505090505b50611ba0565b6040805190810160405280600f81526020017f4150505f415554485f4641494c45440000000000000000000000000000000000815250901515612af2576040517f08c379a00000000000000000000000000000000000000000000000000000000081526004018080602001828103825283818151815260200191508051906020019080838360005b83811015612ab7578082015181840152602081019050612a9c565b50505050905090810190601f168015612ae45780820380516001836020036101000a031916815260200191505b509250505060405180910390fd5b506001831415612b085781600281905550612bd8565b6002831415612b1d5781600381905550612bd7565b6003831415612b325781600481905550612bd6565b6004831415612b695781600560006101000a81548167ffffffffffffffff021916908367ffffffffffffffff160217905550612bd5565b6005831415612ba05781600560086101000a81548167ffffffffffffffff021916908367ffffffffffffffff160217905550612bd4565b6006831415612bd35781600560106101000a81548167ffffffffffffffff021916908367ffffffffffffffff1602179055505b5b5b5b5b5b505050565b60006001905090565b600043905090565b6000808284019050838110156040805190810160405280601181526020017f4d4154485f4144445f4f564552464c4f57000000000000000000000000000000815250901515612cd8576040517f08c379a00000000000000000000000000000000000000000000000000000000081526004018080602001828103825283818151815260200191508051906020019080838360005b83811015612c9d578082015181840152602081019050612c82565b50505050905090810190601f168015612cca5780820380516001836020036101000a031916815260200191505b509250505060405180910390fd5b508091505092915050565b60006060806000808581526020019081526020016000209250826004018054600181600116156101000203166002900480601f016020809104026020016040519081016040528092919081815260200182805460018160011615610100020316600290048015612d945780601f10612d6957610100808354040283529160200191612d94565b820191906000526020600020905b815481529060010190602001808311612d7757829003601f168201915b50505050509150826004016000612dab9190613fe7565b60006040519080825280601f01601f191660200182016040528015612ddf5781602001602082028038833980820191505090505b509050612e1d82826000604051908082528060200260200182016040528015612e175781602001602082028038833980820191505090505b50613722565b5050505050565b600081549050919050565b600081549050919050565b600080600073ffffffffffffffffffffffffffffffffffffffff168373ffffffffffffffffffffffffffffffffffffffff161415612e7b5760009150612e86565b823b90506000811191505b50919050565b600060606000808573ffffffffffffffffffffffffffffffffffffffff166370a0823190507c01000000000000000000000000000000000000000000000000000000000285604051602401808273ffffffffffffffffffffffffffffffffffffffff1673ffffffffffffffffffffffffffffffffffffffff168152602001915050604051602081830303815290604052907bffffffffffffffffffffffffffffffffffffffffffffffffffffffff19166020820180517bffffffffffffffffffffffffffffffffffffffffffffffffffffffff83818316178352505050509250612f768684613f59565b91509150816040805190810160405280601c81526020017f534146455f4552435f32305f42414c414e43455f524556455254454400000000815250901515613059576040517f08c379a00000000000000000000000000000000000000000000000000000000081526004018080602001828103825283818151815260200191508051906020019080838360005b8381101561301e578082015181840152602081019050613003565b50505050905090810190601f16801561304b5780820380516001836020036101000a031916815260200191505b509250505060405180910390fd5b5080935050505092915050565b6000606063a9059cbb7c0100000000000000000000000000000000000000000000000000000000028484604051602401808373ffffffffffffffffffffffffffffffffffffffff1673ffffffffffffffffffffffffffffffffffffffff16815260200182815260200192505050604051602081830303815290604052907bffffffffffffffffffffffffffffffffffffffffffffffffffffffff19166020820180517bffffffffffffffffffffffffffffffffffffffffffffffffffffffff8381831617835250505050905061313c8582613f8e565b9150509392505050565b606060006020835102905082915080825250919050565b60006131676116d9565b146040805190810160405280601881526020017f494e49545f414c52454144595f494e495449414c495a45440000000000000000815250901515613246576040517f08c379a00000000000000000000000000000000000000000000000000000000081526004018080602001828103825283818151815260200191508051906020019080838360005b8381101561320b5780820151818401526020810190506131f0565b50505050905090810190601f1680156132385780820380516001836020036101000a031916815260200191505b509250505060405180910390fd5b50613288613252612be6565b7febb05b386a8d34882b8711d156f463690983dc47815980fb82aeeff1aa43579e60010260001916613fe090919063ffffffff16565b565b60008082840190508367ffffffffffffffff168167ffffffffffffffff1610156040805190810160405280601381526020017f4d41544836345f4144445f4f564552464c4f5700000000000000000000000000815250901515613388576040517f08c379a00000000000000000000000000000000000000000000000000000000081526004018080602001828103825283818151815260200191508051906020019080838360005b8381101561334d578082015181840152602081019050613332565b50505050905090810190601f16801561337a5780820380516001836020036101000a031916815260200191505b509250505060405180910390fd5b508091505092915050565b600081549050919050565b60008060004291506133ef600560109054906101000a900467ffffffffffffffff16600560189054906101000a900467ffffffffffffffff1667ffffffffffffffff1661328a90919063ffffffff16565b67ffffffffffffffff168267ffffffffffffffff1610156040805190810160405280600681526020017f54494d494e4700000000000000000000000000000000000000000000000000008152509015156134e4576040517f08c379a00000000000000000000000000000000000000000000000000000000081526004018080602001828103825283818151815260200191508051906020019080838360005b838110156134a957808201518184015260208101905061348e565b50505050905090810190601f1680156134d65780820380516001836020036101000a031916815260200191505b509250505060405180910390fd5b5060066000815480929190600101919050559250600080848152602001908152602001600020905061353f600560009054906101000a900467ffffffffffffffff168367ffffffffffffffff1661328a90919063ffffffff16565b8160000160006101000a81548167ffffffffffffffff021916908367ffffffffffffffff160217905550338160000160086101000a81548173ffffffffffffffffffffffffffffffffffffffff021916908373ffffffffffffffffffffffffffffffffffffffff16021790555060025481600201819055506003548160030181905550848160040190805190602001906135da92919061402f565b50600160009054906101000a900473ffffffffffffffffffffffffffffffffffffffff1673ffffffffffffffffffffffffffffffffffffffff16639dc29fac336002546040518363ffffffff167c0100000000000000000000000000000000000000000000000000000000028152600401808373ffffffffffffffffffffffffffffffffffffffff1673ffffffffffffffffffffffffffffffffffffffff16815260200182815260200192505050600060405180830381600087803b1580156136a257600080fd5b505af11580156136b6573d6000803e3d6000fd5b5050505081600560186101000a81548167ffffffffffffffff021916908367ffffffffffffffff1602179055507fa963894ed7d980b52c0f4b9a5a742f906a254ceb52c8717ca5ad628ded973b86836040518082815260200191505060405180910390a1505092915050565b6060600080606080613732610d70565b6040805190810160405280601481526020017f494e49545f4e4f545f494e495449414c495a4544000000000000000000000000815250901515613810576040517f08c379a00000000000000000000000000000000000000000000000000000000081526004018080602001828103825283818151815260200191508051906020019080838360005b838110156137d55780820151818401526020810190506137ba565b50505050905090810190601f1680156138025780820380516001836020036101000a031916815260200191505b509250505060405180910390fd5b5060008061381c6127e1565b91506138266116a2565b90506138318a611271565b9550600073ffffffffffffffffffffffffffffffffffffffff168673ffffffffffffffffffffffffffffffffffffffff1614156040805190810160405280601b81526020017f45564d52554e5f4558454355544f525f554e415641494c41424c450000000000815250901515613942576040517f08c379a00000000000000000000000000000000000000000000000000000000081526004018080602001828103825283818151815260200191508051906020019080838360005b838110156139075780820151818401526020810190506138ec565b50505050905090810190601f1680156139345780820380516001836020036101000a031916815260200191505b509250505060405180910390fd5b508573ffffffffffffffffffffffffffffffffffffffff1663279cea3590507c0100000000000000000000000000000000000000000000000000000000029450848a8a8a60405160240180806020018060200180602001848103845287818151815260200191508051906020019080838360005b838110156139d15780820151818401526020810190506139b6565b50505050905090810190601f1680156139fe5780820380516001836020036101000a031916815260200191505b50848103835286818151815260200191508051906020019080838360005b83811015613a37578082015181840152602081019050613a1c565b50505050905090810190601f168015613a645780820380516001836020036101000a031916815260200191505b50848103825285818151815260200191508051906020019060200280838360005b83811015613aa0578082015181840152602081019050613a85565b505050509050019650505050505050604051602081830303815290604052907bffffffffffffffffffffffffffffffffffffffffffffffffffffffff19166020820180517bffffffffffffffffffffffffffffffffffffffffffffffffffffffff83818316178352505050509350600080855160208701895af460405193508060008114613bab57603f3d1160008114613b495760203d03806020883e80870160405250613ba5565b7f08c379a000000000000000000000000000000000000000000000000000000000865260206004870152601e60248701527f45564d52554e5f4558454355544f525f494e56414c49445f52455455524e00006044870152606486fd5b50613bb4565b3d6000863e3d85fd5b50508573ffffffffffffffffffffffffffffffffffffffff167f5229a5dba83a54ae8cb5b51bdd6de9474cacbe9dd332f5185f3a4f4f2e3f4ad98b8b8660405180806020018060200180602001848103845287818151815260200191508051906020019080838360005b83811015613c39578082015181840152602081019050613c1e565b50505050905090810190601f168015613c665780820380516001836020036101000a031916815260200191505b50848103835286818151815260200191508051906020019080838360005b83811015613c9f578082015181840152602081019050613c84565b50505050905090810190601f168015613ccc5780820380516001836020036101000a031916815260200191505b50848103825285818151815260200191508051906020019080838360005b83811015613d05578082015181840152602081019050613cea565b50505050905090810190601f168015613d325780820380516001836020036101000a031916815260200191505b50965050505050505060405180910390a28296508173ffffffffffffffffffffffffffffffffffffffff16613d656127e1565b73ffffffffffffffffffffffffffffffffffffffff16146040805190810160405280601f81526020017f45564d52554e5f50524f5445435445445f53544154455f4d4f44494649454400815250901515613e5a576040517f08c379a00000000000000000000000000000000000000000000000000000000081526004018080602001828103825283818151815260200191508051906020019080838360005b83811015613e1f578082015181840152602081019050613e04565b50505050905090810190601f168015613e4c5780820380516001836020036101000a031916815260200191505b509250505060405180910390fd5b508060001916613e686116a2565b60001916146040805190810160405280601f81526020017f45564d52554e5f50524f5445435445445f53544154455f4d4f44494649454400815250901515613f4b576040517f08c379a00000000000000000000000000000000000000000000000000000000081526004018080602001828103825283818151815260200191508051906020019080838360005b83811015613f10578082015181840152602081019050613ef5565b50505050905090810190601f168015613f3d5780820380516001836020036101000a031916815260200191505b509250505060405180910390fd5b505050505050509392505050565b6000806000806040516020818751602089018a5afa92506000831115613f7e57805191505b5081819350935050509250929050565b6000806040516020818551602087016000895af16000811115613fd4573d60008114613fc15760208114613fca57613fd2565b60019350613fd2565b600183511493505b505b50508091505092915050565b8082555050565b50805460018160011615610100020316600290046000825580601f1061400d575061402c565b601f01602090049060005260206000209081019061402b91906140af565b5b50565b828054600181600116156101000203166002900490600052602060002090601f016020900481019282601f1061407057805160ff191683800117855561409e565b8280016001018555821561409e579182015b8281111561409d578251825591602001919060010190614082565b5b5090506140ab91906140af565b5090565b6140d191905b808211156140cd5760008160009055506001016140b5565b5090565b905600a165627a7a72305820917c05a0b4d08721ffb26197fd1d91f74c068573bdfe648b69156e5659f41f610029",
  "source": "pragma solidity ^0.4.24;\n\nimport \"@aragon/os/contracts/apps/AragonApp.sol\";\nimport \"@aragon/os/contracts/common/IForwarder.sol\";\nimport \"@aragon/os/contracts/lib/math/SafeMath.sol\";\nimport \"@aragon/os/contracts/lib/math/SafeMath64.sol\";\nimport \"@aragon/apps-token-manager/contracts/TokenManager.sol\";\n/* import \"@aragon/apps-shared-minime/contracts/MiniMeToken.sol\"; */\n\ncontract Challenge is IForwarder, AragonApp {\n    using SafeMath for uint;\n    using SafeMath64 for uint64;\n\n    enum Status { NONE, PROPOSED, CHALLENGED, ACCEPTED, REJECTED, ACCEPT_ENDED, REJECT_ENDED }\n\n    struct Proposal {\n      uint64  end;\n      address proposer;\n      address challenger;\n      uint    stake;\n      uint    reward;\n      bytes   script;\n    }\n\n    /// Events\n    event Propose(uint id);\n    event Challenge(uint id);\n    event Support(uint id);\n    event End(uint id, bool success);\n\n    /// State\n    mapping (uint => Proposal) public proposals;\n    TokenManager public tokenManager;\n    uint public proposalStake;\n    uint public proposalReward;\n    uint public challengeFee;\n    uint64 public challengeTime;\n    uint64 public supportTime;\n    uint64 public proposalDelay;\n    uint64 public lastProposalDate;\n    uint public proposalsCount;\n\n    /// ACL\n    bytes32 constant public PROPOSE_ROLE = keccak256(\"PROPOSE_ROLE\");\n    bytes32 constant public CHALLENGE_ROLE = keccak256(\"CHALLENGE_ROLE\");\n    bytes32 constant public SUPPORT_ROLE = keccak256(\"SUPPORT_ROLE\");\n    bytes32 constant public MODIFY_PARAMETER_ROLE = keccak256(\"MODIFY_PARAMETER_ROLE\");\n\n\n    string private constant ERROR = \"ERROR\";\n    string private constant ERROR_TIMING = \"TIMING\";\n    string private constant ERROR_NOT_FOUND = \"NOT_FOUND\";\n    string private constant ERROR_PERMISSION = \"PERMISSION\";\n\n    function initialize(\n      address _tokenManager, uint _proposalStake, uint _proposalReward, uint _challengeFee,\n      uint64 _challengeTime, uint64 _supportTime, uint64 _proposalDelay\n    ) public onlyInit {\n        initialized();\n\n        tokenManager = TokenManager(_tokenManager);\n        proposalStake = _proposalStake;\n        proposalReward = _proposalReward;\n        challengeFee = _challengeFee;\n        challengeTime = _challengeTime;\n        supportTime = _supportTime;\n        proposalDelay = _proposalDelay;\n    }\n\n    /**\n     * @notice Challenge proposal:`_id`\n     * @param _id Proposal id\n     */\n    function challenge(uint _id) external auth(CHALLENGE_ROLE) {\n        Proposal storage proposal = proposals[_id];\n        // require no existing challenge\n        require( proposal.challenger == address(0), ERROR );\n        // require in challenge period\n        require( proposal.end > now, ERROR_TIMING );\n        // challengeFee burn\n        tokenManager.burn(msg.sender, challengeFee);\n        // set challenger\n        proposal.challenger = msg.sender;\n        proposal.end = uint64(now).add(supportTime);\n\n        emit Challenge(_id);\n    }\n\n    /**\n     * @notice Support challenged proposal:`_id`\n     * @param _id Proposal id\n     */\n    function support(uint _id) external auth(SUPPORT_ROLE) {\n        Proposal storage proposal = proposals[_id];\n        // i don't think this challenger check is necessary. if a support/accept\n        // vote is initiated without a challenge and it passes early this is a way to\n        // expedite approval process\n        /* require( proposals[_id].challenger != address(0), ERROR ); */\n        delete proposal.challenger;\n        // ensure not re-challengeable\n        proposal.end = 0;\n        emit Support(_id);\n    }\n\n    /**\n     * @notice Conclude challenged proposal:`_id`\n     * @param _id Proposal id\n     */\n    function end(uint _id) external {\n        Proposal storage proposal = proposals[_id];\n        Status status = statusOf(_id);\n\n        require(status == Status.ACCEPTED || status == Status.REJECTED, ERROR_TIMING);\n\n        uint stake = proposal.stake;\n        uint reward;\n        address proposer;\n        address challenger;\n\n        if(status == Status.ACCEPTED) {\n            reward = proposal.reward;\n            proposer = proposal.proposer;\n        } else {\n            challenger = proposal.challenger;\n        }\n\n        // don't delete proposal.challenger because it's used to indicate a successful challenge\n        delete proposal.end;\n        delete proposal.proposer;\n        delete proposal.stake;\n        delete proposal.reward;\n\n        if(status == Status.ACCEPTED) {\n            // return staked amount\n            /* MiniMeToken(tokenManager.token()).transfer(proposer, stake); */\n            // mint reward\n            tokenManager.mint(proposer, stake.add(reward));\n\n            _execute(_id);\n\n            emit End(_id, true);\n        } else {\n            // stake to challenger\n            /* MiniMeToken(tokenManager.token()).transfer(challenger, stake); */\n            tokenManager.mint(challenger, stake);\n\n            delete proposal.script;\n\n            emit End(_id, false);\n        }\n    }\n\n    /**\n     * @notice Get status of challenged proposal:`_id`\n     * @param _id Proposal id\n     */\n    function statusOf(uint _id) public view returns (Status) {\n        Proposal storage proposal = proposals[_id];\n\n        if(proposal.challenger == address(0)){\n            if(proposal.end > uint64(now))\n                return Status.PROPOSED;\n            else if(proposal.script.length > 0)\n                return Status.ACCEPTED;\n            else\n                return Status.ACCEPT_ENDED;\n        } else {\n            if(proposal.end > uint64(now))\n                return Status.CHALLENGED;\n            else if(proposal.script.length > 0)\n                return Status.REJECTED;\n            else\n                return Status.REJECT_ENDED;\n        }\n    }\n\n    /**\n     * @notice Change parameter:`_id`\n     * @param _id Parameter id\n     * @param _value Parameter value\n     */\n    function changeParameter(uint _id, uint _value) auth(MODIFY_PARAMETER_ROLE) public {\n        if(_id == 1)\n            proposalStake = _value;\n        else if(_id == 2)\n            proposalReward = _value;\n        else if(_id == 3)\n            challengeFee = _value;\n        else if(_id == 4)\n            challengeTime = uint64(_value);\n        else if(_id == 5)\n            supportTime = uint64(_value);\n        else if(_id == 6)\n            proposalDelay = uint64(_value);\n    }\n\n    function _execute(uint _id) internal {\n        Proposal storage proposal = proposals[_id];\n\n        bytes memory script = proposal.script;\n        delete proposal.script;\n\n        bytes memory input = new bytes(0); // TODO: Consider input for voting scripts\n        runScript(script, input, new address[](0));\n    }\n\n    function _propose(bytes _script, string _metadata) internal returns (uint id) {\n        uint64 now64 = uint64(now);\n        require( now64 >= lastProposalDate.add(proposalDelay), ERROR_TIMING );\n\n        id = proposalsCount++;\n        Proposal storage proposal = proposals[id];\n        proposal.end = now64.add(challengeTime);\n        proposal.proposer = msg.sender;\n        proposal.stake = proposalStake;\n        proposal.reward = proposalReward;\n        proposal.script = _script;\n\n        tokenManager.burn(msg.sender, proposalStake);\n        lastProposalDate = now64;\n\n        emit Propose(id);\n    }\n\n    /**\n    * @notice Creates a proposal to execute the desired action\n    * @dev IForwarder interface conformance\n    * @param _evmScript Start proposal with script\n    */\n    function forward(bytes _evmScript) public {\n        require(canForward(msg.sender, _evmScript), ERROR_PERMISSION);\n        _propose(_evmScript, \"\");\n        /* runScript(_evmScript, new bytes(0), new address[](0)); */\n    }\n\n    function canForward(address _sender, bytes) public view returns (bool) {\n        return canPerform(_sender, PROPOSE_ROLE, new uint256[](0));\n    }\n\n    function isForwarder() public pure returns (bool) {\n        return true;\n    }\n}\n",
  "sourcePath": "@daonuts/challenge/contracts/Challenge.sol",
  "compiler": {
    "name": "solc",
    "version": "0.4.24+commit.e67f0147.Emscripten.clang"
  },
  "schemaVersion": "2.0.1",
  "updatedAt": "2019-10-25T18:49:09.310Z"
}