{
  "contractName": "DepositableStorage",
  "abi": [
    {
      "constant": true,
      "inputs": [],
      "name": "isDepositable",
      "outputs": [
        {
          "name": "",
          "type": "bool"
        }
      ],
      "payable": false,
      "stateMutability": "view",
      "type": "function"
    }
  ],
  "bytecode": "0x608060405234801561001057600080fd5b5060dc8061001f6000396000f300608060405260043610603f576000357c0100000000000000000000000000000000000000000000000000000000900463ffffffff16806348a0c8dd146044575b600080fd5b348015604f57600080fd5b5060566070565b604051808215151515815260200191505060405180910390f35b600060a07f665fd576fbbe6f247aff98f5c94a561e3f71ec2d3c988d56f12d342396c50cea6001026000191660a5565b905090565b6000815490509190505600a165627a7a72305820e9d1273e4156396502141ca1a7df54f3742ad1b80d16317417a146d1801cf3880029",
  "source": "pragma solidity 0.4.24;\n\nimport \"./UnstructuredStorage.sol\";\n\n\ncontract DepositableStorage {\n    using UnstructuredStorage for bytes32;\n\n    // keccak256(\"aragonOS.depositableStorage.depositable\")\n    bytes32 internal constant DEPOSITABLE_POSITION = 0x665fd576fbbe6f247aff98f5c94a561e3f71ec2d3c988d56f12d342396c50cea;\n\n    function isDepositable() public view returns (bool) {\n        return DEPOSITABLE_POSITION.getStorageBool();\n    }\n\n    function setDepositable(bool _depositable) internal {\n        DEPOSITABLE_POSITION.setStorageBool(_depositable);\n    }\n}\n",
  "sourcePath": "@aragon/os/contracts/common/DepositableStorage.sol",
  "compiler": {
    "name": "solc",
    "version": "0.4.24+commit.e67f0147.Emscripten.clang"
  },
  "schemaVersion": "2.0.1",
  "updatedAt": "2019-10-17T20:04:59.843Z"
}