{
  "contractName": "Subscribe",
  "abi": [
    {
      "constant": true,
      "inputs": [],
      "name": "hasInitialized",
      "outputs": [
        {
          "name": "",
          "type": "bool"
        }
      ],
      "payable": false,
      "stateMutability": "view",
      "type": "function"
    },
    {
      "constant": true,
      "inputs": [],
      "name": "duration",
      "outputs": [
        {
          "name": "",
          "type": "uint64"
        }
      ],
      "payable": false,
      "stateMutability": "view",
      "type": "function"
    },
    {
      "constant": true,
      "inputs": [],
      "name": "SET_DURATION_ROLE",
      "outputs": [
        {
          "name": "",
          "type": "bytes32"
        }
      ],
      "payable": false,
      "stateMutability": "view",
      "type": "function"
    },
    {
      "constant": true,
      "inputs": [
        {
          "name": "_script",
          "type": "bytes"
        }
      ],
      "name": "getEVMScriptExecutor",
      "outputs": [
        {
          "name": "",
          "type": "address"
        }
      ],
      "payable": false,
      "stateMutability": "view",
      "type": "function"
    },
    {
      "constant": true,
      "inputs": [],
      "name": "tokenManager",
      "outputs": [
        {
          "name": "",
          "type": "address"
        }
      ],
      "payable": false,
      "stateMutability": "view",
      "type": "function"
    },
    {
      "constant": true,
      "inputs": [],
      "name": "getRecoveryVault",
      "outputs": [
        {
          "name": "",
          "type": "address"
        }
      ],
      "payable": false,
      "stateMutability": "view",
      "type": "function"
    },
    {
      "constant": true,
      "inputs": [
        {
          "name": "",
          "type": "address"
        }
      ],
      "name": "expirations",
      "outputs": [
        {
          "name": "",
          "type": "uint64"
        }
      ],
      "payable": false,
      "stateMutability": "view",
      "type": "function"
    },
    {
      "constant": true,
      "inputs": [],
      "name": "SET_PRICE_ROLE",
      "outputs": [
        {
          "name": "",
          "type": "bytes32"
        }
      ],
      "payable": false,
      "stateMutability": "view",
      "type": "function"
    },
    {
      "constant": true,
      "inputs": [
        {
          "name": "token",
          "type": "address"
        }
      ],
      "name": "allowRecoverability",
      "outputs": [
        {
          "name": "",
          "type": "bool"
        }
      ],
      "payable": false,
      "stateMutability": "view",
      "type": "function"
    },
    {
      "constant": true,
      "inputs": [],
      "name": "appId",
      "outputs": [
        {
          "name": "",
          "type": "bytes32"
        }
      ],
      "payable": false,
      "stateMutability": "view",
      "type": "function"
    },
    {
      "constant": true,
      "inputs": [],
      "name": "getInitializationBlock",
      "outputs": [
        {
          "name": "",
          "type": "uint256"
        }
      ],
      "payable": false,
      "stateMutability": "view",
      "type": "function"
    },
    {
      "constant": false,
      "inputs": [
        {
          "name": "_token",
          "type": "address"
        }
      ],
      "name": "transferToVault",
      "outputs": [],
      "payable": false,
      "stateMutability": "nonpayable",
      "type": "function"
    },
    {
      "constant": true,
      "inputs": [],
      "name": "price",
      "outputs": [
        {
          "name": "",
          "type": "uint256"
        }
      ],
      "payable": false,
      "stateMutability": "view",
      "type": "function"
    },
    {
      "constant": true,
      "inputs": [
        {
          "name": "_sender",
          "type": "address"
        },
        {
          "name": "_role",
          "type": "bytes32"
        },
        {
          "name": "_params",
          "type": "uint256[]"
        }
      ],
      "name": "canPerform",
      "outputs": [
        {
          "name": "",
          "type": "bool"
        }
      ],
      "payable": false,
      "stateMutability": "view",
      "type": "function"
    },
    {
      "constant": true,
      "inputs": [],
      "name": "getEVMScriptRegistry",
      "outputs": [
        {
          "name": "",
          "type": "address"
        }
      ],
      "payable": false,
      "stateMutability": "view",
      "type": "function"
    },
    {
      "constant": true,
      "inputs": [],
      "name": "kernel",
      "outputs": [
        {
          "name": "",
          "type": "address"
        }
      ],
      "payable": false,
      "stateMutability": "view",
      "type": "function"
    },
    {
      "constant": true,
      "inputs": [],
      "name": "isPetrified",
      "outputs": [
        {
          "name": "",
          "type": "bool"
        }
      ],
      "payable": false,
      "stateMutability": "view",
      "type": "function"
    },
    {
      "anonymous": false,
      "inputs": [
        {
          "indexed": true,
          "name": "subscriber",
          "type": "address"
        },
        {
          "indexed": false,
          "name": "purchaser",
          "type": "address"
        },
        {
          "indexed": false,
          "name": "expiration",
          "type": "uint64"
        }
      ],
      "name": "Subscribe",
      "type": "event"
    },
    {
      "anonymous": false,
      "inputs": [
        {
          "indexed": false,
          "name": "price",
          "type": "uint256"
        }
      ],
      "name": "PriceChange",
      "type": "event"
    },
    {
      "anonymous": false,
      "inputs": [
        {
          "indexed": false,
          "name": "duration",
          "type": "uint256"
        }
      ],
      "name": "DurationChange",
      "type": "event"
    },
    {
      "anonymous": false,
      "inputs": [
        {
          "indexed": true,
          "name": "executor",
          "type": "address"
        },
        {
          "indexed": false,
          "name": "script",
          "type": "bytes"
        },
        {
          "indexed": false,
          "name": "input",
          "type": "bytes"
        },
        {
          "indexed": false,
          "name": "returnData",
          "type": "bytes"
        }
      ],
      "name": "ScriptResult",
      "type": "event"
    },
    {
      "anonymous": false,
      "inputs": [
        {
          "indexed": true,
          "name": "vault",
          "type": "address"
        },
        {
          "indexed": true,
          "name": "token",
          "type": "address"
        },
        {
          "indexed": false,
          "name": "amount",
          "type": "uint256"
        }
      ],
      "name": "RecoverToVault",
      "type": "event"
    },
    {
      "constant": false,
      "inputs": [
        {
          "name": "_tokenManager",
          "type": "address"
        },
        {
          "name": "_price",
          "type": "uint256"
        },
        {
          "name": "_duration",
          "type": "uint64"
        }
      ],
      "name": "initialize",
      "outputs": [],
      "payable": false,
      "stateMutability": "nonpayable",
      "type": "function"
    },
    {
      "constant": false,
      "inputs": [
        {
          "name": "_subscriber",
          "type": "address"
        },
        {
          "name": "_units",
          "type": "uint16"
        }
      ],
      "name": "subscribe",
      "outputs": [],
      "payable": false,
      "stateMutability": "nonpayable",
      "type": "function"
    },
    {
      "constant": false,
      "inputs": [
        {
          "name": "_price",
          "type": "uint256"
        }
      ],
      "name": "setPrice",
      "outputs": [],
      "payable": false,
      "stateMutability": "nonpayable",
      "type": "function"
    },
    {
      "constant": false,
      "inputs": [
        {
          "name": "_duration",
          "type": "uint64"
        }
      ],
      "name": "setDuration",
      "outputs": [],
      "payable": false,
      "stateMutability": "nonpayable",
      "type": "function"
    },
    {
      "constant": false,
      "inputs": [
        {
          "name": "_evmScript",
          "type": "bytes"
        }
      ],
      "name": "forward",
      "outputs": [],
      "payable": false,
      "stateMutability": "nonpayable",
      "type": "function"
    },
    {
      "constant": true,
      "inputs": [
        {
          "name": "_sender",
          "type": "address"
        },
        {
          "name": "",
          "type": "bytes"
        }
      ],
      "name": "canForward",
      "outputs": [
        {
          "name": "",
          "type": "bool"
        }
      ],
      "payable": false,
      "stateMutability": "view",
      "type": "function"
    },
    {
      "constant": true,
      "inputs": [],
      "name": "isForwarder",
      "outputs": [
        {
          "name": "",
          "type": "bool"
        }
      ],
      "payable": false,
      "stateMutability": "pure",
      "type": "function"
    }
  ],
  "bytecode": "0x60806040526200001d62000023640100000000026401000000009004565b62000309565b60006200003e6200015e640100000000026401000000009004565b146040805190810160405280601881526020017f494e49545f414c52454144595f494e495449414c495a4544000000000000000081525090151562000121576040517f08c379a00000000000000000000000000000000000000000000000000000000081526004018080602001828103825283818151815260200191508051906020019080838360005b83811015620000e5578082015181840152602081019050620000c8565b50505050905090810190601f168015620001135780820380516001836020036101000a031916815260200191505b509250505060405180910390fd5b506200015c7fffffffffffffffffffffffffffffffffffffffffffffffffffffffffffffffff620001ab640100000000026401000000009004565b565b6000620001a67febb05b386a8d34882b8711d156f463690983dc47815980fb82aeeff1aa43579e60010260001916620002f76401000000000262002064176401000000009004565b905090565b6000620001c66200015e640100000000026401000000009004565b146040805190810160405280601881526020017f494e49545f414c52454144595f494e495449414c495a45440000000000000000815250901515620002a9576040517f08c379a00000000000000000000000000000000000000000000000000000000081526004018080602001828103825283818151815260200191508051906020019080838360005b838110156200026d57808201518184015260208101905062000250565b50505050905090810190601f1680156200029b5780820380516001836020036101000a031916815260200191505b509250505060405180910390fd5b50620002f4817febb05b386a8d34882b8711d156f463690983dc47815980fb82aeeff1aa43579e60010260001916620003026401000000000262002d88179091906401000000009004565b50565b600081549050919050565b8082555050565b612dbb80620003196000396000f30060806040526004361061013e576000357c0100000000000000000000000000000000000000000000000000000000900463ffffffff1680630803fac0146101435780630fb5a6b4146101725780631566085c146101b15780632914b9bd146101e45780632a709b141461028d57806332f0a3b5146102e45780633c74db0f1461033b5780634b852c03146103a65780635bb80a5f146103dd57806374e805e91461042e5780637e7db6e11461046157806380afdea8146104bc5780638b3dd749146104ef57806391b7f5ed1461051a5780639d4941d814610547578063a035b1fe1461058a578063a1658fad146105b5578063a479e50814610661578063c0774df3146106b8578063d32ce5ae14610759578063d4aae0c4146107ba578063d948d46814610811578063de4796ed1461087a578063fd64eccb146108a9575b600080fd5b34801561014f57600080fd5b506101586108d8565b604051808215151515815260200191505060405180910390f35b34801561017e57600080fd5b50610187610903565b604051808267ffffffffffffffff1667ffffffffffffffff16815260200191505060405180910390f35b3480156101bd57600080fd5b506101c661091d565b60405180826000191660001916815260200191505060405180910390f35b3480156101f057600080fd5b5061024b600480360381019080803590602001908201803590602001908080601f0160208091040260200160405190810160405280939291908181526020018383808284378201915050505050509192919290505050610956565b604051808273ffffffffffffffffffffffffffffffffffffffff1673ffffffffffffffffffffffffffffffffffffffff16815260200191505060405180910390f35b34801561029957600080fd5b506102a2610a75565b604051808273ffffffffffffffffffffffffffffffffffffffff1673ffffffffffffffffffffffffffffffffffffffff16815260200191505060405180910390f35b3480156102f057600080fd5b506102f9610a9b565b604051808273ffffffffffffffffffffffffffffffffffffffff1673ffffffffffffffffffffffffffffffffffffffff16815260200191505060405180910390f35b34801561034757600080fd5b5061037c600480360381019080803573ffffffffffffffffffffffffffffffffffffffff169060200190929190505050610b48565b604051808267ffffffffffffffff1667ffffffffffffffff16815260200191505060405180910390f35b3480156103b257600080fd5b506103db600480360381019080803567ffffffffffffffff169060200190929190505050610b6f565b005b3480156103e957600080fd5b5061042c600480360381019080803573ffffffffffffffffffffffffffffffffffffffff169060200190929190803561ffff169060200190929190505050610d43565b005b34801561043a57600080fd5b50610443611099565b60405180826000191660001916815260200191505060405180910390f35b34801561046d57600080fd5b506104a2600480360381019080803573ffffffffffffffffffffffffffffffffffffffff1690602001909291905050506110d2565b604051808215151515815260200191505060405180910390f35b3480156104c857600080fd5b506104d16110dd565b60405180826000191660001916815260200191505060405180910390f35b3480156104fb57600080fd5b50610504611114565b6040518082815260200191505060405180910390f35b34801561052657600080fd5b506105456004803603810190808035906020019092919050505061114b565b005b34801561055357600080fd5b50610588600480360381019080803573ffffffffffffffffffffffffffffffffffffffff1690602001909291905050506112df565b005b34801561059657600080fd5b5061059f6116fd565b6040518082815260200191505060405180910390f35b3480156105c157600080fd5b50610647600480360381019080803573ffffffffffffffffffffffffffffffffffffffff169060200190929190803560001916906020019092919080359060200190820180359060200190808060200260200160405190810160405280939291908181526020018383602002808284378201915050505050509192919290505050611703565b604051808215151515815260200191505060405180910390f35b34801561066d57600080fd5b506106766118ff565b604051808273ffffffffffffffffffffffffffffffffffffffff1673ffffffffffffffffffffffffffffffffffffffff16815260200191505060405180910390f35b3480156106c457600080fd5b5061073f600480360381019080803573ffffffffffffffffffffffffffffffffffffffff169060200190929190803590602001908201803590602001908080601f0160208091040260200160405190810160405280939291908181526020018383808284378201915050505050509192919290505050611a1a565b604051808215151515815260200191505060405180910390f35b34801561076557600080fd5b506107b8600480360381019080803573ffffffffffffffffffffffffffffffffffffffff16906020019092919080359060200190929190803567ffffffffffffffff169060200190929190505050611a8e565b005b3480156107c657600080fd5b506107cf611bf6565b604051808273ffffffffffffffffffffffffffffffffffffffff1673ffffffffffffffffffffffffffffffffffffffff16815260200191505060405180910390f35b34801561081d57600080fd5b50610878600480360381019080803590602001908201803590602001908080601f0160208091040260200160405190810160405280939291908181526020018383808284378201915050505050509192919290505050611c2d565b005b34801561088657600080fd5b5061088f611dfd565b604051808215151515815260200191505060405180910390f35b3480156108b557600080fd5b506108be611e2e565b604051808215151515815260200191505060405180910390f35b6000806108e3611114565b9050600081141580156108fd5750806108fa611e37565b10155b91505090565b600160009054906101000a900467ffffffffffffffff1681565b60405180807f5345545f4455524154494f4e5f524f4c450000000000000000000000000000008152506011019050604051809103902081565b60006109606118ff565b73ffffffffffffffffffffffffffffffffffffffff166304bf2a7f836040518263ffffffff167c01000000000000000000000000000000000000000000000000000000000281526004018080602001828103825283818151815260200191508051906020019080838360005b838110156109e75780820151818401526020810190506109cc565b50505050905090810190601f168015610a145780820380516001836020036101000a031916815260200191505b5092505050602060405180830381600087803b158015610a3357600080fd5b505af1158015610a47573d6000803e3d6000fd5b505050506040513d6020811015610a5d57600080fd5b81019080805190602001909291905050509050919050565b600160089054906101000a900473ffffffffffffffffffffffffffffffffffffffff1681565b6000610aa5611bf6565b73ffffffffffffffffffffffffffffffffffffffff166332f0a3b56040518163ffffffff167c0100000000000000000000000000000000000000000000000000000000028152600401602060405180830381600087803b158015610b0857600080fd5b505af1158015610b1c573d6000803e3d6000fd5b505050506040513d6020811015610b3257600080fd5b8101908080519060200190929190505050905090565b60026020528060005260406000206000915054906101000a900467ffffffffffffffff1681565b60405180807f5345545f4455524154494f4e5f524f4c4500000000000000000000000000000081525060110190506040518091039020610be033826000604051908082528060200260200182016040528015610bda5781602001602082028038833980820191505090505b50611703565b6040805190810160405280600f81526020017f4150505f415554485f4641494c45440000000000000000000000000000000000815250901515610cbe576040517f08c379a00000000000000000000000000000000000000000000000000000000081526004018080602001828103825283818151815260200191508051906020019080838360005b83811015610c83578082015181840152602081019050610c68565b50505050905090810190601f168015610cb05780820380516001836020036101000a031916815260200191505b509250505060405180910390fd5b5081600160006101000a81548167ffffffffffffffff021916908367ffffffffffffffff1602179055507f9771dcd88da06c5d793ea0f12967f1054cc82bf08b1f0fba39567aaf3ecb87a3600160009054906101000a900467ffffffffffffffff16604051808267ffffffffffffffff16815260200191505060405180910390a15050565b6000600160089054906101000a900473ffffffffffffffffffffffffffffffffffffffff1673ffffffffffffffffffffffffffffffffffffffff16639dc29fac336000548561ffff16026040518363ffffffff167c0100000000000000000000000000000000000000000000000000000000028152600401808373ffffffffffffffffffffffffffffffffffffffff1673ffffffffffffffffffffffffffffffffffffffff16815260200182815260200192505050600060405180830381600087803b158015610e1257600080fd5b505af1158015610e26573d6000803e3d6000fd5b505050504290508067ffffffffffffffff16600260008573ffffffffffffffffffffffffffffffffffffffff1673ffffffffffffffffffffffffffffffffffffffff16815260200190815260200160002060009054906101000a900467ffffffffffffffff1667ffffffffffffffff161115610ef357600260008473ffffffffffffffffffffffffffffffffffffffff1673ffffffffffffffffffffffffffffffffffffffff16815260200190815260200160002060009054906101000a900467ffffffffffffffff1690505b610f46610f2d600160009054906101000a900467ffffffffffffffff168461ffff1667ffffffffffffffff16611e3f90919063ffffffff16565b8267ffffffffffffffff16611f5090919063ffffffff16565b600260008573ffffffffffffffffffffffffffffffffffffffff1673ffffffffffffffffffffffffffffffffffffffff16815260200190815260200160002060006101000a81548167ffffffffffffffff021916908367ffffffffffffffff1602179055508273ffffffffffffffffffffffffffffffffffffffff167f220fbaf9a68a6476b8e93e08bb41b5a6813097dad659462a9a41af1a5379d9fe33600260008773ffffffffffffffffffffffffffffffffffffffff1673ffffffffffffffffffffffffffffffffffffffff16815260200190815260200160002060009054906101000a900467ffffffffffffffff16604051808373ffffffffffffffffffffffffffffffffffffffff1673ffffffffffffffffffffffffffffffffffffffff1681526020018267ffffffffffffffff1667ffffffffffffffff1681526020019250505060405180910390a2505050565b60405180807f5345545f50524943455f524f4c45000000000000000000000000000000000000815250600e019050604051809103902081565b600060019050919050565b600061110f7fd625496217aa6a3453eecb9c3489dc5a53e6c67b444329ea2b2cbc9ff547639b60010260001916612059565b905090565b60006111467febb05b386a8d34882b8711d156f463690983dc47815980fb82aeeff1aa43579e60010260001916612064565b905090565b60405180807f5345545f50524943455f524f4c45000000000000000000000000000000000000815250600e01905060405180910390206111bc338260006040519080825280602002602001820160405280156111b65781602001602082028038833980820191505090505b50611703565b6040805190810160405280600f81526020017f4150505f415554485f4641494c4544000000000000000000000000000000000081525090151561129a576040517f08c379a00000000000000000000000000000000000000000000000000000000081526004018080602001828103825283818151815260200191508051906020019080838360005b8381101561125f578082015181840152602081019050611244565b50505050905090810190601f16801561128c5780820380516001836020036101000a031916815260200191505b509250505060405180910390fd5b50816000819055507ff347ee99503bf19c028bd6b18f3c676e82a9bb5b2bb5225aebe0fd62fd6a0d196000546040518082815260200191505060405180910390a15050565b60008060006112ed846110d2565b6040805190810160405280601281526020017f5245434f5645525f444953414c4c4f57454400000000000000000000000000008152509015156113cb576040517f08c379a00000000000000000000000000000000000000000000000000000000081526004018080602001828103825283818151815260200191508051906020019080838360005b83811015611390578082015181840152602081019050611375565b50505050905090810190601f1680156113bd5780820380516001836020036101000a031916815260200191505b509250505060405180910390fd5b506113d4610a9b565b92506113df8361206f565b6040805190810160405280601a81526020017f5245434f5645525f5641554c545f4e4f545f434f4e54524143540000000000008152509015156114bd576040517f08c379a00000000000000000000000000000000000000000000000000000000081526004018080602001828103825283818151815260200191508051906020019080838360005b83811015611482578082015181840152602081019050611467565b50505050905090810190601f1680156114af5780820380516001836020036101000a031916815260200191505b509250505060405180910390fd5b50600073ffffffffffffffffffffffffffffffffffffffff168473ffffffffffffffffffffffffffffffffffffffff161415611559573073ffffffffffffffffffffffffffffffffffffffff163191508273ffffffffffffffffffffffffffffffffffffffff166108fc839081150290604051600060405180830381858888f19350505050158015611553573d6000803e3d6000fd5b50611692565b839050611585308273ffffffffffffffffffffffffffffffffffffffff166120c190919063ffffffff16565b91506115b283838373ffffffffffffffffffffffffffffffffffffffff1661229b9092919063ffffffff16565b6040805190810160405280601d81526020017f5245434f5645525f544f4b454e5f5452414e534645525f4641494c4544000000815250901515611690576040517f08c379a00000000000000000000000000000000000000000000000000000000081526004018080602001828103825283818151815260200191508051906020019080838360005b8381101561165557808201518184015260208101905061163a565b50505050905090810190601f1680156116825780820380516001836020036101000a031916815260200191505b509250505060405180910390fd5b505b8373ffffffffffffffffffffffffffffffffffffffff168373ffffffffffffffffffffffffffffffffffffffff167f596caf56044b55fb8c4ca640089bbc2b63cae3e978b851f5745cbb7c5b288e02846040518082815260200191505060405180910390a350505050565b60005481565b60008061170e6108d8565b151561171d57600091506118f7565b611725611bf6565b9050600073ffffffffffffffffffffffffffffffffffffffff168173ffffffffffffffffffffffffffffffffffffffff16141561176557600091506118f7565b8073ffffffffffffffffffffffffffffffffffffffff1663fdef910686308761178d8861237b565b6040518563ffffffff167c0100000000000000000000000000000000000000000000000000000000028152600401808573ffffffffffffffffffffffffffffffffffffffff1673ffffffffffffffffffffffffffffffffffffffff1681526020018473ffffffffffffffffffffffffffffffffffffffff1673ffffffffffffffffffffffffffffffffffffffff168152602001836000191660001916815260200180602001828103825283818151815260200191508051906020019080838360005b8381101561186a57808201518184015260208101905061184f565b50505050905090810190601f1680156118975780820380516001836020036101000a031916815260200191505b5095505050505050602060405180830381600087803b1580156118b957600080fd5b505af11580156118cd573d6000803e3d6000fd5b505050506040513d60208110156118e357600080fd5b810190808051906020019092919050505091505b509392505050565b60008061190a611bf6565b73ffffffffffffffffffffffffffffffffffffffff1663be00bbd87fd6f028ca0e8edb4a8c9757ca4fdccab25fa1e0317da1188108f7d2dee14902fb6001027fddbcfd564f642ab5627cf68b9b7d374fb4f8a36e941a75d89c87998cef03bd616001026040518363ffffffff167c0100000000000000000000000000000000000000000000000000000000028152600401808360001916600019168152602001826000191660001916815260200192505050602060405180830381600087803b1580156119d657600080fd5b505af11580156119ea573d6000803e3d6000fd5b505050506040513d6020811015611a0057600080fd5b810190808051906020019092919050505090508091505090565b60004267ffffffffffffffff16600260008573ffffffffffffffffffffffffffffffffffffffff1673ffffffffffffffffffffffffffffffffffffffff16815260200190815260200160002060009054906101000a900467ffffffffffffffff1667ffffffffffffffff1611905092915050565b6000611a98611114565b146040805190810160405280601881526020017f494e49545f414c52454144595f494e495449414c495a45440000000000000000815250901515611b77576040517f08c379a00000000000000000000000000000000000000000000000000000000081526004018080602001828103825283818151815260200191508051906020019080838360005b83811015611b3c578082015181840152602081019050611b21565b50505050905090810190601f168015611b695780820380516001836020036101000a031916815260200191505b509250505060405180910390fd5b50611b80612392565b82600160086101000a81548173ffffffffffffffffffffffffffffffffffffffff021916908373ffffffffffffffffffffffffffffffffffffffff1602179055508160008190555080600160006101000a81548167ffffffffffffffff021916908367ffffffffffffffff160217905550505050565b6000611c287f4172f0f7d2289153072b0a6ca36959e0cbe2efc3afe50fc81636caa96338137b600102600019166124bf565b905090565b6060611c393383611a1a565b6040805190810160405280600a81526020017f5045524d495353494f4e00000000000000000000000000000000000000000000815250901515611d17576040517f08c379a00000000000000000000000000000000000000000000000000000000081526004018080602001828103825283818151815260200191508051906020019080838360005b83811015611cdc578082015181840152602081019050611cc1565b50505050905090810190601f168015611d095780820380516001836020036101000a031916815260200191505b509250505060405180910390fd5b506001604051908082528060200260200182016040528015611d485781602001602082028038833980820191505090505b509050600160089054906101000a900473ffffffffffffffffffffffffffffffffffffffff16816000815181101515611d7d57fe5b9060200190602002019073ffffffffffffffffffffffffffffffffffffffff16908173ffffffffffffffffffffffffffffffffffffffff1681525050611df88260006040519080825280601f01601f191660200182016040528015611df15781602001602082028038833980820191505090505b50836124ca565b505050565b60007fffffffffffffffffffffffffffffffffffffffffffffffffffffffffffffffff611e28611114565b14905090565b60006001905090565b600043905090565b6000808267ffffffffffffffff168467ffffffffffffffff160290506801000000000000000081106040805190810160405280601381526020017f4d41544836345f4d554c5f4f564552464c4f5700000000000000000000000000815250901515611f45576040517f08c379a00000000000000000000000000000000000000000000000000000000081526004018080602001828103825283818151815260200191508051906020019080838360005b83811015611f0a578082015181840152602081019050611eef565b50505050905090810190601f168015611f375780820380516001836020036101000a031916815260200191505b509250505060405180910390fd5b508091505092915050565b60008082840190508367ffffffffffffffff168167ffffffffffffffff1610156040805190810160405280601381526020017f4d41544836345f4144445f4f564552464c4f570000000000000000000000000081525090151561204e576040517f08c379a00000000000000000000000000000000000000000000000000000000081526004018080602001828103825283818151815260200191508051906020019080838360005b83811015612013578082015181840152602081019050611ff8565b50505050905090810190601f1680156120405780820380516001836020036101000a031916815260200191505b509250505060405180910390fd5b508091505092915050565b600081549050919050565b600081549050919050565b600080600073ffffffffffffffffffffffffffffffffffffffff168373ffffffffffffffffffffffffffffffffffffffff1614156120b057600091506120bb565b823b90506000811191505b50919050565b600060606000808573ffffffffffffffffffffffffffffffffffffffff166370a0823190507c01000000000000000000000000000000000000000000000000000000000285604051602401808273ffffffffffffffffffffffffffffffffffffffff1673ffffffffffffffffffffffffffffffffffffffff168152602001915050604051602081830303815290604052907bffffffffffffffffffffffffffffffffffffffffffffffffffffffff19166020820180517bffffffffffffffffffffffffffffffffffffffffffffffffffffffff838183161783525050505092506121ab8684612d01565b91509150816040805190810160405280601c81526020017f534146455f4552435f32305f42414c414e43455f52455645525445440000000081525090151561228e576040517f08c379a00000000000000000000000000000000000000000000000000000000081526004018080602001828103825283818151815260200191508051906020019080838360005b83811015612253578082015181840152602081019050612238565b50505050905090810190601f1680156122805780820380516001836020036101000a031916815260200191505b509250505060405180910390fd5b5080935050505092915050565b6000606063a9059cbb7c0100000000000000000000000000000000000000000000000000000000028484604051602401808373ffffffffffffffffffffffffffffffffffffffff1673ffffffffffffffffffffffffffffffffffffffff16815260200182815260200192505050604051602081830303815290604052907bffffffffffffffffffffffffffffffffffffffffffffffffffffffff19166020820180517bffffffffffffffffffffffffffffffffffffffffffffffffffffffff838183161783525050505090506123718582612d36565b9150509392505050565b606060006020835102905082915080825250919050565b600061239c611114565b146040805190810160405280601881526020017f494e49545f414c52454144595f494e495449414c495a4544000000000000000081525090151561247b576040517f08c379a00000000000000000000000000000000000000000000000000000000081526004018080602001828103825283818151815260200191508051906020019080838360005b83811015612440578082015181840152602081019050612425565b50505050905090810190601f16801561246d5780820380516001836020036101000a031916815260200191505b509250505060405180910390fd5b506124bd612487611e37565b7febb05b386a8d34882b8711d156f463690983dc47815980fb82aeeff1aa43579e60010260001916612d8890919063ffffffff16565b565b600081549050919050565b60606000806060806124da6108d8565b6040805190810160405280601481526020017f494e49545f4e4f545f494e495449414c495a45440000000000000000000000008152509015156125b8576040517f08c379a00000000000000000000000000000000000000000000000000000000081526004018080602001828103825283818151815260200191508051906020019080838360005b8381101561257d578082015181840152602081019050612562565b50505050905090810190601f1680156125aa5780820380516001836020036101000a031916815260200191505b509250505060405180910390fd5b506000806125c4611bf6565b91506125ce6110dd565b90506125d98a610956565b9550600073ffffffffffffffffffffffffffffffffffffffff168673ffffffffffffffffffffffffffffffffffffffff1614156040805190810160405280601b81526020017f45564d52554e5f4558454355544f525f554e415641494c41424c4500000000008152509015156126ea576040517f08c379a00000000000000000000000000000000000000000000000000000000081526004018080602001828103825283818151815260200191508051906020019080838360005b838110156126af578082015181840152602081019050612694565b50505050905090810190601f1680156126dc5780820380516001836020036101000a031916815260200191505b509250505060405180910390fd5b508573ffffffffffffffffffffffffffffffffffffffff1663279cea3590507c0100000000000000000000000000000000000000000000000000000000029450848a8a8a60405160240180806020018060200180602001848103845287818151815260200191508051906020019080838360005b8381101561277957808201518184015260208101905061275e565b50505050905090810190601f1680156127a65780820380516001836020036101000a031916815260200191505b50848103835286818151815260200191508051906020019080838360005b838110156127df5780820151818401526020810190506127c4565b50505050905090810190601f16801561280c5780820380516001836020036101000a031916815260200191505b50848103825285818151815260200191508051906020019060200280838360005b8381101561284857808201518184015260208101905061282d565b505050509050019650505050505050604051602081830303815290604052907bffffffffffffffffffffffffffffffffffffffffffffffffffffffff19166020820180517bffffffffffffffffffffffffffffffffffffffffffffffffffffffff83818316178352505050509350600080855160208701895af46040519350806000811461295357603f3d11600081146128f15760203d03806020883e8087016040525061294d565b7f08c379a000000000000000000000000000000000000000000000000000000000865260206004870152601e60248701527f45564d52554e5f4558454355544f525f494e56414c49445f52455455524e00006044870152606486fd5b5061295c565b3d6000863e3d85fd5b50508573ffffffffffffffffffffffffffffffffffffffff167f5229a5dba83a54ae8cb5b51bdd6de9474cacbe9dd332f5185f3a4f4f2e3f4ad98b8b8660405180806020018060200180602001848103845287818151815260200191508051906020019080838360005b838110156129e15780820151818401526020810190506129c6565b50505050905090810190601f168015612a0e5780820380516001836020036101000a031916815260200191505b50848103835286818151815260200191508051906020019080838360005b83811015612a47578082015181840152602081019050612a2c565b50505050905090810190601f168015612a745780820380516001836020036101000a031916815260200191505b50848103825285818151815260200191508051906020019080838360005b83811015612aad578082015181840152602081019050612a92565b50505050905090810190601f168015612ada5780820380516001836020036101000a031916815260200191505b50965050505050505060405180910390a28296508173ffffffffffffffffffffffffffffffffffffffff16612b0d611bf6565b73ffffffffffffffffffffffffffffffffffffffff16146040805190810160405280601f81526020017f45564d52554e5f50524f5445435445445f53544154455f4d4f44494649454400815250901515612c02576040517f08c379a00000000000000000000000000000000000000000000000000000000081526004018080602001828103825283818151815260200191508051906020019080838360005b83811015612bc7578082015181840152602081019050612bac565b50505050905090810190601f168015612bf45780820380516001836020036101000a031916815260200191505b509250505060405180910390fd5b508060001916612c106110dd565b60001916146040805190810160405280601f81526020017f45564d52554e5f50524f5445435445445f53544154455f4d4f44494649454400815250901515612cf3576040517f08c379a00000000000000000000000000000000000000000000000000000000081526004018080602001828103825283818151815260200191508051906020019080838360005b83811015612cb8578082015181840152602081019050612c9d565b50505050905090810190601f168015612ce55780820380516001836020036101000a031916815260200191505b509250505060405180910390fd5b505050505050509392505050565b6000806000806040516020818751602089018a5afa92506000831115612d2657805191505b5081819350935050509250929050565b6000806040516020818551602087016000895af16000811115612d7c573d60008114612d695760208114612d7257612d7a565b60019350612d7a565b600183511493505b505b50508091505092915050565b80825550505600a165627a7a723058207132afd207539c9ba116e8bf61754e354b3624e9481196604854425b881e8e4a0029",
  "source": "pragma solidity ^0.4.24;\n\nimport \"@aragon/os/contracts/apps/AragonApp.sol\";\nimport \"@aragon/os/contracts/common/IForwarder.sol\";\nimport \"@aragon/os/contracts/lib/math/SafeMath64.sol\";\nimport \"@aragon/apps-token-manager/contracts/TokenManager.sol\";\n\ncontract Subscribe is IForwarder, AragonApp {\n    using SafeMath64 for uint64;\n\n    /// Events\n    event Subscribe(address indexed subscriber, address purchaser, uint64 expiration);\n    event PriceChange(uint price);\n    event DurationChange(uint duration);\n\n    uint public price;\n    uint64 public duration;\n    TokenManager public tokenManager;\n    mapping(address => uint64) public expirations;\n\n    /// ACL\n    /* bytes32 constant public SUBSCRIBE_ROLE = keccak256(\"SUBSCRIBE_ROLE\"); */\n    bytes32 constant public SET_PRICE_ROLE = keccak256(\"SET_PRICE_ROLE\");\n    bytes32 constant public SET_DURATION_ROLE = keccak256(\"SET_DURATION_ROLE\");\n\n    string private constant ERROR_PERMISSION = \"PERMISSION\";\n\n    function initialize(TokenManager _tokenManager, uint _price, uint64 _duration) onlyInit public {\n        initialized();\n        tokenManager = _tokenManager;\n        price = _price;\n        duration = _duration;\n    }\n\n    /* function subscribe(address _subscriber, uint16 _units) authP(SUBSCRIBE_ROLE, arr(_subscriber)) public { */\n    function subscribe(address _subscriber, uint16 _units) public {\n        tokenManager.burn(msg.sender, _units*price);\n        uint64 start = uint64(now);\n        if(expirations[_subscriber] > start)\n            start = expirations[_subscriber];\n        expirations[_subscriber] = start.add(uint64(_units).mul(duration));\n        emit Subscribe(_subscriber, msg.sender, expirations[_subscriber]);\n    }\n\n    function setPrice(uint _price) auth(SET_PRICE_ROLE) public {\n        price = _price;\n        emit PriceChange(price);\n    }\n\n    function setDuration(uint64 _duration) auth(SET_DURATION_ROLE) public {\n        duration = _duration;\n        emit DurationChange(duration);\n    }\n\n    /**\n    * @notice Execute action based on active subscription\n    * @dev IForwarder interface conformance\n    * @param _evmScript Start proposal with script\n    */\n    function forward(bytes _evmScript) public {\n        require(canForward(msg.sender, _evmScript), ERROR_PERMISSION);\n\n        // Add the tokenManager to the blacklist to disallow a subscriber from\n        // executing MINT/BURN on this contract's behalf\n        address[] memory blacklist = new address[](1);\n        blacklist[0] = address(tokenManager);\n\n        runScript(_evmScript, new bytes(0), blacklist);\n    }\n\n    function canForward(address _sender, bytes) public view returns (bool) {\n        return expirations[_sender] > uint64(now);\n    }\n\n    function isForwarder() public pure returns (bool) {\n        return true;\n    }\n}\n",
  "sourcePath": "@daonuts/subscribe-app/contracts/Subscribe.sol",
  "compiler": {
    "name": "solc",
    "version": "0.4.24+commit.e67f0147.Emscripten.clang"
  },
  "schemaVersion": "2.0.1",
  "updatedAt": "2019-10-24T23:13:02.120Z"
}