{
  "contractName": "Template",
  "abi": [
    {
      "constant": true,
      "inputs": [],
      "name": "ens",
      "outputs": [
        {
          "name": "",
          "type": "address"
        }
      ],
      "payable": false,
      "stateMutability": "view",
      "type": "function"
    },
    {
      "constant": true,
      "inputs": [],
      "name": "fac",
      "outputs": [
        {
          "name": "",
          "type": "address"
        }
      ],
      "payable": false,
      "stateMutability": "view",
      "type": "function"
    },
    {
      "constant": true,
      "inputs": [
        {
          "name": "appId",
          "type": "bytes32"
        }
      ],
      "name": "latestVersionAppBase",
      "outputs": [
        {
          "name": "base",
          "type": "address"
        }
      ],
      "payable": false,
      "stateMutability": "view",
      "type": "function"
    },
    {
      "inputs": [
        {
          "name": "ens",
          "type": "address"
        }
      ],
      "payable": false,
      "stateMutability": "nonpayable",
      "type": "constructor"
    },
    {
      "anonymous": false,
      "inputs": [
        {
          "indexed": false,
          "name": "dao",
          "type": "address"
        }
      ],
      "name": "DeployDao",
      "type": "event"
    },
    {
      "anonymous": false,
      "inputs": [
        {
          "indexed": false,
          "name": "appProxy",
          "type": "address"
        },
        {
          "indexed": false,
          "name": "appId",
          "type": "bytes32"
        }
      ],
      "name": "InstalledApp",
      "type": "event"
    },
    {
      "constant": false,
      "inputs": [
        {
          "name": "_name",
          "type": "string"
        },
        {
          "name": "decimals",
          "type": "uint8"
        },
        {
          "name": "_symbol",
          "type": "string"
        },
        {
          "name": "_transferable",
          "type": "bool"
        }
      ],
      "name": "createToken",
      "outputs": [],
      "payable": false,
      "stateMutability": "nonpayable",
      "type": "function"
    },
    {
      "constant": false,
      "inputs": [
        {
          "name": "_holders",
          "type": "address[]"
        }
      ],
      "name": "newInstance",
      "outputs": [],
      "payable": false,
      "stateMutability": "nonpayable",
      "type": "function"
    }
  ],
  "bytecode": "0x60806040523480156200001157600080fd5b5060405160208062006ba583398101806040528101908080519060200190929190505050600081600081600160006101000a81548173ffffffffffffffffffffffffffffffffffffffff021916908373ffffffffffffffffffffffffffffffffffffffff160217905550600073ffffffffffffffffffffffffffffffffffffffff168373ffffffffffffffffffffffffffffffffffffffff1614156200020357620001006040805190810160405280600881526020017f626172652d6b6974000000000000000000000000000000000000000000000000815250620002b7640100000000026401000000009004565b90506200011c81620003e3640100000000026401000000009004565b73ffffffffffffffffffffffffffffffffffffffff1663c3b314726040518163ffffffff167c0100000000000000000000000000000000000000000000000000000000028152600401602060405180830381600087803b1580156200018057600080fd5b505af115801562000195573d6000803e3d6000fd5b505050506040513d6020811015620001ac57600080fd5b8101908080519060200190929190505050600260006101000a81548173ffffffffffffffffffffffffffffffffffffffff021916908373ffffffffffffffffffffffffffffffffffffffff16021790555062000245565b82600260006101000a81548173ffffffffffffffffffffffffffffffffffffffff021916908373ffffffffffffffffffffffffffffffffffffffff1602179055505b505050620002526200068f565b604051809103906000f0801580156200026f573d6000803e3d6000fd5b50600360006101000a81548173ffffffffffffffffffffffffffffffffffffffff021916908373ffffffffffffffffffffffffffffffffffffffff16021790555050620006a0565b60007f9065c3e7f7b7ef1ef4e53d2d0b8e0cef02874ab020c1ece79d5f0d3d0111c0ba600102826040518082805190602001908083835b602083101515620003155780518252602082019150602081019050602083039250620002ee565b6001836020036101000a03801982511681845116808217855250505050505090500191505060405180910390206040516020018083600019166000191681526020018260001916600019168152602001925050506040516020818303038152906040526040518082805190602001908083835b602083101515620003af578051825260208201915060208101905060208303925062000388565b6001836020036101000a03801982511681845116808217855250505050505090500191505060405180910390209050919050565b600080600160009054906101000a900473ffffffffffffffffffffffffffffffffffffffff1673ffffffffffffffffffffffffffffffffffffffff16630178b8bf846040518263ffffffff167c0100000000000000000000000000000000000000000000000000000000028152600401808260001916600019168152602001915050602060405180830381600087803b1580156200048057600080fd5b505af115801562000495573d6000803e3d6000fd5b505050506040513d6020811015620004ac57600080fd5b810190808051906020019092919050505073ffffffffffffffffffffffffffffffffffffffff16633b3b57de846040518263ffffffff167c0100000000000000000000000000000000000000000000000000000000028152600401808260001916600019168152602001915050602060405180830381600087803b1580156200053457600080fd5b505af115801562000549573d6000803e3d6000fd5b505050506040513d60208110156200056057600080fd5b810190808051906020019092919050505090508073ffffffffffffffffffffffffffffffffffffffff1663c36af4606040518163ffffffff167c0100000000000000000000000000000000000000000000000000000000028152600401600060405180830381600087803b158015620005d857600080fd5b505af1158015620005ed573d6000803e3d6000fd5b505050506040513d6000823e3d601f19601f8201168201806040525060a08110156200061857600080fd5b810190809190826060018051906020019092919080516401000000008111156200064157600080fd5b828101905060208101848111156200065857600080fd5b81518560018202830111640100000000821117156200067657600080fd5b5050929190505050909150508092505081915050919050565b6040516132bb80620038ea83390190565b61323a80620006b06000396000f30060806040526004361061006d576000357c0100000000000000000000000000000000000000000000000000000000900463ffffffff1680633f15457f1461007257806391daf227146100c95780639f6f247714610191578063c3b31472146101f7578063c6d2c7171461024e575b600080fd5b34801561007e57600080fd5b506100876102bf565b604051808273ffffffffffffffffffffffffffffffffffffffff1673ffffffffffffffffffffffffffffffffffffffff16815260200191505060405180910390f35b3480156100d557600080fd5b5061018f600480360381019080803590602001908201803590602001908080601f0160208091040260200160405190810160405280939291908181526020018383808284378201915050505050509192919290803560ff169060200190929190803590602001908201803590602001908080601f01602080910402602001604051908101604052809392919081815260200183838082843782019150505050505091929192908035151590602001909291905050506102e5565b005b34801561019d57600080fd5b506101f5600480360381019080803590602001908201803590602001908080602002602001604051908101604052809392919081815260200183836020028082843782019150505050505091929192905050506104ef565b005b34801561020357600080fd5b5061020c612868565b604051808273ffffffffffffffffffffffffffffffffffffffff1673ffffffffffffffffffffffffffffffffffffffff16815260200191505060405180910390f35b34801561025a57600080fd5b5061027d600480360381019080803560001916906020019092919050505061288e565b604051808273ffffffffffffffffffffffffffffffffffffffff1673ffffffffffffffffffffffffffffffffffffffff16815260200191505060405180910390f35b600160009054906101000a900473ffffffffffffffffffffffffffffffffffffffff1681565b6000600360009054906101000a900473ffffffffffffffffffffffffffffffffffffffff1673ffffffffffffffffffffffffffffffffffffffff16635b7b72c1600080888888886040518763ffffffff167c0100000000000000000000000000000000000000000000000000000000028152600401808773ffffffffffffffffffffffffffffffffffffffff1673ffffffffffffffffffffffffffffffffffffffff168152602001868152602001806020018560ff1660ff1681526020018060200184151515158152602001838103835287818151815260200191508051906020019080838360005b838110156103e95780820151818401526020810190506103ce565b50505050905090810190601f1680156104165780820380516001836020036101000a031916815260200191505b50838103825285818151815260200191508051906020019080838360005b8381101561044f578082015181840152602081019050610434565b50505050905090810190601f16801561047c5780820380516001836020036101000a031916815260200191505b5098505050505050505050602060405180830381600087803b1580156104a157600080fd5b505af11580156104b5573d6000803e3d6000fd5b505050506040513d60208110156104cb57600080fd5b810190808051906020019092919050505090506104e88133612b2e565b5050505050565b600080600080600080600080600080600260009054906101000a900473ffffffffffffffffffffffffffffffffffffffff1673ffffffffffffffffffffffffffffffffffffffff166321687444306040518263ffffffff167c0100000000000000000000000000000000000000000000000000000000028152600401808273ffffffffffffffffffffffffffffffffffffffff1673ffffffffffffffffffffffffffffffffffffffff168152602001915050602060405180830381600087803b1580156105bb57600080fd5b505af11580156105cf573d6000803e3d6000fd5b505050506040513d60208110156105e557600080fd5b810190808051906020019092919050505099508973ffffffffffffffffffffffffffffffffffffffff1663de2873596040518163ffffffff167c0100000000000000000000000000000000000000000000000000000000028152600401602060405180830381600087803b15801561065c57600080fd5b505af1158015610670573d6000803e3d6000fd5b505050506040513d602081101561068657600080fd5b810190808051906020019092919050505098508873ffffffffffffffffffffffffffffffffffffffff1663be038478308c8d73ffffffffffffffffffffffffffffffffffffffff16638ea8dc9d6040518163ffffffff167c0100000000000000000000000000000000000000000000000000000000028152600401602060405180830381600087803b15801561071b57600080fd5b505af115801561072f573d6000803e3d6000fd5b505050506040513d602081101561074557600080fd5b8101908080519060200190929190505050306040518563ffffffff167c0100000000000000000000000000000000000000000000000000000000028152600401808573ffffffffffffffffffffffffffffffffffffffff1673ffffffffffffffffffffffffffffffffffffffff1681526020018473ffffffffffffffffffffffffffffffffffffffff1673ffffffffffffffffffffffffffffffffffffffff16815260200183600019166000191681526020018273ffffffffffffffffffffffffffffffffffffffff1673ffffffffffffffffffffffffffffffffffffffff168152602001945050505050600060405180830381600087803b15801561084a57600080fd5b505af115801561085e573d6000803e3d6000fd5b505050506108a06040805190810160405280600481526020017f6f70656e00000000000000000000000000000000000000000000000000000000815250612d8a565b60405180807f61697264726f702d617070000000000000000000000000000000000000000000815250600b01905060405180910390206040516020018083600019166000191681526020018260001916600019168152602001925050506040516020818303038152906040526040518082805190602001908083835b602083101515610941578051825260208201915060208101905060208303925061091c565b6001836020036101000a038019825116818451168082178552505050505050905001915050604051809103902097506109ae6040805190810160405280600681526020017f766f74696e670000000000000000000000000000000000000000000000000000815250612d8a565b96506109ee6040805190810160405280600d81526020017f746f6b656e2d6d616e6167657200000000000000000000000000000000000000815250612d8a565b95508973ffffffffffffffffffffffffffffffffffffffff166380cd5ac389610a168b61288e565b6040518363ffffffff167c01000000000000000000000000000000000000000000000000000000000281526004018083600019166000191681526020018273ffffffffffffffffffffffffffffffffffffffff1673ffffffffffffffffffffffffffffffffffffffff16815260200192505050602060405180830381600087803b158015610aa357600080fd5b505af1158015610ab7573d6000803e3d6000fd5b505050506040513d6020811015610acd57600080fd5b810190808051906020019092919050505094508973ffffffffffffffffffffffffffffffffffffffff166380cd5ac388610b068a61288e565b6040518363ffffffff167c01000000000000000000000000000000000000000000000000000000000281526004018083600019166000191681526020018273ffffffffffffffffffffffffffffffffffffffff1673ffffffffffffffffffffffffffffffffffffffff16815260200192505050602060405180830381600087803b158015610b9357600080fd5b505af1158015610ba7573d6000803e3d6000fd5b505050506040513d6020811015610bbd57600080fd5b810190808051906020019092919050505093508973ffffffffffffffffffffffffffffffffffffffff166380cd5ac387610bf68961288e565b6040518363ffffffff167c01000000000000000000000000000000000000000000000000000000000281526004018083600019166000191681526020018273ffffffffffffffffffffffffffffffffffffffff1673ffffffffffffffffffffffffffffffffffffffff16815260200192505050602060405180830381600087803b158015610c8357600080fd5b505af1158015610c97573d6000803e3d6000fd5b505050506040513d6020811015610cad57600080fd5b81019080805190602001909291905050509250610cff336040805190810160405280600881526020017f477561726469616e000000000000000000000000000000000000000000000000815250612eb2565b91508173ffffffffffffffffffffffffffffffffffffffff16633cebb823846040518263ffffffff167c0100000000000000000000000000000000000000000000000000000000028152600401808273ffffffffffffffffffffffffffffffffffffffff1673ffffffffffffffffffffffffffffffffffffffff168152602001915050600060405180830381600087803b158015610d9c57600080fd5b505af1158015610db0573d6000803e3d6000fd5b505050508273ffffffffffffffffffffffffffffffffffffffff1663e37ff29f836000806040518463ffffffff167c0100000000000000000000000000000000000000000000000000000000028152600401808473ffffffffffffffffffffffffffffffffffffffff1673ffffffffffffffffffffffffffffffffffffffff168152602001831515151581526020018281526020019350505050600060405180830381600087803b158015610e6457600080fd5b505af1158015610e78573d6000803e3d6000fd5b505050507f2b183a501d4b1bbd30e6611ebac40ab18a00390e6c6bed324bf92a265c9ce6e38387604051808373ffffffffffffffffffffffffffffffffffffffff1673ffffffffffffffffffffffffffffffffffffffff16815260200182600019166000191681526020019250505060405180910390a18373ffffffffffffffffffffffffffffffffffffffff1663df3d330583670853a0d2313c0000670214e8348c4f0000620151806040518563ffffffff167c0100000000000000000000000000000000000000000000000000000000028152600401808573ffffffffffffffffffffffffffffffffffffffff1673ffffffffffffffffffffffffffffffffffffffff1681526020018467ffffffffffffffff1667ffffffffffffffff1681526020018367ffffffffffffffff1667ffffffffffffffff1681526020018267ffffffffffffffff1667ffffffffffffffff168152602001945050505050600060405180830381600087803b158015610ff157600080fd5b505af1158015611005573d6000803e3d6000fd5b505050507f2b183a501d4b1bbd30e6611ebac40ab18a00390e6c6bed324bf92a265c9ce6e38488604051808373ffffffffffffffffffffffffffffffffffffffff1673ffffffffffffffffffffffffffffffffffffffff16815260200182600019166000191681526020019250505060405180910390a18473ffffffffffffffffffffffffffffffffffffffff1663c4d66de8846040518263ffffffff167c0100000000000000000000000000000000000000000000000000000000028152600401808273ffffffffffffffffffffffffffffffffffffffff1673ffffffffffffffffffffffffffffffffffffffff168152602001915050600060405180830381600087803b15801561111757600080fd5b505af115801561112b573d6000803e3d6000fd5b505050507f2b183a501d4b1bbd30e6611ebac40ab18a00390e6c6bed324bf92a265c9ce6e38589604051808373ffffffffffffffffffffffffffffffffffffffff1673ffffffffffffffffffffffffffffffffffffffff16815260200182600019166000191681526020019250505060405180910390a18873ffffffffffffffffffffffffffffffffffffffff1663be03847884868773ffffffffffffffffffffffffffffffffffffffff1663be2c64d46040518163ffffffff167c0100000000000000000000000000000000000000000000000000000000028152600401602060405180830381600087803b15801561122457600080fd5b505af1158015611238573d6000803e3d6000fd5b505050506040513d602081101561124e57600080fd5b8101908080519060200190929190505050886040518563ffffffff167c0100000000000000000000000000000000000000000000000000000000028152600401808573ffffffffffffffffffffffffffffffffffffffff1673ffffffffffffffffffffffffffffffffffffffff1681526020018473ffffffffffffffffffffffffffffffffffffffff1673ffffffffffffffffffffffffffffffffffffffff16815260200183600019166000191681526020018273ffffffffffffffffffffffffffffffffffffffff1673ffffffffffffffffffffffffffffffffffffffff168152602001945050505050600060405180830381600087803b15801561135357600080fd5b505af1158015611367573d6000803e3d6000fd5b505050508873ffffffffffffffffffffffffffffffffffffffff1663be03847885858673ffffffffffffffffffffffffffffffffffffffff1663b930908f6040518163ffffffff167c0100000000000000000000000000000000000000000000000000000000028152600401602060405180830381600087803b1580156113ed57600080fd5b505af1158015611401573d6000803e3d6000fd5b505050506040513d602081101561141757600080fd5b8101908080519060200190929190505050886040518563ffffffff167c0100000000000000000000000000000000000000000000000000000000028152600401808573ffffffffffffffffffffffffffffffffffffffff1673ffffffffffffffffffffffffffffffffffffffff1681526020018473ffffffffffffffffffffffffffffffffffffffff1673ffffffffffffffffffffffffffffffffffffffff16815260200183600019166000191681526020018273ffffffffffffffffffffffffffffffffffffffff1673ffffffffffffffffffffffffffffffffffffffff168152602001945050505050600060405180830381600087803b15801561151c57600080fd5b505af1158015611530573d6000803e3d6000fd5b505050508873ffffffffffffffffffffffffffffffffffffffff1663be03847885878873ffffffffffffffffffffffffffffffffffffffff1663507b40636040518163ffffffff167c0100000000000000000000000000000000000000000000000000000000028152600401602060405180830381600087803b1580156115b657600080fd5b505af11580156115ca573d6000803e3d6000fd5b505050506040513d60208110156115e057600080fd5b8101908080519060200190929190505050886040518563ffffffff167c0100000000000000000000000000000000000000000000000000000000028152600401808573ffffffffffffffffffffffffffffffffffffffff1673ffffffffffffffffffffffffffffffffffffffff1681526020018473ffffffffffffffffffffffffffffffffffffffff1673ffffffffffffffffffffffffffffffffffffffff16815260200183600019166000191681526020018273ffffffffffffffffffffffffffffffffffffffff1673ffffffffffffffffffffffffffffffffffffffff168152602001945050505050600060405180830381600087803b1580156116e557600080fd5b505af11580156116f9573d6000803e3d6000fd5b505050508873ffffffffffffffffffffffffffffffffffffffff1663be03847830858673ffffffffffffffffffffffffffffffffffffffff1663e9a9c8506040518163ffffffff167c0100000000000000000000000000000000000000000000000000000000028152600401602060405180830381600087803b15801561177f57600080fd5b505af1158015611793573d6000803e3d6000fd5b505050506040513d60208110156117a957600080fd5b8101908080519060200190929190505050306040518563ffffffff167c0100000000000000000000000000000000000000000000000000000000028152600401808573ffffffffffffffffffffffffffffffffffffffff1673ffffffffffffffffffffffffffffffffffffffff1681526020018473ffffffffffffffffffffffffffffffffffffffff1673ffffffffffffffffffffffffffffffffffffffff16815260200183600019166000191681526020018273ffffffffffffffffffffffffffffffffffffffff1673ffffffffffffffffffffffffffffffffffffffff168152602001945050505050600060405180830381600087803b1580156118ae57600080fd5b505af11580156118c2573d6000803e3d6000fd5b50505050600090505b8a518110156119bb578273ffffffffffffffffffffffffffffffffffffffff166340c10f198c838151811015156118fe57fe5b90602001906020020151670de0b6b3a76400006040518363ffffffff167c0100000000000000000000000000000000000000000000000000000000028152600401808373ffffffffffffffffffffffffffffffffffffffff1673ffffffffffffffffffffffffffffffffffffffff16815260200182815260200192505050600060405180830381600087803b15801561199657600080fd5b505af11580156119aa573d6000803e3d6000fd5b5050505080806001019150506118cb565b8873ffffffffffffffffffffffffffffffffffffffff16630a8ed3db86858673ffffffffffffffffffffffffffffffffffffffff1663e9a9c8506040518163ffffffff167c0100000000000000000000000000000000000000000000000000000000028152600401602060405180830381600087803b158015611a3d57600080fd5b505af1158015611a51573d6000803e3d6000fd5b505050506040513d6020811015611a6757600080fd5b81019080805190602001909291905050506040518463ffffffff167c0100000000000000000000000000000000000000000000000000000000028152600401808473ffffffffffffffffffffffffffffffffffffffff1673ffffffffffffffffffffffffffffffffffffffff1681526020018373ffffffffffffffffffffffffffffffffffffffff1673ffffffffffffffffffffffffffffffffffffffff16815260200182600019166000191681526020019350505050600060405180830381600087803b158015611b3857600080fd5b505af1158015611b4c573d6000803e3d6000fd5b505050508873ffffffffffffffffffffffffffffffffffffffff16639d0effdb30858673ffffffffffffffffffffffffffffffffffffffff1663e9a9c8506040518163ffffffff167c0100000000000000000000000000000000000000000000000000000000028152600401602060405180830381600087803b158015611bd257600080fd5b505af1158015611be6573d6000803e3d6000fd5b505050506040513d6020811015611bfc57600080fd5b81019080805190602001909291905050506040518463ffffffff167c0100000000000000000000000000000000000000000000000000000000028152600401808473ffffffffffffffffffffffffffffffffffffffff1673ffffffffffffffffffffffffffffffffffffffff1681526020018373ffffffffffffffffffffffffffffffffffffffff1673ffffffffffffffffffffffffffffffffffffffff16815260200182600019166000191681526020019350505050600060405180830381600087803b158015611ccd57600080fd5b505af1158015611ce1573d6000803e3d6000fd5b505050508873ffffffffffffffffffffffffffffffffffffffff1663afd925df85858673ffffffffffffffffffffffffffffffffffffffff1663e9a9c8506040518163ffffffff167c0100000000000000000000000000000000000000000000000000000000028152600401602060405180830381600087803b158015611d6757600080fd5b505af1158015611d7b573d6000803e3d6000fd5b505050506040513d6020811015611d9157600080fd5b81019080805190602001909291905050506040518463ffffffff167c0100000000000000000000000000000000000000000000000000000000028152600401808473ffffffffffffffffffffffffffffffffffffffff1673ffffffffffffffffffffffffffffffffffffffff1681526020018373ffffffffffffffffffffffffffffffffffffffff1673ffffffffffffffffffffffffffffffffffffffff16815260200182600019166000191681526020019350505050600060405180830381600087803b158015611e6257600080fd5b505af1158015611e76573d6000803e3d6000fd5b505050508873ffffffffffffffffffffffffffffffffffffffff16630a8ed3db858c8d73ffffffffffffffffffffffffffffffffffffffff16638ea8dc9d6040518163ffffffff167c0100000000000000000000000000000000000000000000000000000000028152600401602060405180830381600087803b158015611efc57600080fd5b505af1158015611f10573d6000803e3d6000fd5b505050506040513d6020811015611f2657600080fd5b81019080805190602001909291905050506040518463ffffffff167c0100000000000000000000000000000000000000000000000000000000028152600401808473ffffffffffffffffffffffffffffffffffffffff1673ffffffffffffffffffffffffffffffffffffffff1681526020018373ffffffffffffffffffffffffffffffffffffffff1673ffffffffffffffffffffffffffffffffffffffff16815260200182600019166000191681526020019350505050600060405180830381600087803b158015611ff757600080fd5b505af115801561200b573d6000803e3d6000fd5b505050508873ffffffffffffffffffffffffffffffffffffffff16639d0effdb308c8d73ffffffffffffffffffffffffffffffffffffffff16638ea8dc9d6040518163ffffffff167c0100000000000000000000000000000000000000000000000000000000028152600401602060405180830381600087803b15801561209157600080fd5b505af11580156120a5573d6000803e3d6000fd5b505050506040513d60208110156120bb57600080fd5b81019080805190602001909291905050506040518463ffffffff167c0100000000000000000000000000000000000000000000000000000000028152600401808473ffffffffffffffffffffffffffffffffffffffff1673ffffffffffffffffffffffffffffffffffffffff1681526020018373ffffffffffffffffffffffffffffffffffffffff1673ffffffffffffffffffffffffffffffffffffffff16815260200182600019166000191681526020019350505050600060405180830381600087803b15801561218c57600080fd5b505af11580156121a0573d6000803e3d6000fd5b505050508873ffffffffffffffffffffffffffffffffffffffff1663afd925df858c8d73ffffffffffffffffffffffffffffffffffffffff16638ea8dc9d6040518163ffffffff167c0100000000000000000000000000000000000000000000000000000000028152600401602060405180830381600087803b15801561222657600080fd5b505af115801561223a573d6000803e3d6000fd5b505050506040513d602081101561225057600080fd5b81019080805190602001909291905050506040518463ffffffff167c0100000000000000000000000000000000000000000000000000000000028152600401808473ffffffffffffffffffffffffffffffffffffffff1673ffffffffffffffffffffffffffffffffffffffff1681526020018373ffffffffffffffffffffffffffffffffffffffff1673ffffffffffffffffffffffffffffffffffffffff16815260200182600019166000191681526020019350505050600060405180830381600087803b15801561232157600080fd5b505af1158015612335573d6000803e3d6000fd5b505050508873ffffffffffffffffffffffffffffffffffffffff16630a8ed3db858b8c73ffffffffffffffffffffffffffffffffffffffff16633d6ab68f6040518163ffffffff167c0100000000000000000000000000000000000000000000000000000000028152600401602060405180830381600087803b1580156123bb57600080fd5b505af11580156123cf573d6000803e3d6000fd5b505050506040513d60208110156123e557600080fd5b81019080805190602001909291905050506040518463ffffffff167c0100000000000000000000000000000000000000000000000000000000028152600401808473ffffffffffffffffffffffffffffffffffffffff1673ffffffffffffffffffffffffffffffffffffffff1681526020018373ffffffffffffffffffffffffffffffffffffffff1673ffffffffffffffffffffffffffffffffffffffff16815260200182600019166000191681526020019350505050600060405180830381600087803b1580156124b657600080fd5b505af11580156124ca573d6000803e3d6000fd5b505050508873ffffffffffffffffffffffffffffffffffffffff16639d0effdb308b8c73ffffffffffffffffffffffffffffffffffffffff16633d6ab68f6040518163ffffffff167c0100000000000000000000000000000000000000000000000000000000028152600401602060405180830381600087803b15801561255057600080fd5b505af1158015612564573d6000803e3d6000fd5b505050506040513d602081101561257a57600080fd5b81019080805190602001909291905050506040518463ffffffff167c0100000000000000000000000000000000000000000000000000000000028152600401808473ffffffffffffffffffffffffffffffffffffffff1673ffffffffffffffffffffffffffffffffffffffff1681526020018373ffffffffffffffffffffffffffffffffffffffff1673ffffffffffffffffffffffffffffffffffffffff16815260200182600019166000191681526020019350505050600060405180830381600087803b15801561264b57600080fd5b505af115801561265f573d6000803e3d6000fd5b505050508873ffffffffffffffffffffffffffffffffffffffff1663afd925df858b8c73ffffffffffffffffffffffffffffffffffffffff16633d6ab68f6040518163ffffffff167c0100000000000000000000000000000000000000000000000000000000028152600401602060405180830381600087803b1580156126e557600080fd5b505af11580156126f9573d6000803e3d6000fd5b505050506040513d602081101561270f57600080fd5b81019080805190602001909291905050506040518463ffffffff167c0100000000000000000000000000000000000000000000000000000000028152600401808473ffffffffffffffffffffffffffffffffffffffff1673ffffffffffffffffffffffffffffffffffffffff1681526020018373ffffffffffffffffffffffffffffffffffffffff1673ffffffffffffffffffffffffffffffffffffffff16815260200182600019166000191681526020019350505050600060405180830381600087803b1580156127e057600080fd5b505af11580156127f4573d6000803e3d6000fd5b505050507f0b13a9ab90735191cd544fd95ba68d1385144561cbdeb8acb8035de9a86432f58a604051808273ffffffffffffffffffffffffffffffffffffffff1673ffffffffffffffffffffffffffffffffffffffff16815260200191505060405180910390a15050505050505050505050565b600260009054906101000a900473ffffffffffffffffffffffffffffffffffffffff1681565b600080600160009054906101000a900473ffffffffffffffffffffffffffffffffffffffff1673ffffffffffffffffffffffffffffffffffffffff16630178b8bf846040518263ffffffff167c0100000000000000000000000000000000000000000000000000000000028152600401808260001916600019168152602001915050602060405180830381600087803b15801561292a57600080fd5b505af115801561293e573d6000803e3d6000fd5b505050506040513d602081101561295457600080fd5b810190808051906020019092919050505073ffffffffffffffffffffffffffffffffffffffff16633b3b57de846040518263ffffffff167c0100000000000000000000000000000000000000000000000000000000028152600401808260001916600019168152602001915050602060405180830381600087803b1580156129db57600080fd5b505af11580156129ef573d6000803e3d6000fd5b505050506040513d6020811015612a0557600080fd5b810190808051906020019092919050505090508073ffffffffffffffffffffffffffffffffffffffff1663c36af4606040518163ffffffff167c0100000000000000000000000000000000000000000000000000000000028152600401600060405180830381600087803b158015612a7c57600080fd5b505af1158015612a90573d6000803e3d6000fd5b505050506040513d6000823e3d601f19601f8201168201806040525060a0811015612aba57600080fd5b81019080919082606001805190602001909291908051640100000000811115612ae257600080fd5b82810190506020810184811115612af857600080fd5b8151856001820283011164010000000082111715612b1557600080fd5b5050929190505050909150508092505081915050919050565b816000808373ffffffffffffffffffffffffffffffffffffffff1673ffffffffffffffffffffffffffffffffffffffff16815260200190815260200160002060008473ffffffffffffffffffffffffffffffffffffffff166306fdde036040518163ffffffff167c0100000000000000000000000000000000000000000000000000000000028152600401600060405180830381600087803b158015612bd357600080fd5b505af1158015612be7573d6000803e3d6000fd5b505050506040513d6000823e3d601f19601f820116820180604052506020811015612c1157600080fd5b810190808051640100000000811115612c2957600080fd5b82810190506020810184811115612c3f57600080fd5b8151856001820283011164010000000082111715612c5c57600080fd5b50509291905050506040516020018082805190602001908083835b602083101515612c9c5780518252602082019150602081019050602083039250612c77565b6001836020036101000a0380198251168184511680821785525050505050509050019150506040516020818303038152906040526040518082805190602001908083835b602083101515612d055780518252602082019150602081019050602083039250612ce0565b6001836020036101000a03801982511681845116808217855250505050505090500191505060405180910390206000191660001916815260200190815260200160002060006101000a81548173ffffffffffffffffffffffffffffffffffffffff021916908373ffffffffffffffffffffffffffffffffffffffff1602179055505050565b60007f9065c3e7f7b7ef1ef4e53d2d0b8e0cef02874ab020c1ece79d5f0d3d0111c0ba600102826040518082805190602001908083835b602083101515612de65780518252602082019150602081019050602083039250612dc1565b6001836020036101000a03801982511681845116808217855250505050505090500191505060405180910390206040516020018083600019166000191681526020018260001916600019168152602001925050506040516020818303038152906040526040518082805190602001908083835b602083101515612e7e5780518252602082019150602081019050602083039250612e59565b6001836020036101000a03801982511681845116808217855250505050505090500191505060405180910390209050919050565b6000806000836040516020018082805190602001908083835b602083101515612ef05780518252602082019150602081019050602083039250612ecb565b6001836020036101000a0380198251168184511680821785525050505050509050019150506040516020818303038152906040526040518082805190602001908083835b602083101515612f595780518252602082019150602081019050602083039250612f34565b6001836020036101000a03801982511681845116808217855250505050505090500191505060405180910390209150600073ffffffffffffffffffffffffffffffffffffffff166000808773ffffffffffffffffffffffffffffffffffffffff1673ffffffffffffffffffffffffffffffffffffffff1681526020019081526020016000206000846000191660001916815260200190815260200160002060009054906101000a900473ffffffffffffffffffffffffffffffffffffffff1673ffffffffffffffffffffffffffffffffffffffff1614156040805190810160405280601c81526020017f54454d504c4154455f4d495353494e475f544f4b454e5f43414348450000000081525090151561310e576040517f08c379a00000000000000000000000000000000000000000000000000000000081526004018080602001828103825283818151815260200191508051906020019080838360005b838110156130d35780820151818401526020810190506130b8565b50505050905090810190601f1680156131005780820380516001836020036101000a031916815260200191505b509250505060405180910390fd5b506000808673ffffffffffffffffffffffffffffffffffffffff1673ffffffffffffffffffffffffffffffffffffffff1681526020019081526020016000206000836000191660001916815260200190815260200160002060009054906101000a900473ffffffffffffffffffffffffffffffffffffffff1690506000808673ffffffffffffffffffffffffffffffffffffffff1673ffffffffffffffffffffffffffffffffffffffff1681526020019081526020016000206000836000191660001916815260200190815260200160002060006101000a81549073ffffffffffffffffffffffffffffffffffffffff02191690558092505050929150505600a165627a7a723058202d937ce9cab7fac5e584ddb9c354f4f92c546f38e0c9daca5a9e6043ffb4b9880029608060405234801561001057600080fd5b5061329b806100206000396000f300608060405260043610610041576000357c0100000000000000000000000000000000000000000000000000000000900463ffffffff1680635b7b72c114610046575b600080fd5b34801561005257600080fd5b50610136600480360381019080803573ffffffffffffffffffffffffffffffffffffffff16906020019092919080359060200190929190803590602001908201803590602001908080601f0160208091040260200160405190810160405280939291908181526020018383808284378201915050505050509192919290803560ff169060200190929190803590602001908201803590602001908080601f0160208091040260200160405190810160405280939291908181526020018383808284378201915050505050509192919290803515159060200190929190505050610178565b604051808273ffffffffffffffffffffffffffffffffffffffff1673ffffffffffffffffffffffffffffffffffffffff16815260200191505060405180910390f35b6000803088888888888861018a6103ca565b808873ffffffffffffffffffffffffffffffffffffffff1673ffffffffffffffffffffffffffffffffffffffff1681526020018773ffffffffffffffffffffffffffffffffffffffff1673ffffffffffffffffffffffffffffffffffffffff168152602001868152602001806020018560ff1660ff1681526020018060200184151515158152602001838103835287818151815260200191508051906020019080838360005b8381101561024b578082015181840152602081019050610230565b50505050905090810190601f1680156102785780820380516001836020036101000a031916815260200191505b50838103825285818151815260200191508051906020019080838360005b838110156102b1578082015181840152602081019050610296565b50505050905090810190601f1680156102de5780820380516001836020036101000a031916815260200191505b509950505050505050505050604051809103906000f080158015610306573d6000803e3d6000fd5b5090508073ffffffffffffffffffffffffffffffffffffffff16633cebb823336040518263ffffffff167c0100000000000000000000000000000000000000000000000000000000028152600401808273ffffffffffffffffffffffffffffffffffffffff1673ffffffffffffffffffffffffffffffffffffffff168152602001915050600060405180830381600087803b1580156103a457600080fd5b505af11580156103b8573d6000803e3d6000fd5b50505050809150509695505050505050565b604051612e95806103db83390190560060806040526040805190810160405280600781526020017f4d4d545f302e3100000000000000000000000000000000000000000000000000815250600490805190602001906200005192919062000207565b503480156200005f57600080fd5b5060405162002e9538038062002e9583398101806040528101908080519060200190929190805190602001909291908051906020019092919080518201929190602001805190602001909291908051820192919060200180519060200190929190505050336000806101000a81548173ffffffffffffffffffffffffffffffffffffffff021916908373ffffffffffffffffffffffffffffffffffffffff16021790555086600b60016101000a81548173ffffffffffffffffffffffffffffffffffffffff021916908373ffffffffffffffffffffffffffffffffffffffff16021790555083600190805190602001906200015c92919062000207565b5082600260006101000a81548160ff021916908360ff16021790555081600390805190602001906200019092919062000207565b5085600560006101000a81548173ffffffffffffffffffffffffffffffffffffffff021916908373ffffffffffffffffffffffffffffffffffffffff1602179055508460068190555080600b60006101000a81548160ff0219169083151502179055504360078190555050505050505050620002b6565b828054600181600116156101000203166002900490600052602060002090601f016020900481019282601f106200024a57805160ff19168380011785556200027b565b828001600101855582156200027b579182015b828111156200027a5782518255916020019190600101906200025d565b5b5090506200028a91906200028e565b5090565b620002b391905b80821115620002af57600081600090555060010162000295565b5090565b90565b612bcf80620002c66000396000f300608060405260043610610149576000357c0100000000000000000000000000000000000000000000000000000000900463ffffffff16806306fdde031461028a578063095ea7b31461031a578063176345141461037f57806318160ddd146103aa57806323b872dd146103d5578063313ce5671461045a5780633cebb8231461048b5780634ee2cd7e146104ce57806354fd4d501461052f5780636638c087146105bf57806370a08231146106d157806380a5400114610728578063827f32c01461077f57806395d89b41146107e4578063981b24d014610874578063a9059cbb146108b5578063bef97c871461091a578063c5bcc4f114610949578063cae9ca5114610974578063d3ce77fe14610a1f578063dd62ed3e14610a84578063df8de3e714610afb578063e77772fe14610b3e578063f41e60c514610b95578063f77c479114610bc4575b6101736000809054906101000a900473ffffffffffffffffffffffffffffffffffffffff16610c1b565b151561017e57600080fd5b600115156000809054906101000a900473ffffffffffffffffffffffffffffffffffffffff1673ffffffffffffffffffffffffffffffffffffffff1663f48c305434336040518363ffffffff167c0100000000000000000000000000000000000000000000000000000000028152600401808273ffffffffffffffffffffffffffffffffffffffff1673ffffffffffffffffffffffffffffffffffffffff1681526020019150506020604051808303818588803b15801561023e57600080fd5b505af1158015610252573d6000803e3d6000fd5b50505050506040513d602081101561026957600080fd5b8101908080519060200190929190505050151514151561028857600080fd5b005b34801561029657600080fd5b5061029f610c57565b6040518080602001828103825283818151815260200191508051906020019080838360005b838110156102df5780820151818401526020810190506102c4565b50505050905090810190601f16801561030c5780820380516001836020036101000a031916815260200191505b509250505060405180910390f35b34801561032657600080fd5b50610365600480360381019080803573ffffffffffffffffffffffffffffffffffffffff16906020019092919080359060200190929190505050610cf5565b604051808215151515815260200191505060405180910390f35b34801561038b57600080fd5b5061039461100d565b6040518082815260200191505060405180910390f35b3480156103b657600080fd5b506103bf611013565b6040518082815260200191505060405180910390f35b3480156103e157600080fd5b50610440600480360381019080803573ffffffffffffffffffffffffffffffffffffffff169060200190929190803573ffffffffffffffffffffffffffffffffffffffff16906020019092919080359060200190929190505050611023565b604051808215151515815260200191505060405180910390f35b34801561046657600080fd5b5061046f6111c3565b604051808260ff1660ff16815260200191505060405180910390f35b34801561049757600080fd5b506104cc600480360381019080803573ffffffffffffffffffffffffffffffffffffffff1690602001909291905050506111d6565b005b3480156104da57600080fd5b50610519600480360381019080803573ffffffffffffffffffffffffffffffffffffffff16906020019092919080359060200190929190505050611274565b6040518082815260200191505060405180910390f35b34801561053b57600080fd5b50610544611500565b6040518080602001828103825283818151815260200191508051906020019080838360005b83811015610584578082015181840152602081019050610569565b50505050905090810190601f1680156105b15780820380516001836020036101000a031916815260200191505b509250505060405180910390f35b3480156105cb57600080fd5b5061068f600480360381019080803590602001908201803590602001908080601f0160208091040260200160405190810160405280939291908181526020018383808284378201915050505050509192919290803560ff169060200190929190803590602001908201803590602001908080601f01602080910402602001604051908101604052809392919081815260200183838082843782019150505050505091929192908035906020019092919080351515906020019092919050505061159e565b604051808273ffffffffffffffffffffffffffffffffffffffff1673ffffffffffffffffffffffffffffffffffffffff16815260200191505060405180910390f35b3480156106dd57600080fd5b50610712600480360381019080803573ffffffffffffffffffffffffffffffffffffffff1690602001909291905050506118bc565b6040518082815260200191505060405180910390f35b34801561073457600080fd5b5061073d6118cf565b604051808273ffffffffffffffffffffffffffffffffffffffff1673ffffffffffffffffffffffffffffffffffffffff16815260200191505060405180910390f35b34801561078b57600080fd5b506107ca600480360381019080803573ffffffffffffffffffffffffffffffffffffffff169060200190929190803590602001909291905050506118f5565b604051808215151515815260200191505060405180910390f35b3480156107f057600080fd5b506107f9611a3f565b6040518080602001828103825283818151815260200191508051906020019080838360005b8381101561083957808201518184015260208101905061081e565b50505050905090810190601f1680156108665780820380516001836020036101000a031916815260200191505b509250505060405180910390f35b34801561088057600080fd5b5061089f60048036038101908080359060200190929190505050611add565b6040518082815260200191505060405180910390f35b3480156108c157600080fd5b50610900600480360381019080803573ffffffffffffffffffffffffffffffffffffffff16906020019092919080359060200190929190505050611c7d565b604051808215151515815260200191505060405180910390f35b34801561092657600080fd5b5061092f611cad565b604051808215151515815260200191505060405180910390f35b34801561095557600080fd5b5061095e611cc0565b6040518082815260200191505060405180910390f35b34801561098057600080fd5b50610a05600480360381019080803573ffffffffffffffffffffffffffffffffffffffff16906020019092919080359060200190929190803590602001908201803590602001908080601f0160208091040260200160405190810160405280939291908181526020018383808284378201915050505050509192919290505050611cc6565b604051808215151515815260200191505060405180910390f35b348015610a2b57600080fd5b50610a6a600480360381019080803573ffffffffffffffffffffffffffffffffffffffff16906020019092919080359060200190929190505050611e44565b604051808215151515815260200191505060405180910390f35b348015610a9057600080fd5b50610ae5600480360381019080803573ffffffffffffffffffffffffffffffffffffffff169060200190929190803573ffffffffffffffffffffffffffffffffffffffff169060200190929190505050611f8a565b6040518082815260200191505060405180910390f35b348015610b0757600080fd5b50610b3c600480360381019080803573ffffffffffffffffffffffffffffffffffffffff169060200190929190505050612011565b005b348015610b4a57600080fd5b50610b53612379565b604051808273ffffffffffffffffffffffffffffffffffffffff1673ffffffffffffffffffffffffffffffffffffffff16815260200191505060405180910390f35b348015610ba157600080fd5b50610bc260048036038101908080351515906020019092919050505061239f565b005b348015610bd057600080fd5b50610bd9612417565b604051808273ffffffffffffffffffffffffffffffffffffffff1673ffffffffffffffffffffffffffffffffffffffff16815260200191505060405180910390f35b60008060008373ffffffffffffffffffffffffffffffffffffffff161415610c465760009150610c51565b823b90506000811191505b50919050565b60018054600181600116156101000203166002900480601f016020809104026020016040519081016040528092919081815260200182805460018160011615610100020316600290048015610ced5780601f10610cc257610100808354040283529160200191610ced565b820191906000526020600020905b815481529060010190602001808311610cd057829003601f168201915b505050505081565b6000600b60009054906101000a900460ff161515610d1257600080fd5b6000821480610d9d57506000600960003373ffffffffffffffffffffffffffffffffffffffff1673ffffffffffffffffffffffffffffffffffffffff16815260200190815260200160002060008573ffffffffffffffffffffffffffffffffffffffff1673ffffffffffffffffffffffffffffffffffffffff16815260200190815260200160002054145b1515610da857600080fd5b610dd26000809054906101000a900473ffffffffffffffffffffffffffffffffffffffff16610c1b565b15610f1d57600115156000809054906101000a900473ffffffffffffffffffffffffffffffffffffffff1673ffffffffffffffffffffffffffffffffffffffff1663da682aeb3386866040518463ffffffff167c0100000000000000000000000000000000000000000000000000000000028152600401808473ffffffffffffffffffffffffffffffffffffffff1673ffffffffffffffffffffffffffffffffffffffff1681526020018373ffffffffffffffffffffffffffffffffffffffff1673ffffffffffffffffffffffffffffffffffffffff1681526020018281526020019350505050602060405180830381600087803b158015610ed357600080fd5b505af1158015610ee7573d6000803e3d6000fd5b505050506040513d6020811015610efd57600080fd5b81019080805190602001909291905050501515141515610f1c57600080fd5b5b81600960003373ffffffffffffffffffffffffffffffffffffffff1673ffffffffffffffffffffffffffffffffffffffff16815260200190815260200160002060008573ffffffffffffffffffffffffffffffffffffffff1673ffffffffffffffffffffffffffffffffffffffff168152602001908152602001600020819055508273ffffffffffffffffffffffffffffffffffffffff163373ffffffffffffffffffffffffffffffffffffffff167f8c5be1e5ebec7d5bd14f71427d1e84f3dd0314c0f7b2291e5b200ac8c7c3b925846040518082815260200191505060405180910390a36001905092915050565b60075481565b600061101e43611add565b905090565b60008060009054906101000a900473ffffffffffffffffffffffffffffffffffffffff1673ffffffffffffffffffffffffffffffffffffffff163373ffffffffffffffffffffffffffffffffffffffff161415156111ae57600b60009054906101000a900460ff16151561109657600080fd5b81600960008673ffffffffffffffffffffffffffffffffffffffff1673ffffffffffffffffffffffffffffffffffffffff16815260200190815260200160002060003373ffffffffffffffffffffffffffffffffffffffff1673ffffffffffffffffffffffffffffffffffffffff16815260200190815260200160002054101561112357600090506111bc565b81600960008673ffffffffffffffffffffffffffffffffffffffff1673ffffffffffffffffffffffffffffffffffffffff16815260200190815260200160002060003373ffffffffffffffffffffffffffffffffffffffff1673ffffffffffffffffffffffffffffffffffffffff168152602001908152602001600020600082825403925050819055505b6111b984848461243c565b90505b9392505050565b600260009054906101000a900460ff1681565b6000809054906101000a900473ffffffffffffffffffffffffffffffffffffffff1673ffffffffffffffffffffffffffffffffffffffff163373ffffffffffffffffffffffffffffffffffffffff1614151561123157600080fd5b806000806101000a81548173ffffffffffffffffffffffffffffffffffffffff021916908373ffffffffffffffffffffffffffffffffffffffff16021790555050565b600080600860008573ffffffffffffffffffffffffffffffffffffffff1673ffffffffffffffffffffffffffffffffffffffff16815260200190815260200160002080549050148061134d575081600860008573ffffffffffffffffffffffffffffffffffffffff1673ffffffffffffffffffffffffffffffffffffffff168152602001908152602001600020600081548110151561130f57fe5b9060005260206000200160000160009054906101000a90046fffffffffffffffffffffffffffffffff166fffffffffffffffffffffffffffffffff16115b156114af576000600560009054906101000a900473ffffffffffffffffffffffffffffffffffffffff1673ffffffffffffffffffffffffffffffffffffffff161415156114a657600560009054906101000a900473ffffffffffffffffffffffffffffffffffffffff1673ffffffffffffffffffffffffffffffffffffffff16634ee2cd7e846113df85600654612776565b6040518363ffffffff167c0100000000000000000000000000000000000000000000000000000000028152600401808373ffffffffffffffffffffffffffffffffffffffff1673ffffffffffffffffffffffffffffffffffffffff16815260200182815260200192505050602060405180830381600087803b15801561146457600080fd5b505af1158015611478573d6000803e3d6000fd5b505050506040513d602081101561148e57600080fd5b810190808051906020019092919050505090506114fa565b600090506114fa565b6114f7600860008573ffffffffffffffffffffffffffffffffffffffff1673ffffffffffffffffffffffffffffffffffffffff1681526020019081526020016000208361278f565b90505b92915050565b60048054600181600116156101000203166002900480601f0160208091040260200160405190810160405280929190818152602001828054600181600116156101000203166002900480156115965780601f1061156b57610100808354040283529160200191611596565b820191906000526020600020905b81548152906001019060200180831161157957829003601f168201915b505050505081565b60008060008085146115b057846115b5565b600143035b9150600b60019054906101000a900473ffffffffffffffffffffffffffffffffffffffff1673ffffffffffffffffffffffffffffffffffffffff16635b7b72c130848b8b8b8a6040518763ffffffff167c0100000000000000000000000000000000000000000000000000000000028152600401808773ffffffffffffffffffffffffffffffffffffffff1673ffffffffffffffffffffffffffffffffffffffff168152602001868152602001806020018560ff1660ff1681526020018060200184151515158152602001838103835287818151815260200191508051906020019080838360005b838110156116b857808201518184015260208101905061169d565b50505050905090810190601f1680156116e55780820380516001836020036101000a031916815260200191505b50838103825285818151815260200191508051906020019080838360005b8381101561171e578082015181840152602081019050611703565b50505050905090810190601f16801561174b5780820380516001836020036101000a031916815260200191505b5098505050505050505050602060405180830381600087803b15801561177057600080fd5b505af1158015611784573d6000803e3d6000fd5b505050506040513d602081101561179a57600080fd5b810190808051906020019092919050505090508073ffffffffffffffffffffffffffffffffffffffff16633cebb823336040518263ffffffff167c0100000000000000000000000000000000000000000000000000000000028152600401808273ffffffffffffffffffffffffffffffffffffffff1673ffffffffffffffffffffffffffffffffffffffff168152602001915050600060405180830381600087803b15801561184857600080fd5b505af115801561185c573d6000803e3d6000fd5b505050508073ffffffffffffffffffffffffffffffffffffffff167f086c875b377f900b07ce03575813022f05dd10ed7640b5282cf6d3c3fc352ade836040518082815260200191505060405180910390a2809250505095945050505050565b60006118c88243611274565b9050919050565b600560009054906101000a900473ffffffffffffffffffffffffffffffffffffffff1681565b60008060008060009054906101000a900473ffffffffffffffffffffffffffffffffffffffff1673ffffffffffffffffffffffffffffffffffffffff163373ffffffffffffffffffffffffffffffffffffffff1614151561195557600080fd5b61195d611013565b9150818483011015151561197057600080fd5b611979856118bc565b9050808482011015151561198c57600080fd5b611999600a85840161299e565b6119e3600860008773ffffffffffffffffffffffffffffffffffffffff1673ffffffffffffffffffffffffffffffffffffffff16815260200190815260200160002085830161299e565b8473ffffffffffffffffffffffffffffffffffffffff1660007fddf252ad1be2c89b69c2b068fc378daa952ba7f163c4a11628f55a4df523b3ef866040518082815260200191505060405180910390a360019250505092915050565b60038054600181600116156101000203166002900480601f016020809104026020016040519081016040528092919081815260200182805460018160011615610100020316600290048015611ad55780601f10611aaa57610100808354040283529160200191611ad5565b820191906000526020600020905b815481529060010190602001808311611ab857829003601f168201915b505050505081565b600080600a805490501480611b3c575081600a6000815481101515611afe57fe5b9060005260206000200160000160009054906101000a90046fffffffffffffffffffffffffffffffff166fffffffffffffffffffffffffffffffff16115b15611c6a576000600560009054906101000a900473ffffffffffffffffffffffffffffffffffffffff1673ffffffffffffffffffffffffffffffffffffffff16141515611c6157600560009054906101000a900473ffffffffffffffffffffffffffffffffffffffff1673ffffffffffffffffffffffffffffffffffffffff1663981b24d0611bcd84600654612776565b6040518263ffffffff167c010000000000000000000000000000000000000000000000000000000002815260040180828152602001915050602060405180830381600087803b158015611c1f57600080fd5b505af1158015611c33573d6000803e3d6000fd5b505050506040513d6020811015611c4957600080fd5b81019080805190602001909291905050509050611c78565b60009050611c78565b611c75600a8361278f565b90505b919050565b6000600b60009054906101000a900460ff161515611c9a57600080fd5b611ca533848461243c565b905092915050565b600b60009054906101000a900460ff1681565b60065481565b6000611cd28484610cf5565b1515611cdd57600080fd5b8373ffffffffffffffffffffffffffffffffffffffff16638f4ffcb1338530866040518563ffffffff167c0100000000000000000000000000000000000000000000000000000000028152600401808573ffffffffffffffffffffffffffffffffffffffff1673ffffffffffffffffffffffffffffffffffffffff1681526020018481526020018373ffffffffffffffffffffffffffffffffffffffff1673ffffffffffffffffffffffffffffffffffffffff16815260200180602001828103825283818151815260200191508051906020019080838360005b83811015611dd2578082015181840152602081019050611db7565b50505050905090810190601f168015611dff5780820380516001836020036101000a031916815260200191505b5095505050505050600060405180830381600087803b158015611e2157600080fd5b505af1158015611e35573d6000803e3d6000fd5b50505050600190509392505050565b60008060008060009054906101000a900473ffffffffffffffffffffffffffffffffffffffff1673ffffffffffffffffffffffffffffffffffffffff163373ffffffffffffffffffffffffffffffffffffffff16141515611ea457600080fd5b611eac611013565b9150838210151515611ebd57600080fd5b611ec6856118bc565b9050838110151515611ed757600080fd5b611ee4600a85840361299e565b611f2e600860008773ffffffffffffffffffffffffffffffffffffffff1673ffffffffffffffffffffffffffffffffffffffff16815260200190815260200160002085830361299e565b60008573ffffffffffffffffffffffffffffffffffffffff167fddf252ad1be2c89b69c2b068fc378daa952ba7f163c4a11628f55a4df523b3ef866040518082815260200191505060405180910390a360019250505092915050565b6000600960008473ffffffffffffffffffffffffffffffffffffffff1673ffffffffffffffffffffffffffffffffffffffff16815260200190815260200160002060008373ffffffffffffffffffffffffffffffffffffffff1673ffffffffffffffffffffffffffffffffffffffff16815260200190815260200160002054905092915050565b6000806000809054906101000a900473ffffffffffffffffffffffffffffffffffffffff1673ffffffffffffffffffffffffffffffffffffffff163373ffffffffffffffffffffffffffffffffffffffff1614151561206f57600080fd5b60008373ffffffffffffffffffffffffffffffffffffffff161415612112576000809054906101000a900473ffffffffffffffffffffffffffffffffffffffff1673ffffffffffffffffffffffffffffffffffffffff166108fc3073ffffffffffffffffffffffffffffffffffffffff16319081150290604051600060405180830381858888f1935050505015801561210c573d6000803e3d6000fd5b50612374565b8291508173ffffffffffffffffffffffffffffffffffffffff166370a08231306040518263ffffffff167c0100000000000000000000000000000000000000000000000000000000028152600401808273ffffffffffffffffffffffffffffffffffffffff1673ffffffffffffffffffffffffffffffffffffffff168152602001915050602060405180830381600087803b1580156121b057600080fd5b505af11580156121c4573d6000803e3d6000fd5b505050506040513d60208110156121da57600080fd5b810190808051906020019092919050505090508173ffffffffffffffffffffffffffffffffffffffff1663a9059cbb6000809054906101000a900473ffffffffffffffffffffffffffffffffffffffff16836040518363ffffffff167c0100000000000000000000000000000000000000000000000000000000028152600401808373ffffffffffffffffffffffffffffffffffffffff1673ffffffffffffffffffffffffffffffffffffffff16815260200182815260200192505050602060405180830381600087803b1580156122b157600080fd5b505af11580156122c5573d6000803e3d6000fd5b505050506040513d60208110156122db57600080fd5b8101908080519060200190929190505050506000809054906101000a900473ffffffffffffffffffffffffffffffffffffffff1673ffffffffffffffffffffffffffffffffffffffff168373ffffffffffffffffffffffffffffffffffffffff167ff931edb47c50b4b4104c187b5814a9aef5f709e17e2ecf9617e860cacade929c836040518082815260200191505060405180910390a35b505050565b600b60019054906101000a900473ffffffffffffffffffffffffffffffffffffffff1681565b6000809054906101000a900473ffffffffffffffffffffffffffffffffffffffff1673ffffffffffffffffffffffffffffffffffffffff163373ffffffffffffffffffffffffffffffffffffffff161415156123fa57600080fd5b80600b60006101000a81548160ff02191690831515021790555050565b6000809054906101000a900473ffffffffffffffffffffffffffffffffffffffff1681565b600080600080841415612452576001925061276d565b4360065410151561246257600080fd5b60008573ffffffffffffffffffffffffffffffffffffffff16141580156124b557503073ffffffffffffffffffffffffffffffffffffffff168573ffffffffffffffffffffffffffffffffffffffff1614155b15156124c057600080fd5b6124ca8643611274565b9150838210156124dd576000925061276d565b6125076000809054906101000a900473ffffffffffffffffffffffffffffffffffffffff16610c1b565b1561265257600115156000809054906101000a900473ffffffffffffffffffffffffffffffffffffffff1673ffffffffffffffffffffffffffffffffffffffff16634a3931498888886040518463ffffffff167c0100000000000000000000000000000000000000000000000000000000028152600401808473ffffffffffffffffffffffffffffffffffffffff1673ffffffffffffffffffffffffffffffffffffffff1681526020018373ffffffffffffffffffffffffffffffffffffffff1673ffffffffffffffffffffffffffffffffffffffff1681526020018281526020019350505050602060405180830381600087803b15801561260857600080fd5b505af115801561261c573d6000803e3d6000fd5b505050506040513d602081101561263257600080fd5b8101908080519060200190929190505050151514151561265157600080fd5b5b61269c600860008873ffffffffffffffffffffffffffffffffffffffff1673ffffffffffffffffffffffffffffffffffffffff16815260200190815260200160002085840361299e565b6126a68543611274565b905080848201101515156126b957600080fd5b612703600860008773ffffffffffffffffffffffffffffffffffffffff1673ffffffffffffffffffffffffffffffffffffffff16815260200190815260200160002085830161299e565b8473ffffffffffffffffffffffffffffffffffffffff168673ffffffffffffffffffffffffffffffffffffffff167fddf252ad1be2c89b69c2b068fc378daa952ba7f163c4a11628f55a4df523b3ef866040518082815260200191505060405180910390a3600192505b50509392505050565b60008183106127855781612787565b825b905092915050565b6000806000806000868054905014156127ab5760009350612995565b8560018780549050038154811015156127c057fe5b9060005260206000200160000160009054906101000a90046fffffffffffffffffffffffffffffffff166fffffffffffffffffffffffffffffffff168510151561285c5785600187805490500381548110151561281957fe5b9060005260206000200160000160109054906101000a90046fffffffffffffffffffffffffffffffff166fffffffffffffffffffffffffffffffff169350612995565b85600081548110151561286b57fe5b9060005260206000200160000160009054906101000a90046fffffffffffffffffffffffffffffffff166fffffffffffffffffffffffffffffffff168510156128b75760009350612995565b60009250600186805490500391505b828211156129485760026001848401018115156128df57fe5b0490508486828154811015156128f157fe5b9060005260206000200160000160009054906101000a90046fffffffffffffffffffffffffffffffff166fffffffffffffffffffffffffffffffff1611151561293c57809250612943565b6001810391505b6128c6565b858381548110151561295657fe5b9060005260206000200160000160109054906101000a90046fffffffffffffffffffffffffffffffff166fffffffffffffffffffffffffffffffff1693505b50505092915050565b600080600084805490501480612a035750438460018680549050038154811015156129c557fe5b9060005260206000200160000160009054906101000a90046fffffffffffffffffffffffffffffffff166fffffffffffffffffffffffffffffffff16105b15612aaf5783848054809190600101612a1c9190612b12565b815481101515612a2857fe5b906000526020600020019150438260000160006101000a8154816fffffffffffffffffffffffffffffffff02191690836fffffffffffffffffffffffffffffffff160217905550828260000160106101000a8154816fffffffffffffffffffffffffffffffff02191690836fffffffffffffffffffffffffffffffff160217905550612b0c565b836001858054905003815481101515612ac457fe5b906000526020600020019050828160000160106101000a8154816fffffffffffffffffffffffffffffffff02191690836fffffffffffffffffffffffffffffffff1602179055505b50505050565b815481835581811115612b3957818360005260206000209182019101612b389190612b3e565b5b505050565b612ba091905b80821115612b9c57600080820160006101000a8154906fffffffffffffffffffffffffffffffff02191690556000820160106101000a8154906fffffffffffffffffffffffffffffffff021916905550600101612b44565b5090565b905600a165627a7a72305820c7b9b3063f6e29af3d8e5a96f48a9c504bc35143949f0e035d32872d06e0d9e30029a165627a7a723058204405d9ae04d7852aae252755b47489e8cb86fcd1581ccf7c3e686e0b2c68ef320029",
  "source": "/*\n * SPDX-License-Identitifer:    GPL-3.0-or-later\n *\n * This file requires contract dependencies which are licensed as\n * GPL-3.0-or-later, forcing it to also be licensed as such.\n *\n * This is the only file in your project that requires this license and\n * you are free to choose a different license for the rest of the project.\n */\n\npragma solidity ^0.4.24;\n\nimport \"@aragon/os/contracts/factory/DAOFactory.sol\";\nimport \"@aragon/os/contracts/apm/Repo.sol\";\nimport \"@aragon/os/contracts/lib/ens/ENS.sol\";\nimport \"@aragon/os/contracts/lib/ens/PublicResolver.sol\";\nimport \"@aragon/os/contracts/apm/APMNamehash.sol\";\n\nimport \"@aragon/apps-token-manager/contracts/TokenManager.sol\";\nimport \"@aragon/apps-voting/contracts/Voting.sol\";\nimport \"@aragon/apps-shared-minime/contracts/MiniMeToken.sol\";\n\nimport \"@1hive/airdrop-app/contracts/Airdrop.sol\";\n\nimport \"./TokenCache.sol\";\n\n\ncontract TemplateBase is APMNamehash, TokenCache {\n    ENS public ens;\n    DAOFactory public fac;\n\n    event DeployDao(address dao);\n    event InstalledApp(address appProxy, bytes32 appId);\n\n    constructor(DAOFactory _fac, ENS _ens) public {\n        ens = _ens;\n\n        // If no factory is passed, get it from on-chain bare-kit\n        if (address(_fac) == address(0)) {\n            bytes32 bareKit = apmNamehash(\"bare-kit\");\n            fac = TemplateBase(latestVersionAppBase(bareKit)).fac();\n        } else {\n            fac = _fac;\n        }\n    }\n\n    function latestVersionAppBase(bytes32 appId) public view returns (address base) {\n        Repo repo = Repo(PublicResolver(ens.resolver(appId)).addr(appId));\n        (,base,) = repo.getLatest();\n\n        return base;\n    }\n}\n\n\ncontract Template is TemplateBase {\n    MiniMeTokenFactory tokenFactory;\n\n    uint64 constant PCT = 10 ** 16;\n    address constant ANY_ENTITY = address(-1);\n\n    constructor(ENS ens) TemplateBase(DAOFactory(0), ens) public {\n        tokenFactory = new MiniMeTokenFactory();\n    }\n\n    function createToken(string _name, uint8 decimals, string _symbol, bool _transferable) public {\n      MiniMeToken token = tokenFactory.createCloneToken(MiniMeToken(0), 0, _name, decimals, _symbol, _transferable);\n      _cacheToken(token, msg.sender);\n    }\n\n    function newInstance(address[] _holders) public {\n    /* function newInstance() public { */\n        Kernel dao = fac.newDAO(this);\n        ACL acl = ACL(dao.acl());\n        acl.createPermission(this, dao, dao.APP_MANAGER_ROLE(), this);\n\n        bytes32 airdropAppId = keccak256(abi.encodePacked(apmNamehash(\"open\"), keccak256(\"airdrop-app\")));\n        bytes32 votingAppId = apmNamehash(\"voting\");\n        bytes32 tokenManagerAppId = apmNamehash(\"token-manager\");\n\n        Airdrop airdrop = Airdrop(dao.newAppInstance(airdropAppId, latestVersionAppBase(airdropAppId)));\n        Voting voting = Voting(dao.newAppInstance(votingAppId, latestVersionAppBase(votingAppId)));\n        TokenManager tokenManager = TokenManager(dao.newAppInstance(tokenManagerAppId, latestVersionAppBase(tokenManagerAppId)));\n\n        /* MiniMeToken token = tokenFactory.createCloneToken(MiniMeToken(0), 0, \"Guardian\", 18, \"GUARD\", false); */\n        MiniMeToken token = _popTokenCache(msg.sender, \"Guardian\");\n        token.changeController(tokenManager);\n\n        // Initialize apps\n        tokenManager.initialize(token, false, 0);\n        emit InstalledApp(tokenManager, tokenManagerAppId);\n        voting.initialize(token, uint64(60*10**16), uint64(15*10**16), uint64(1 days));\n        emit InstalledApp(voting, votingAppId);\n        airdrop.initialize(tokenManager);\n        emit InstalledApp(airdrop, airdropAppId);\n\n        /* acl.createPermission(voting, voting, voting.MODIFY_SUPPORT_ROLE(), voting); */\n        /* acl.createPermission(voting, voting, voting.MODIFY_QUORUM_ROLE(), voting); */\n        acl.createPermission(tokenManager, voting, voting.CREATE_VOTES_ROLE(), voting);\n        acl.createPermission(voting, tokenManager, tokenManager.BURN_ROLE(), voting);\n        acl.createPermission(voting, airdrop, airdrop.START_ROLE(), voting);\n        acl.createPermission(this, tokenManager, tokenManager.MINT_ROLE(), this);\n\n        for (uint i=0; i<_holders.length; i++) {\n            tokenManager.mint(_holders[i], 1e18); // Give 1 token to each holder\n        }\n\n        // Clean up permissions\n\n        acl.grantPermission(airdrop, tokenManager, tokenManager.MINT_ROLE());\n        acl.revokePermission(this, tokenManager, tokenManager.MINT_ROLE());\n        acl.setPermissionManager(voting, tokenManager, tokenManager.MINT_ROLE());\n\n        acl.grantPermission(voting, dao, dao.APP_MANAGER_ROLE());\n        acl.revokePermission(this, dao, dao.APP_MANAGER_ROLE());\n        acl.setPermissionManager(voting, dao, dao.APP_MANAGER_ROLE());\n\n        acl.grantPermission(voting, acl, acl.CREATE_PERMISSIONS_ROLE());\n        acl.revokePermission(this, acl, acl.CREATE_PERMISSIONS_ROLE());\n        acl.setPermissionManager(voting, acl, acl.CREATE_PERMISSIONS_ROLE());\n\n        emit DeployDao(dao);\n    }\n\n}\n",
  "sourcePath": "/home/carl/Projects/daonuts/template/contracts/Template.sol",
  "compiler": {
    "name": "solc",
    "version": "0.4.24+commit.e67f0147.Emscripten.clang"
  },
  "schemaVersion": "2.0.1",
  "updatedAt": "2019-10-17T19:35:34.616Z"
}