{
  "contractName": "TemplateApps",
  "abi": [
    {
      "constant": true,
      "inputs": [],
      "name": "ens",
      "outputs": [
        {
          "name": "",
          "type": "address"
        }
      ],
      "payable": false,
      "stateMutability": "view",
      "type": "function"
    },
    {
      "inputs": [
        {
          "name": "_ens",
          "type": "address"
        }
      ],
      "payable": false,
      "stateMutability": "nonpayable",
      "type": "constructor"
    },
    {
      "anonymous": false,
      "inputs": [
        {
          "indexed": false,
          "name": "appProxy",
          "type": "address"
        },
        {
          "indexed": false,
          "name": "appId",
          "type": "bytes32"
        }
      ],
      "name": "InstalledApp",
      "type": "event"
    },
    {
      "constant": false,
      "inputs": [
        {
          "name": "_dao",
          "type": "address"
        },
        {
          "name": "_voting",
          "type": "address"
        },
        {
          "name": "_currencyManager",
          "type": "address"
        }
      ],
      "name": "install",
      "outputs": [],
      "payable": false,
      "stateMutability": "nonpayable",
      "type": "function"
    },
    {
      "constant": true,
      "inputs": [
        {
          "name": "appId",
          "type": "bytes32"
        }
      ],
      "name": "latestVersionAppBase",
      "outputs": [
        {
          "name": "base",
          "type": "address"
        }
      ],
      "payable": false,
      "stateMutability": "view",
      "type": "function"
    }
  ],
  "bytecode": "0x608060405234801561001057600080fd5b506040516020806128ec83398101806040528101908080519060200190929190505050806000806101000a81548173ffffffffffffffffffffffffffffffffffffffff021916908373ffffffffffffffffffffffffffffffffffffffff16021790555050612869806100836000396000f300608060405260043610610057576000357c0100000000000000000000000000000000000000000000000000000000900463ffffffff1680633f15457f1461005c5780638aad2c26146100b3578063c6d2c71714610136575b600080fd5b34801561006857600080fd5b506100716101a7565b604051808273ffffffffffffffffffffffffffffffffffffffff1673ffffffffffffffffffffffffffffffffffffffff16815260200191505060405180910390f35b3480156100bf57600080fd5b50610134600480360381019080803573ffffffffffffffffffffffffffffffffffffffff169060200190929190803573ffffffffffffffffffffffffffffffffffffffff169060200190929190803573ffffffffffffffffffffffffffffffffffffffff1690602001909291905050506101cc565b005b34801561014257600080fd5b506101656004803603810190808035600019169060200190929190505050610ab4565b604051808273ffffffffffffffffffffffffffffffffffffffff1673ffffffffffffffffffffffffffffffffffffffff16815260200191505060405180910390f35b6000809054906101000a900473ffffffffffffffffffffffffffffffffffffffff1681565b6000806000808673ffffffffffffffffffffffffffffffffffffffff1663de2873596040518163ffffffff167c0100000000000000000000000000000000000000000000000000000000028152600401602060405180830381600087803b15801561023657600080fd5b505af115801561024a573d6000803e3d6000fd5b505050506040513d602081101561026057600080fd5b810190808051906020019092919050505093508673ffffffffffffffffffffffffffffffffffffffff166380cd5ac37f356065541af8b2e74db8b224183c7552774bd8246b1191179719921d9c97d4c26001026102df7f356065541af8b2e74db8b224183c7552774bd8246b1191179719921d9c97d4c2600102610ab4565b6040518363ffffffff167c01000000000000000000000000000000000000000000000000000000000281526004018083600019166000191681526020018273ffffffffffffffffffffffffffffffffffffffff1673ffffffffffffffffffffffffffffffffffffffff16815260200192505050602060405180830381600087803b15801561036c57600080fd5b505af1158015610380573d6000803e3d6000fd5b505050506040513d602081101561039657600080fd5b810190808051906020019092919050505092508673ffffffffffffffffffffffffffffffffffffffff166380cd5ac37f67c5438d71d05e58f99e88d6fb61ea5356b0f57106d3aba65c823267cc1cd07e6001026104157f67c5438d71d05e58f99e88d6fb61ea5356b0f57106d3aba65c823267cc1cd07e600102610ab4565b6040518363ffffffff167c01000000000000000000000000000000000000000000000000000000000281526004018083600019166000191681526020018273ffffffffffffffffffffffffffffffffffffffff1673ffffffffffffffffffffffffffffffffffffffff16815260200192505050602060405180830381600087803b1580156104a257600080fd5b505af11580156104b6573d6000803e3d6000fd5b505050506040513d60208110156104cc57600080fd5b810190808051906020019092919050505091508673ffffffffffffffffffffffffffffffffffffffff166380cd5ac37fb6461185219d266fa4eb5f1acad9b08a010bfd1e1f6a45fe3e169f161d8d5af160010261054b7fb6461185219d266fa4eb5f1acad9b08a010bfd1e1f6a45fe3e169f161d8d5af1600102610ab4565b6040518363ffffffff167c01000000000000000000000000000000000000000000000000000000000281526004018083600019166000191681526020018273ffffffffffffffffffffffffffffffffffffffff1673ffffffffffffffffffffffffffffffffffffffff16815260200192505050602060405180830381600087803b1580156105d857600080fd5b505af11580156105ec573d6000803e3d6000fd5b505050506040513d602081101561060257600080fd5b810190808051906020019092919050505090508273ffffffffffffffffffffffffffffffffffffffff1663c4d66de8866040518263ffffffff167c0100000000000000000000000000000000000000000000000000000000028152600401808273ffffffffffffffffffffffffffffffffffffffff1673ffffffffffffffffffffffffffffffffffffffff168152602001915050600060405180830381600087803b1580156106b057600080fd5b505af11580156106c4573d6000803e3d6000fd5b505050507f2b183a501d4b1bbd30e6611ebac40ab18a00390e6c6bed324bf92a265c9ce6e3837f356065541af8b2e74db8b224183c7552774bd8246b1191179719921d9c97d4c2600102604051808373ffffffffffffffffffffffffffffffffffffffff1673ffffffffffffffffffffffffffffffffffffffff16815260200182600019166000191681526020019250505060405180910390a18173ffffffffffffffffffffffffffffffffffffffff1663a73dbc4e86670de0b6b3a7640000606402670de0b6b3a7640000600a02670de0b6b3a7640000603202603c80603c6040518863ffffffff167c0100000000000000000000000000000000000000000000000000000000028152600401808873ffffffffffffffffffffffffffffffffffffffff1673ffffffffffffffffffffffffffffffffffffffff1681526020018781526020018681526020018581526020018467ffffffffffffffff1667ffffffffffffffff1681526020018367ffffffffffffffff1667ffffffffffffffff1681526020018267ffffffffffffffff1667ffffffffffffffff168152602001975050505050505050600060405180830381600087803b15801561088857600080fd5b505af115801561089c573d6000803e3d6000fd5b505050507f2b183a501d4b1bbd30e6611ebac40ab18a00390e6c6bed324bf92a265c9ce6e3827f67c5438d71d05e58f99e88d6fb61ea5356b0f57106d3aba65c823267cc1cd07e600102604051808373ffffffffffffffffffffffffffffffffffffffff1673ffffffffffffffffffffffffffffffffffffffff16815260200182600019166000191681526020019250505060405180910390a18073ffffffffffffffffffffffffffffffffffffffff16637a1ac61e8669021e19e0c9bab240000062278d006040518463ffffffff167c0100000000000000000000000000000000000000000000000000000000028152600401808473ffffffffffffffffffffffffffffffffffffffff1673ffffffffffffffffffffffffffffffffffffffff1681526020018381526020018281526020019350505050600060405180830381600087803b1580156109ee57600080fd5b505af1158015610a02573d6000803e3d6000fd5b505050507f2b183a501d4b1bbd30e6611ebac40ab18a00390e6c6bed324bf92a265c9ce6e3817fb6461185219d266fa4eb5f1acad9b08a010bfd1e1f6a45fe3e169f161d8d5af1600102604051808373ffffffffffffffffffffffffffffffffffffffff1673ffffffffffffffffffffffffffffffffffffffff16815260200182600019166000191681526020019250505060405180910390a1610aab87858888878787610d53565b50505050505050565b6000806000809054906101000a900473ffffffffffffffffffffffffffffffffffffffff1673ffffffffffffffffffffffffffffffffffffffff16630178b8bf846040518263ffffffff167c0100000000000000000000000000000000000000000000000000000000028152600401808260001916600019168152602001915050602060405180830381600087803b158015610b4f57600080fd5b505af1158015610b63573d6000803e3d6000fd5b505050506040513d6020811015610b7957600080fd5b810190808051906020019092919050505073ffffffffffffffffffffffffffffffffffffffff16633b3b57de846040518263ffffffff167c0100000000000000000000000000000000000000000000000000000000028152600401808260001916600019168152602001915050602060405180830381600087803b158015610c0057600080fd5b505af1158015610c14573d6000803e3d6000fd5b505050506040513d6020811015610c2a57600080fd5b810190808051906020019092919050505090508073ffffffffffffffffffffffffffffffffffffffff1663c36af4606040518163ffffffff167c0100000000000000000000000000000000000000000000000000000000028152600401600060405180830381600087803b158015610ca157600080fd5b505af1158015610cb5573d6000803e3d6000fd5b505050506040513d6000823e3d601f19601f8201168201806040525060a0811015610cdf57600080fd5b81019080919082606001805190602001909291908051640100000000811115610d0757600080fd5b82810190506020810184811115610d1d57600080fd5b8151856001820283011164010000000082111715610d3a57600080fd5b5050929190505050909150508092505081915050919050565b6000806000808a73ffffffffffffffffffffffffffffffffffffffff16638ea8dc9d6040518163ffffffff167c0100000000000000000000000000000000000000000000000000000000028152600401602060405180830381600087803b158015610dbd57600080fd5b505af1158015610dd1573d6000803e3d6000fd5b505050506040513d6020811015610de757600080fd5b810190808051906020019092919050505093508973ffffffffffffffffffffffffffffffffffffffff16633d6ab68f6040518163ffffffff167c0100000000000000000000000000000000000000000000000000000000028152600401602060405180830381600087803b158015610e5e57600080fd5b505af1158015610e72573d6000803e3d6000fd5b505050506040513d6020811015610e8857600080fd5b810190808051906020019092919050505092508773ffffffffffffffffffffffffffffffffffffffff1663e9a9c8506040518163ffffffff167c0100000000000000000000000000000000000000000000000000000000028152600401602060405180830381600087803b158015610eff57600080fd5b505af1158015610f13573d6000803e3d6000fd5b505050506040513d6020811015610f2957600080fd5b810190808051906020019092919050505091508773ffffffffffffffffffffffffffffffffffffffff1663b930908f6040518163ffffffff167c0100000000000000000000000000000000000000000000000000000000028152600401602060405180830381600087803b158015610fa057600080fd5b505af1158015610fb4573d6000803e3d6000fd5b505050506040513d6020811015610fca57600080fd5b810190808051906020019092919050505090508973ffffffffffffffffffffffffffffffffffffffff16630a8ed3db878a856040518463ffffffff167c0100000000000000000000000000000000000000000000000000000000028152600401808473ffffffffffffffffffffffffffffffffffffffff1673ffffffffffffffffffffffffffffffffffffffff1681526020018373ffffffffffffffffffffffffffffffffffffffff1673ffffffffffffffffffffffffffffffffffffffff16815260200182600019166000191681526020019350505050600060405180830381600087803b1580156110bc57600080fd5b505af11580156110d0573d6000803e3d6000fd5b505050508973ffffffffffffffffffffffffffffffffffffffff16630a8ed3db878a846040518463ffffffff167c0100000000000000000000000000000000000000000000000000000000028152600401808473ffffffffffffffffffffffffffffffffffffffff1673ffffffffffffffffffffffffffffffffffffffff1681526020018373ffffffffffffffffffffffffffffffffffffffff1673ffffffffffffffffffffffffffffffffffffffff16815260200182600019166000191681526020019350505050600060405180830381600087803b1580156111b357600080fd5b505af11580156111c7573d6000803e3d6000fd5b505050508973ffffffffffffffffffffffffffffffffffffffff16630a8ed3db888a856040518463ffffffff167c0100000000000000000000000000000000000000000000000000000000028152600401808473ffffffffffffffffffffffffffffffffffffffff1673ffffffffffffffffffffffffffffffffffffffff1681526020018373ffffffffffffffffffffffffffffffffffffffff1673ffffffffffffffffffffffffffffffffffffffff16815260200182600019166000191681526020019350505050600060405180830381600087803b1580156112aa57600080fd5b505af11580156112be573d6000803e3d6000fd5b505050508973ffffffffffffffffffffffffffffffffffffffff16630a8ed3db868a846040518463ffffffff167c0100000000000000000000000000000000000000000000000000000000028152600401808473ffffffffffffffffffffffffffffffffffffffff1673ffffffffffffffffffffffffffffffffffffffff1681526020018373ffffffffffffffffffffffffffffffffffffffff1673ffffffffffffffffffffffffffffffffffffffff16815260200182600019166000191681526020019350505050600060405180830381600087803b1580156113a157600080fd5b505af11580156113b5573d6000803e3d6000fd5b505050508973ffffffffffffffffffffffffffffffffffffffff1663be0384788a898a73ffffffffffffffffffffffffffffffffffffffff1663507b40636040518163ffffffff167c0100000000000000000000000000000000000000000000000000000000028152600401602060405180830381600087803b15801561143b57600080fd5b505af115801561144f573d6000803e3d6000fd5b505050506040513d602081101561146557600080fd5b81019080805190602001909291905050508d6040518563ffffffff167c0100000000000000000000000000000000000000000000000000000000028152600401808573ffffffffffffffffffffffffffffffffffffffff1673ffffffffffffffffffffffffffffffffffffffff1681526020018473ffffffffffffffffffffffffffffffffffffffff1673ffffffffffffffffffffffffffffffffffffffff16815260200183600019166000191681526020018273ffffffffffffffffffffffffffffffffffffffff1673ffffffffffffffffffffffffffffffffffffffff168152602001945050505050600060405180830381600087803b15801561156a57600080fd5b505af115801561157e573d6000803e3d6000fd5b505050508973ffffffffffffffffffffffffffffffffffffffff1663be0384788a878873ffffffffffffffffffffffffffffffffffffffff166374e805e96040518163ffffffff167c0100000000000000000000000000000000000000000000000000000000028152600401602060405180830381600087803b15801561160457600080fd5b505af1158015611618573d6000803e3d6000fd5b505050506040513d602081101561162e57600080fd5b81019080805190602001909291905050508d6040518563ffffffff167c0100000000000000000000000000000000000000000000000000000000028152600401808573ffffffffffffffffffffffffffffffffffffffff1673ffffffffffffffffffffffffffffffffffffffff1681526020018473ffffffffffffffffffffffffffffffffffffffff1673ffffffffffffffffffffffffffffffffffffffff16815260200183600019166000191681526020018273ffffffffffffffffffffffffffffffffffffffff1673ffffffffffffffffffffffffffffffffffffffff168152602001945050505050600060405180830381600087803b15801561173357600080fd5b505af1158015611747573d6000803e3d6000fd5b505050508973ffffffffffffffffffffffffffffffffffffffff1663be0384788a878873ffffffffffffffffffffffffffffffffffffffff16631566085c6040518163ffffffff167c0100000000000000000000000000000000000000000000000000000000028152600401602060405180830381600087803b1580156117cd57600080fd5b505af11580156117e1573d6000803e3d6000fd5b505050506040513d60208110156117f757600080fd5b81019080805190602001909291905050508d6040518563ffffffff167c0100000000000000000000000000000000000000000000000000000000028152600401808573ffffffffffffffffffffffffffffffffffffffff1673ffffffffffffffffffffffffffffffffffffffff1681526020018473ffffffffffffffffffffffffffffffffffffffff1673ffffffffffffffffffffffffffffffffffffffff16815260200183600019166000191681526020018273ffffffffffffffffffffffffffffffffffffffff1673ffffffffffffffffffffffffffffffffffffffff168152602001945050505050600060405180830381600087803b1580156118fc57600080fd5b505af1158015611910573d6000803e3d6000fd5b505050508973ffffffffffffffffffffffffffffffffffffffff1663be0384787fffffffffffffffffffffffffffffffffffffffffffffffffffffffffffffffff888973ffffffffffffffffffffffffffffffffffffffff1663d8e27bd06040518163ffffffff167c0100000000000000000000000000000000000000000000000000000000028152600401602060405180830381600087803b1580156119b657600080fd5b505af11580156119ca573d6000803e3d6000fd5b505050506040513d60208110156119e057600080fd5b81019080805190602001909291905050508d6040518563ffffffff167c0100000000000000000000000000000000000000000000000000000000028152600401808573ffffffffffffffffffffffffffffffffffffffff1673ffffffffffffffffffffffffffffffffffffffff1681526020018473ffffffffffffffffffffffffffffffffffffffff1673ffffffffffffffffffffffffffffffffffffffff16815260200183600019166000191681526020018273ffffffffffffffffffffffffffffffffffffffff1673ffffffffffffffffffffffffffffffffffffffff168152602001945050505050600060405180830381600087803b158015611ae557600080fd5b505af1158015611af9573d6000803e3d6000fd5b505050508973ffffffffffffffffffffffffffffffffffffffff1663be0384787fffffffffffffffffffffffffffffffffffffffffffffffffffffffffffffffff888973ffffffffffffffffffffffffffffffffffffffff16638f911dca6040518163ffffffff167c0100000000000000000000000000000000000000000000000000000000028152600401602060405180830381600087803b158015611b9f57600080fd5b505af1158015611bb3573d6000803e3d6000fd5b505050506040513d6020811015611bc957600080fd5b81019080805190602001909291905050508d6040518563ffffffff167c0100000000000000000000000000000000000000000000000000000000028152600401808573ffffffffffffffffffffffffffffffffffffffff1673ffffffffffffffffffffffffffffffffffffffff1681526020018473ffffffffffffffffffffffffffffffffffffffff1673ffffffffffffffffffffffffffffffffffffffff16815260200183600019166000191681526020018273ffffffffffffffffffffffffffffffffffffffff1673ffffffffffffffffffffffffffffffffffffffff168152602001945050505050600060405180830381600087803b158015611cce57600080fd5b505af1158015611ce2573d6000803e3d6000fd5b505050508973ffffffffffffffffffffffffffffffffffffffff1663be0384788a888973ffffffffffffffffffffffffffffffffffffffff166394b059ab6040518163ffffffff167c0100000000000000000000000000000000000000000000000000000000028152600401602060405180830381600087803b158015611d6857600080fd5b505af1158015611d7c573d6000803e3d6000fd5b505050506040513d6020811015611d9257600080fd5b81019080805190602001909291905050508d6040518563ffffffff167c0100000000000000000000000000000000000000000000000000000000028152600401808573ffffffffffffffffffffffffffffffffffffffff1673ffffffffffffffffffffffffffffffffffffffff1681526020018473ffffffffffffffffffffffffffffffffffffffff1673ffffffffffffffffffffffffffffffffffffffff16815260200183600019166000191681526020018273ffffffffffffffffffffffffffffffffffffffff1673ffffffffffffffffffffffffffffffffffffffff168152602001945050505050600060405180830381600087803b158015611e9757600080fd5b505af1158015611eab573d6000803e3d6000fd5b505050508973ffffffffffffffffffffffffffffffffffffffff1663be0384788a888973ffffffffffffffffffffffffffffffffffffffff1663513638db6040518163ffffffff167c0100000000000000000000000000000000000000000000000000000000028152600401602060405180830381600087803b158015611f3157600080fd5b505af1158015611f45573d6000803e3d6000fd5b505050506040513d6020811015611f5b57600080fd5b81019080805190602001909291905050508d6040518563ffffffff167c0100000000000000000000000000000000000000000000000000000000028152600401808573ffffffffffffffffffffffffffffffffffffffff1673ffffffffffffffffffffffffffffffffffffffff1681526020018473ffffffffffffffffffffffffffffffffffffffff1673ffffffffffffffffffffffffffffffffffffffff16815260200183600019166000191681526020018273ffffffffffffffffffffffffffffffffffffffff1673ffffffffffffffffffffffffffffffffffffffff168152602001945050505050600060405180830381600087803b15801561206057600080fd5b505af1158015612074573d6000803e3d6000fd5b505050508973ffffffffffffffffffffffffffffffffffffffff1663afd925df8a8a856040518463ffffffff167c0100000000000000000000000000000000000000000000000000000000028152600401808473ffffffffffffffffffffffffffffffffffffffff1673ffffffffffffffffffffffffffffffffffffffff1681526020018373ffffffffffffffffffffffffffffffffffffffff1673ffffffffffffffffffffffffffffffffffffffff16815260200182600019166000191681526020019350505050600060405180830381600087803b15801561215757600080fd5b505af115801561216b573d6000803e3d6000fd5b505050508973ffffffffffffffffffffffffffffffffffffffff1663afd925df8a8a846040518463ffffffff167c0100000000000000000000000000000000000000000000000000000000028152600401808473ffffffffffffffffffffffffffffffffffffffff1673ffffffffffffffffffffffffffffffffffffffff1681526020018373ffffffffffffffffffffffffffffffffffffffff1673ffffffffffffffffffffffffffffffffffffffff16815260200182600019166000191681526020019350505050600060405180830381600087803b15801561224e57600080fd5b505af1158015612262573d6000803e3d6000fd5b505050508973ffffffffffffffffffffffffffffffffffffffff16630a8ed3db8a8d876040518463ffffffff167c0100000000000000000000000000000000000000000000000000000000028152600401808473ffffffffffffffffffffffffffffffffffffffff1673ffffffffffffffffffffffffffffffffffffffff1681526020018373ffffffffffffffffffffffffffffffffffffffff1673ffffffffffffffffffffffffffffffffffffffff16815260200182600019166000191681526020019350505050600060405180830381600087803b15801561234557600080fd5b505af1158015612359573d6000803e3d6000fd5b505050508973ffffffffffffffffffffffffffffffffffffffff16639d0effdb308d876040518463ffffffff167c0100000000000000000000000000000000000000000000000000000000028152600401808473ffffffffffffffffffffffffffffffffffffffff1673ffffffffffffffffffffffffffffffffffffffff1681526020018373ffffffffffffffffffffffffffffffffffffffff1673ffffffffffffffffffffffffffffffffffffffff16815260200182600019166000191681526020019350505050600060405180830381600087803b15801561243c57600080fd5b505af1158015612450573d6000803e3d6000fd5b505050508973ffffffffffffffffffffffffffffffffffffffff1663afd925df8a8d876040518463ffffffff167c0100000000000000000000000000000000000000000000000000000000028152600401808473ffffffffffffffffffffffffffffffffffffffff1673ffffffffffffffffffffffffffffffffffffffff1681526020018373ffffffffffffffffffffffffffffffffffffffff1673ffffffffffffffffffffffffffffffffffffffff16815260200182600019166000191681526020019350505050600060405180830381600087803b15801561253357600080fd5b505af1158015612547573d6000803e3d6000fd5b505050508973ffffffffffffffffffffffffffffffffffffffff16630a8ed3db8a8c866040518463ffffffff167c0100000000000000000000000000000000000000000000000000000000028152600401808473ffffffffffffffffffffffffffffffffffffffff1673ffffffffffffffffffffffffffffffffffffffff1681526020018373ffffffffffffffffffffffffffffffffffffffff1673ffffffffffffffffffffffffffffffffffffffff16815260200182600019166000191681526020019350505050600060405180830381600087803b15801561262a57600080fd5b505af115801561263e573d6000803e3d6000fd5b505050508973ffffffffffffffffffffffffffffffffffffffff16639d0effdb308c866040518463ffffffff167c0100000000000000000000000000000000000000000000000000000000028152600401808473ffffffffffffffffffffffffffffffffffffffff1673ffffffffffffffffffffffffffffffffffffffff1681526020018373ffffffffffffffffffffffffffffffffffffffff1673ffffffffffffffffffffffffffffffffffffffff16815260200182600019166000191681526020019350505050600060405180830381600087803b15801561272157600080fd5b505af1158015612735573d6000803e3d6000fd5b505050508973ffffffffffffffffffffffffffffffffffffffff1663afd925df8a8c866040518463ffffffff167c0100000000000000000000000000000000000000000000000000000000028152600401808473ffffffffffffffffffffffffffffffffffffffff1673ffffffffffffffffffffffffffffffffffffffff1681526020018373ffffffffffffffffffffffffffffffffffffffff1673ffffffffffffffffffffffffffffffffffffffff16815260200182600019166000191681526020019350505050600060405180830381600087803b15801561281857600080fd5b505af115801561282c573d6000803e3d6000fd5b5050505050505050505050505050505600a165627a7a723058201c0491c67c95ab52e4231be1f53ce5ba570a6d6ba1f615ea0001646c203064910029",
  "source": "pragma solidity ^0.4.24;\n\nimport \"@aragon/os/contracts/kernel/Kernel.sol\";\nimport \"@aragon/os/contracts/acl/ACL.sol\";\nimport \"@aragon/os/contracts/apm/Repo.sol\";\nimport \"@aragon/os/contracts/lib/ens/ENS.sol\";\nimport \"@aragon/os/contracts/lib/ens/PublicResolver.sol\";\n\nimport \"@aragon/apps-token-manager/contracts/TokenManager.sol\";\nimport \"@aragon/apps-voting/contracts/Voting.sol\";\n\nimport \"@1hive/airdrop-app/contracts/Airdrop.sol\";\n\nimport \"@daonuts/challenge-app/contracts/Challenge.sol\";\nimport \"@daonuts/subscribe-app/contracts/Subscribe.sol\";\n\ncontract TemplateApps {\n    ENS public ens;\n\n    uint constant TOKEN_UNIT = 10 ** 18;\n    address constant ANY_ENTITY = address(-1);\n\n    //namehash(\"airdrop-app.open.aragonpm.eth\")\n    bytes32 constant airdropAppId = 0x356065541af8b2e74db8b224183c7552774bd8246b1191179719921d9c97d4c2;\n    //namehash(\"challenge-app.open.aragonpm.eth\")\n    bytes32 constant challengeAppId = 0x67c5438d71d05e58f99e88d6fb61ea5356b0f57106d3aba65c823267cc1cd07e;\n    //namehash(\"subscribe-app.open.aragonpm.eth\")\n    bytes32 constant subscribeAppId = 0xb6461185219d266fa4eb5f1acad9b08a010bfd1e1f6a45fe3e169f161d8d5af1;\n\n    event InstalledApp(address appProxy, bytes32 appId);\n\n    constructor(ENS _ens) public {\n        ens = _ens;\n    }\n\n    function install(Kernel _dao, Voting _voting, TokenManager _currencyManager) public {\n        ACL acl = ACL(_dao.acl());\n\n        Airdrop airdrop = Airdrop(_dao.newAppInstance(airdropAppId, latestVersionAppBase(airdropAppId)));\n        Challenge challenge = Challenge(_dao.newAppInstance(challengeAppId, latestVersionAppBase(challengeAppId)));\n        Subscribe subscribe = Subscribe(_dao.newAppInstance(subscribeAppId, latestVersionAppBase(subscribeAppId)));\n\n        airdrop.initialize(_currencyManager);\n        emit InstalledApp(airdrop, airdropAppId);\n        challenge.initialize(_currencyManager, 100*TOKEN_UNIT, 10*TOKEN_UNIT, 50*TOKEN_UNIT, uint64(1 minutes), uint64(1 minutes), uint64(1 minutes));\n        emit InstalledApp(challenge, challengeAppId);\n        subscribe.initialize(_currencyManager, 10000e18, 30 days);\n        emit InstalledApp(subscribe, subscribeAppId);\n\n        _permissions(_dao, acl, _voting, _currencyManager, airdrop, challenge, subscribe);\n    }\n\n    function _permissions(\n        Kernel _dao, ACL _acl, Voting _voting, TokenManager _currencyManager,\n        Airdrop _airdrop, Challenge _challenge, Subscribe _subscribe\n    ) internal {\n\n        bytes32 APP_MANAGER_ROLE = _dao.APP_MANAGER_ROLE();\n        bytes32 CREATE_PERMISSIONS_ROLE = _acl.CREATE_PERMISSIONS_ROLE();\n        bytes32 CURRENCY_MINT_ROLE = _currencyManager.MINT_ROLE();\n        bytes32 CURRENCY_BURN_ROLE = _currencyManager.BURN_ROLE();\n\n        _acl.grantPermission(_challenge, _currencyManager, CURRENCY_MINT_ROLE);\n        _acl.grantPermission(_challenge, _currencyManager, CURRENCY_BURN_ROLE);\n        _acl.grantPermission(_airdrop, _currencyManager, CURRENCY_MINT_ROLE);\n        _acl.grantPermission(_subscribe, _currencyManager, CURRENCY_BURN_ROLE);\n\n        _acl.createPermission(_voting, _airdrop, _airdrop.START_ROLE(), _voting);\n        _acl.createPermission(_voting, _subscribe, _subscribe.SET_PRICE_ROLE(), _voting);\n        _acl.createPermission(_voting, _subscribe, _subscribe.SET_DURATION_ROLE(), _voting);\n\n        _acl.createPermission(ANY_ENTITY, _challenge, _challenge.PROPOSE_ROLE(), _voting);\n        _acl.createPermission(ANY_ENTITY, _challenge, _challenge.CHALLENGE_ROLE(), _voting);\n        _acl.createPermission(_voting, _challenge, _challenge.SUPPORT_ROLE(), _voting);\n        _acl.createPermission(_voting, _challenge, _challenge.MODIFY_PARAMETER_ROLE(), _voting);\n\n        _acl.setPermissionManager(_voting, _currencyManager, CURRENCY_MINT_ROLE);\n        _acl.setPermissionManager(_voting, _currencyManager, CURRENCY_BURN_ROLE);\n\n        _acl.grantPermission(_voting, _dao, APP_MANAGER_ROLE);\n        _acl.revokePermission(this, _dao, APP_MANAGER_ROLE);\n        _acl.setPermissionManager(_voting, _dao, APP_MANAGER_ROLE);\n\n        _acl.grantPermission(_voting, _acl, CREATE_PERMISSIONS_ROLE);\n        _acl.revokePermission(this, _acl, CREATE_PERMISSIONS_ROLE);\n        _acl.setPermissionManager(_voting, _acl, CREATE_PERMISSIONS_ROLE);\n    }\n\n    function latestVersionAppBase(bytes32 appId) public view returns (address base) {\n        Repo repo = Repo(PublicResolver(ens.resolver(appId)).addr(appId));\n        (,base,) = repo.getLatest();\n\n        return base;\n    }\n\n}\n",
  "sourcePath": "/home/carl/Projects/daonuts/template-apps/contracts/TemplateApps.sol",
  "compiler": {
    "name": "solc",
    "version": "0.4.24+commit.e67f0147.Emscripten.clang"
  },
  "schemaVersion": "2.0.1",
  "updatedAt": "2019-10-24T16:53:19.301Z"
}