{
  "contractName": "TemplateApps",
  "abi": [
    {
      "constant": true,
      "inputs": [],
      "name": "ens",
      "outputs": [
        {
          "name": "",
          "type": "address"
        }
      ],
      "payable": false,
      "stateMutability": "view",
      "type": "function"
    },
    {
      "inputs": [
        {
          "name": "_ens",
          "type": "address"
        }
      ],
      "payable": false,
      "stateMutability": "nonpayable",
      "type": "constructor"
    },
    {
      "anonymous": false,
      "inputs": [
        {
          "indexed": false,
          "name": "appProxy",
          "type": "address"
        },
        {
          "indexed": false,
          "name": "appId",
          "type": "bytes32"
        }
      ],
      "name": "InstalledApp",
      "type": "event"
    },
    {
      "anonymous": false,
      "inputs": [
        {
          "indexed": false,
          "name": "debug",
          "type": "address"
        }
      ],
      "name": "Debug",
      "type": "event"
    },
    {
      "constant": false,
      "inputs": [
        {
          "name": "_dao",
          "type": "address"
        },
        {
          "name": "_voting",
          "type": "address"
        },
        {
          "name": "_contribManager",
          "type": "address"
        },
        {
          "name": "_currencyManager",
          "type": "address"
        },
        {
          "name": "_airdrop",
          "type": "address"
        },
        {
          "name": "_challenge",
          "type": "address"
        },
        {
          "name": "_subscribe",
          "type": "address"
        },
        {
          "name": "_tipping",
          "type": "address"
        }
      ],
      "name": "install",
      "outputs": [],
      "payable": false,
      "stateMutability": "nonpayable",
      "type": "function"
    },
    {
      "constant": true,
      "inputs": [
        {
          "name": "appId",
          "type": "bytes32"
        }
      ],
      "name": "latestVersionAppBase",
      "outputs": [
        {
          "name": "base",
          "type": "address"
        }
      ],
      "payable": false,
      "stateMutability": "view",
      "type": "function"
    }
  ],
  "bytecode": "0x608060405234801561001057600080fd5b5060405160208061198083398101806040528101908080519060200190929190505050806000806101000a81548173ffffffffffffffffffffffffffffffffffffffff021916908373ffffffffffffffffffffffffffffffffffffffff160217905550506118fd806100836000396000f300608060405260043610610057576000357c0100000000000000000000000000000000000000000000000000000000900463ffffffff1680633f15457f1461005c578063c6d2c717146100b3578063c781b1a914610124575b600080fd5b34801561006857600080fd5b50610071610247565b604051808273ffffffffffffffffffffffffffffffffffffffff1673ffffffffffffffffffffffffffffffffffffffff16815260200191505060405180910390f35b3480156100bf57600080fd5b506100e2600480360381019080803560001916906020019092919050505061026c565b604051808273ffffffffffffffffffffffffffffffffffffffff1673ffffffffffffffffffffffffffffffffffffffff16815260200191505060405180910390f35b34801561013057600080fd5b50610245600480360381019080803573ffffffffffffffffffffffffffffffffffffffff169060200190929190803573ffffffffffffffffffffffffffffffffffffffff169060200190929190803573ffffffffffffffffffffffffffffffffffffffff169060200190929190803573ffffffffffffffffffffffffffffffffffffffff169060200190929190803573ffffffffffffffffffffffffffffffffffffffff169060200190929190803573ffffffffffffffffffffffffffffffffffffffff169060200190929190803573ffffffffffffffffffffffffffffffffffffffff169060200190929190803573ffffffffffffffffffffffffffffffffffffffff16906020019092919050505061050b565b005b6000809054906101000a900473ffffffffffffffffffffffffffffffffffffffff1681565b6000806000809054906101000a900473ffffffffffffffffffffffffffffffffffffffff1673ffffffffffffffffffffffffffffffffffffffff16630178b8bf846040518263ffffffff167c0100000000000000000000000000000000000000000000000000000000028152600401808260001916600019168152602001915050602060405180830381600087803b15801561030757600080fd5b505af115801561031b573d6000803e3d6000fd5b505050506040513d602081101561033157600080fd5b810190808051906020019092919050505073ffffffffffffffffffffffffffffffffffffffff16633b3b57de846040518263ffffffff167c0100000000000000000000000000000000000000000000000000000000028152600401808260001916600019168152602001915050602060405180830381600087803b1580156103b857600080fd5b505af11580156103cc573d6000803e3d6000fd5b505050506040513d60208110156103e257600080fd5b810190808051906020019092919050505090508073ffffffffffffffffffffffffffffffffffffffff1663c36af4606040518163ffffffff167c0100000000000000000000000000000000000000000000000000000000028152600401600060405180830381600087803b15801561045957600080fd5b505af115801561046d573d6000803e3d6000fd5b505050506040513d6000823e3d601f19601f8201168201806040525060a081101561049757600080fd5b810190809190826060018051906020019092919080516401000000008111156104bf57600080fd5b828101905060208101848111156104d557600080fd5b81518560018202830111640100000000821117156104f257600080fd5b5050929190505050909150508092505081915050919050565b60008873ffffffffffffffffffffffffffffffffffffffff1663de2873596040518163ffffffff167c0100000000000000000000000000000000000000000000000000000000028152600401602060405180830381600087803b15801561057157600080fd5b505af1158015610585573d6000803e3d6000fd5b505050506040513d602081101561059b57600080fd5b810190808051906020019092919050505090508473ffffffffffffffffffffffffffffffffffffffff1663485cc95588886040518363ffffffff167c0100000000000000000000000000000000000000000000000000000000028152600401808373ffffffffffffffffffffffffffffffffffffffff1673ffffffffffffffffffffffffffffffffffffffff1681526020018273ffffffffffffffffffffffffffffffffffffffff1673ffffffffffffffffffffffffffffffffffffffff16815260200192505050600060405180830381600087803b15801561067d57600080fd5b505af1158015610691573d6000803e3d6000fd5b505050508373ffffffffffffffffffffffffffffffffffffffff1663a73dbc4e87600154606402600154600a02600154603202603c80603c6040518863ffffffff167c0100000000000000000000000000000000000000000000000000000000028152600401808873ffffffffffffffffffffffffffffffffffffffff1673ffffffffffffffffffffffffffffffffffffffff1681526020018781526020018681526020018581526020018467ffffffffffffffff1667ffffffffffffffff1681526020018367ffffffffffffffff1667ffffffffffffffff1681526020018267ffffffffffffffff1667ffffffffffffffff168152602001975050505050505050600060405180830381600087803b1580156107ad57600080fd5b505af11580156107c1573d6000803e3d6000fd5b505050508273ffffffffffffffffffffffffffffffffffffffff1663d32ce5ae876001546127100262278d006040518463ffffffff167c0100000000000000000000000000000000000000000000000000000000028152600401808473ffffffffffffffffffffffffffffffffffffffff1673ffffffffffffffffffffffffffffffffffffffff1681526020018381526020018267ffffffffffffffff1667ffffffffffffffff1681526020019350505050600060405180830381600087803b15801561088d57600080fd5b505af11580156108a1573d6000803e3d6000fd5b505050508173ffffffffffffffffffffffffffffffffffffffff1663c4d66de88773ffffffffffffffffffffffffffffffffffffffff1663fc0c546a6040518163ffffffff167c0100000000000000000000000000000000000000000000000000000000028152600401602060405180830381600087803b15801561092557600080fd5b505af1158015610939573d6000803e3d6000fd5b505050506040513d602081101561094f57600080fd5b81019080805190602001909291905050506040518263ffffffff167c0100000000000000000000000000000000000000000000000000000000028152600401808273ffffffffffffffffffffffffffffffffffffffff1673ffffffffffffffffffffffffffffffffffffffff168152602001915050600060405180830381600087803b1580156109de57600080fd5b505af11580156109f2573d6000803e3d6000fd5b505050508073ffffffffffffffffffffffffffffffffffffffff1663be03847886898a73ffffffffffffffffffffffffffffffffffffffff1663e9a9c8506040518163ffffffff167c0100000000000000000000000000000000000000000000000000000000028152600401602060405180830381600087803b158015610a7857600080fd5b505af1158015610a8c573d6000803e3d6000fd5b505050506040513d6020811015610aa257600080fd5b8101908080519060200190929190505050336040518563ffffffff167c0100000000000000000000000000000000000000000000000000000000028152600401808573ffffffffffffffffffffffffffffffffffffffff1673ffffffffffffffffffffffffffffffffffffffff1681526020018473ffffffffffffffffffffffffffffffffffffffff1673ffffffffffffffffffffffffffffffffffffffff16815260200183600019166000191681526020018273ffffffffffffffffffffffffffffffffffffffff1673ffffffffffffffffffffffffffffffffffffffff168152602001945050505050600060405180830381600087803b158015610ba757600080fd5b505af1158015610bbb573d6000803e3d6000fd5b505050508073ffffffffffffffffffffffffffffffffffffffff1663be03847886888973ffffffffffffffffffffffffffffffffffffffff1663e9a9c8506040518163ffffffff167c0100000000000000000000000000000000000000000000000000000000028152600401602060405180830381600087803b158015610c4157600080fd5b505af1158015610c55573d6000803e3d6000fd5b505050506040513d6020811015610c6b57600080fd5b8101908080519060200190929190505050336040518563ffffffff167c0100000000000000000000000000000000000000000000000000000000028152600401808573ffffffffffffffffffffffffffffffffffffffff1673ffffffffffffffffffffffffffffffffffffffff1681526020018473ffffffffffffffffffffffffffffffffffffffff1673ffffffffffffffffffffffffffffffffffffffff16815260200183600019166000191681526020018273ffffffffffffffffffffffffffffffffffffffff1673ffffffffffffffffffffffffffffffffffffffff168152602001945050505050600060405180830381600087803b158015610d7057600080fd5b505af1158015610d84573d6000803e3d6000fd5b505050508073ffffffffffffffffffffffffffffffffffffffff1663be03847885878873ffffffffffffffffffffffffffffffffffffffff1663507b40636040518163ffffffff167c0100000000000000000000000000000000000000000000000000000000028152600401602060405180830381600087803b158015610e0a57600080fd5b505af1158015610e1e573d6000803e3d6000fd5b505050506040513d6020811015610e3457600080fd5b8101908080519060200190929190505050336040518563ffffffff167c0100000000000000000000000000000000000000000000000000000000028152600401808573ffffffffffffffffffffffffffffffffffffffff1673ffffffffffffffffffffffffffffffffffffffff1681526020018473ffffffffffffffffffffffffffffffffffffffff1673ffffffffffffffffffffffffffffffffffffffff16815260200183600019166000191681526020018273ffffffffffffffffffffffffffffffffffffffff1673ffffffffffffffffffffffffffffffffffffffff168152602001945050505050600060405180830381600087803b158015610f3957600080fd5b505af1158015610f4d573d6000803e3d6000fd5b505050508073ffffffffffffffffffffffffffffffffffffffff1663be038478600260009054906101000a900473ffffffffffffffffffffffffffffffffffffffff16868773ffffffffffffffffffffffffffffffffffffffff1663d8e27bd06040518163ffffffff167c0100000000000000000000000000000000000000000000000000000000028152600401602060405180830381600087803b158015610ff557600080fd5b505af1158015611009573d6000803e3d6000fd5b505050506040513d602081101561101f57600080fd5b8101908080519060200190929190505050336040518563ffffffff167c0100000000000000000000000000000000000000000000000000000000028152600401808573ffffffffffffffffffffffffffffffffffffffff1673ffffffffffffffffffffffffffffffffffffffff1681526020018473ffffffffffffffffffffffffffffffffffffffff1673ffffffffffffffffffffffffffffffffffffffff16815260200183600019166000191681526020018273ffffffffffffffffffffffffffffffffffffffff1673ffffffffffffffffffffffffffffffffffffffff168152602001945050505050600060405180830381600087803b15801561112457600080fd5b505af1158015611138573d6000803e3d6000fd5b505050508073ffffffffffffffffffffffffffffffffffffffff1663be038478600260009054906101000a900473ffffffffffffffffffffffffffffffffffffffff16868773ffffffffffffffffffffffffffffffffffffffff16638f911dca6040518163ffffffff167c0100000000000000000000000000000000000000000000000000000000028152600401602060405180830381600087803b1580156111e057600080fd5b505af11580156111f4573d6000803e3d6000fd5b505050506040513d602081101561120a57600080fd5b8101908080519060200190929190505050336040518563ffffffff167c0100000000000000000000000000000000000000000000000000000000028152600401808573ffffffffffffffffffffffffffffffffffffffff1673ffffffffffffffffffffffffffffffffffffffff1681526020018473ffffffffffffffffffffffffffffffffffffffff1673ffffffffffffffffffffffffffffffffffffffff16815260200183600019166000191681526020018273ffffffffffffffffffffffffffffffffffffffff1673ffffffffffffffffffffffffffffffffffffffff168152602001945050505050600060405180830381600087803b15801561130f57600080fd5b505af1158015611323573d6000803e3d6000fd5b505050508073ffffffffffffffffffffffffffffffffffffffff1663be03847889868773ffffffffffffffffffffffffffffffffffffffff166394b059ab6040518163ffffffff167c0100000000000000000000000000000000000000000000000000000000028152600401602060405180830381600087803b1580156113a957600080fd5b505af11580156113bd573d6000803e3d6000fd5b505050506040513d60208110156113d357600080fd5b8101908080519060200190929190505050336040518563ffffffff167c0100000000000000000000000000000000000000000000000000000000028152600401808573ffffffffffffffffffffffffffffffffffffffff1673ffffffffffffffffffffffffffffffffffffffff1681526020018473ffffffffffffffffffffffffffffffffffffffff1673ffffffffffffffffffffffffffffffffffffffff16815260200183600019166000191681526020018273ffffffffffffffffffffffffffffffffffffffff1673ffffffffffffffffffffffffffffffffffffffff168152602001945050505050600060405180830381600087803b1580156114d857600080fd5b505af11580156114ec573d6000803e3d6000fd5b505050508073ffffffffffffffffffffffffffffffffffffffff1663be038478600260009054906101000a900473ffffffffffffffffffffffffffffffffffffffff16858673ffffffffffffffffffffffffffffffffffffffff166374e805e96040518163ffffffff167c0100000000000000000000000000000000000000000000000000000000028152600401602060405180830381600087803b15801561159457600080fd5b505af11580156115a8573d6000803e3d6000fd5b505050506040513d60208110156115be57600080fd5b8101908080519060200190929190505050336040518563ffffffff167c0100000000000000000000000000000000000000000000000000000000028152600401808573ffffffffffffffffffffffffffffffffffffffff1673ffffffffffffffffffffffffffffffffffffffff1681526020018473ffffffffffffffffffffffffffffffffffffffff1673ffffffffffffffffffffffffffffffffffffffff16815260200183600019166000191681526020018273ffffffffffffffffffffffffffffffffffffffff1673ffffffffffffffffffffffffffffffffffffffff168152602001945050505050600060405180830381600087803b1580156116c357600080fd5b505af11580156116d7573d6000803e3d6000fd5b505050508073ffffffffffffffffffffffffffffffffffffffff1663be038478600260009054906101000a900473ffffffffffffffffffffffffffffffffffffffff16848573ffffffffffffffffffffffffffffffffffffffff1663835253946040518163ffffffff167c0100000000000000000000000000000000000000000000000000000000028152600401602060405180830381600087803b15801561177f57600080fd5b505af1158015611793573d6000803e3d6000fd5b505050506040513d60208110156117a957600080fd5b8101908080519060200190929190505050336040518563ffffffff167c0100000000000000000000000000000000000000000000000000000000028152600401808573ffffffffffffffffffffffffffffffffffffffff1673ffffffffffffffffffffffffffffffffffffffff1681526020018473ffffffffffffffffffffffffffffffffffffffff1673ffffffffffffffffffffffffffffffffffffffff16815260200183600019166000191681526020018273ffffffffffffffffffffffffffffffffffffffff1673ffffffffffffffffffffffffffffffffffffffff168152602001945050505050600060405180830381600087803b1580156118ae57600080fd5b505af11580156118c2573d6000803e3d6000fd5b505050505050505050505050505600a165627a7a723058202bc4cb79a90f7b7fd17fab8d0f02a7dd6c2c5ad8d491f2337d436e022ddcd4920029",
  "source": "pragma solidity ^0.4.24;\n\nimport \"@aragon/os/contracts/kernel/Kernel.sol\";\nimport \"@aragon/os/contracts/acl/ACL.sol\";\nimport \"@aragon/os/contracts/apm/Repo.sol\";\nimport \"@aragon/os/contracts/lib/ens/ENS.sol\";\nimport \"@aragon/os/contracts/lib/ens/PublicResolver.sol\";\n\nimport \"@aragon/apps-token-manager/contracts/TokenManager.sol\";\nimport \"@aragon/apps-voting/contracts/Voting.sol\";\n\nimport \"@daonuts/airdrop-duo/contracts/AirdropDuo.sol\";\nimport \"@daonuts/challenge/contracts/Challenge.sol\";\nimport \"@daonuts/subscribe/contracts/Subscribe.sol\";\nimport \"@daonuts/tipping/contracts/Tipping.sol\";\n\ncontract TemplateApps {\n    ENS public ens;\n\n    uint TOKEN_UNIT;\n    address ANY_ENTITY;\n\n    bytes32 airdropDuoAppId;\n    bytes32 challengeAppId;\n    bytes32 subscribeAppId;\n    bytes32 tippingAppId;\n\n    event InstalledApp(address appProxy, bytes32 appId);\n    event Debug(address debug);\n\n    constructor(ENS _ens) public {\n        ens = _ens;\n    }\n\n    function install(\n        Kernel _dao, Voting _voting, TokenManager _contribManager, TokenManager _currencyManager,\n        AirdropDuo _airdrop, Challenge _challenge, Subscribe _subscribe, Tipping _tipping\n    ) public {\n        ACL acl = ACL(_dao.acl());\n\n        _airdrop.initialize(_contribManager, _currencyManager);\n        _challenge.initialize(\n          _currencyManager, 100*TOKEN_UNIT, 10*TOKEN_UNIT, 50*TOKEN_UNIT,\n          uint64(1 minutes), uint64(1 minutes), uint64(1 minutes)\n        );\n        _subscribe.initialize(_currencyManager, 10000*TOKEN_UNIT, uint64(30 days));\n        _tipping.initialize(_currencyManager.token());\n\n        acl.createPermission(_airdrop, _contribManager, _contribManager.MINT_ROLE(), msg.sender);\n        acl.createPermission(_airdrop, _currencyManager, _currencyManager.MINT_ROLE(), msg.sender);\n        acl.createPermission(_challenge, _airdrop, _airdrop.START_ROLE(), msg.sender);\n        acl.createPermission(ANY_ENTITY, _challenge, _challenge.PROPOSE_ROLE(), msg.sender);\n        acl.createPermission(ANY_ENTITY, _challenge, _challenge.CHALLENGE_ROLE(), msg.sender);\n        acl.createPermission(_voting, _challenge, _challenge.SUPPORT_ROLE(), msg.sender);\n        acl.createPermission(ANY_ENTITY, _subscribe, _subscribe.SET_PRICE_ROLE(), msg.sender);\n        acl.createPermission(ANY_ENTITY, _tipping, _tipping.NONE(), msg.sender);\n\n        /* _tokenPermissions(_dao, _voting, _contribManager, _currencyManager);\n        _challengePermissions(_dao, _voting, _currencyManager, challenge);\n        _subscribePermissions(_dao, _voting, _currencyManager, subscribe);\n        _airdropPermissions(_dao, _voting, _contribManager, _currencyManager, airdrop);\n        _cleanup(_dao, _voting, _contribManager, _currencyManager, tipping); */\n    }\n\n    function _tokenPermissions(\n        Kernel _dao, Voting _voting, TokenManager _contribManager, TokenManager _currencyManager\n    ) internal {\n        ACL acl = ACL(_dao.acl());\n        bytes32 MINT_ROLE = _contribManager.MINT_ROLE();\n        bytes32 BURN_ROLE = _contribManager.BURN_ROLE();\n\n        acl.createPermission(_contribManager, _voting, _voting.CREATE_VOTES_ROLE(), _voting);\n        acl.createPermission(_voting, _contribManager, BURN_ROLE, _voting);\n        acl.createPermission(this, _contribManager, MINT_ROLE, this);\n\n        address[] memory holders = new address[](1);\n        holders[0] = msg.sender;\n        _mintHolders(_contribManager, holders);\n\n        acl.revokePermission(this, _contribManager, MINT_ROLE);\n    }\n\n    function _challengePermissions(\n        Kernel _dao, Voting _voting, TokenManager _currencyManager, Challenge _challenge\n    ) internal {\n        ACL acl = ACL(_dao.acl());\n\n        acl.createPermission(_challenge, _currencyManager, _currencyManager.MINT_ROLE(), this);\n        acl.createPermission(_challenge, _currencyManager, _currencyManager.BURN_ROLE(), this);\n        acl.createPermission(ANY_ENTITY, _challenge, _challenge.PROPOSE_ROLE(), _voting);\n        acl.createPermission(ANY_ENTITY, _challenge, _challenge.CHALLENGE_ROLE(), _voting);\n        acl.createPermission(_voting, _challenge, _challenge.SUPPORT_ROLE(), _voting);\n        acl.createPermission(_challenge, _challenge, _challenge.MODIFY_PARAMETER_ROLE(), _voting);\n    }\n\n    function _subscribePermissions(\n        Kernel _dao, Voting _voting, TokenManager _currencyManager, Subscribe _subscribe\n    ) internal {\n        ACL acl = ACL(_dao.acl());\n\n        acl.grantPermission(_subscribe, _currencyManager, _currencyManager.BURN_ROLE());\n        acl.createPermission(_voting, _subscribe, _subscribe.SET_PRICE_ROLE(), _voting);\n        acl.createPermission(_voting, _subscribe, _subscribe.SET_DURATION_ROLE(), _voting);\n    }\n\n    function _airdropPermissions(\n        Kernel _dao, Voting _voting, TokenManager _contribManager, TokenManager _currencyManager, AirdropDuo _airdrop\n    ) internal {\n        ACL acl = ACL(_dao.acl());\n\n        acl.grantPermission(_airdrop, _contribManager, _contribManager.MINT_ROLE());\n        acl.grantPermission(_airdrop, _currencyManager, _currencyManager.MINT_ROLE());\n        acl.createPermission(_voting, _airdrop, _airdrop.START_ROLE(), this);\n        acl.setPermissionManager(_voting, _airdrop, _airdrop.START_ROLE());\n    }\n\n    function _cleanup(\n        Kernel _dao, Voting _voting, TokenManager _contribManager, TokenManager _currencyManager, Tipping tipping\n    ) internal {\n        ACL acl = ACL(_dao.acl());\n        bytes32 APP_MANAGER_ROLE = _dao.APP_MANAGER_ROLE();\n        bytes32 CREATE_PERMISSIONS_ROLE = acl.CREATE_PERMISSIONS_ROLE();\n        bytes32 MINT_ROLE = _contribManager.MINT_ROLE();\n        bytes32 BURN_ROLE = _contribManager.BURN_ROLE();\n\n        acl.createPermission(_voting, tipping, tipping.NONE(), _voting);\n\n        acl.setPermissionManager(_voting, _currencyManager, MINT_ROLE);\n        acl.setPermissionManager(_voting, _currencyManager, BURN_ROLE);\n        acl.setPermissionManager(_voting, _contribManager, MINT_ROLE);\n        acl.setPermissionManager(_voting, _contribManager, BURN_ROLE);\n\n        acl.grantPermission(_voting, _dao, APP_MANAGER_ROLE);\n        acl.revokePermission(this, _dao, APP_MANAGER_ROLE);\n        acl.setPermissionManager(_voting, _dao, APP_MANAGER_ROLE);\n\n        acl.grantPermission(_voting, acl, CREATE_PERMISSIONS_ROLE);\n        acl.revokePermission(this, acl, CREATE_PERMISSIONS_ROLE);\n        acl.setPermissionManager(_voting, acl, CREATE_PERMISSIONS_ROLE);\n    }\n\n    function latestVersionAppBase(bytes32 appId) public view returns (address base) {\n        Repo repo = Repo(PublicResolver(ens.resolver(appId)).addr(appId));\n        (,base,) = repo.getLatest();\n\n        return base;\n    }\n\n    function _mintHolders(TokenManager _tokenManager, address[] _holders) internal {\n        for (uint i=0; i<_holders.length; i++) {\n            _tokenManager.mint(_holders[i], 1 * 10**18); // Give 1 token to each holder\n        }\n    }\n\n}\n",
  "sourcePath": "/home/carl/Projects/daonuts/template-apps/contracts/TemplateApps.sol",
  "compiler": {
    "name": "solc",
    "version": "0.4.24+commit.e67f0147.Emscripten.clang"
  },
  "schemaVersion": "2.0.1",
  "updatedAt": "2019-10-26T00:08:08.663Z"
}