{
  "contractName": "TemplateApps",
  "abi": [
    {
      "constant": true,
      "inputs": [],
      "name": "ens",
      "outputs": [
        {
          "name": "",
          "type": "address"
        }
      ],
      "payable": false,
      "stateMutability": "view",
      "type": "function"
    },
    {
      "inputs": [
        {
          "name": "_ens",
          "type": "address"
        }
      ],
      "payable": false,
      "stateMutability": "nonpayable",
      "type": "constructor"
    },
    {
      "anonymous": false,
      "inputs": [
        {
          "indexed": false,
          "name": "appProxy",
          "type": "address"
        },
        {
          "indexed": false,
          "name": "appId",
          "type": "bytes32"
        }
      ],
      "name": "InstalledApp",
      "type": "event"
    },
    {
      "constant": false,
      "inputs": [
        {
          "name": "_dao",
          "type": "address"
        },
        {
          "name": "_voting",
          "type": "address"
        },
        {
          "name": "_contribManager",
          "type": "address"
        },
        {
          "name": "_currencyManager",
          "type": "address"
        }
      ],
      "name": "install",
      "outputs": [],
      "payable": false,
      "stateMutability": "nonpayable",
      "type": "function"
    },
    {
      "constant": true,
      "inputs": [
        {
          "name": "appId",
          "type": "bytes32"
        }
      ],
      "name": "latestVersionAppBase",
      "outputs": [
        {
          "name": "base",
          "type": "address"
        }
      ],
      "payable": false,
      "stateMutability": "view",
      "type": "function"
    }
  ],
  "bytecode": "0x608060405234801561001057600080fd5b5060405160208061307583398101806040528101908080519060200190929190505050806000806101000a81548173ffffffffffffffffffffffffffffffffffffffff021916908373ffffffffffffffffffffffffffffffffffffffff16021790555050612ff2806100836000396000f300608060405260043610610057576000357c0100000000000000000000000000000000000000000000000000000000900463ffffffff1680633f15457f1461005c578063c6d2c717146100b3578063dc333e4814610124575b600080fd5b34801561006857600080fd5b506100716101c7565b604051808273ffffffffffffffffffffffffffffffffffffffff1673ffffffffffffffffffffffffffffffffffffffff16815260200191505060405180910390f35b3480156100bf57600080fd5b506100e260048036038101908080356000191690602001909291905050506101ec565b604051808273ffffffffffffffffffffffffffffffffffffffff1673ffffffffffffffffffffffffffffffffffffffff16815260200191505060405180910390f35b34801561013057600080fd5b506101c5600480360381019080803573ffffffffffffffffffffffffffffffffffffffff169060200190929190803573ffffffffffffffffffffffffffffffffffffffff169060200190929190803573ffffffffffffffffffffffffffffffffffffffff169060200190929190803573ffffffffffffffffffffffffffffffffffffffff16906020019092919050505061048b565b005b6000809054906101000a900473ffffffffffffffffffffffffffffffffffffffff1681565b6000806000809054906101000a900473ffffffffffffffffffffffffffffffffffffffff1673ffffffffffffffffffffffffffffffffffffffff16630178b8bf846040518263ffffffff167c0100000000000000000000000000000000000000000000000000000000028152600401808260001916600019168152602001915050602060405180830381600087803b15801561028757600080fd5b505af115801561029b573d6000803e3d6000fd5b505050506040513d60208110156102b157600080fd5b810190808051906020019092919050505073ffffffffffffffffffffffffffffffffffffffff16633b3b57de846040518263ffffffff167c0100000000000000000000000000000000000000000000000000000000028152600401808260001916600019168152602001915050602060405180830381600087803b15801561033857600080fd5b505af115801561034c573d6000803e3d6000fd5b505050506040513d602081101561036257600080fd5b810190808051906020019092919050505090508073ffffffffffffffffffffffffffffffffffffffff1663c36af4606040518163ffffffff167c0100000000000000000000000000000000000000000000000000000000028152600401600060405180830381600087803b1580156103d957600080fd5b505af11580156103ed573d6000803e3d6000fd5b505050506040513d6000823e3d601f19601f8201168201806040525060a081101561041757600080fd5b8101908091908260600180519060200190929190805164010000000081111561043f57600080fd5b8281019050602081018481111561045557600080fd5b815185600182028301116401000000008211171561047257600080fd5b5050929190505050909150508092505081915050919050565b60008060008060008873ffffffffffffffffffffffffffffffffffffffff1663de2873596040518163ffffffff167c0100000000000000000000000000000000000000000000000000000000028152600401602060405180830381600087803b1580156104f757600080fd5b505af115801561050b573d6000803e3d6000fd5b505050506040513d602081101561052157600080fd5b810190808051906020019092919050505094508873ffffffffffffffffffffffffffffffffffffffff166380cd5ac37fa9e4c5b47fe3f0e61f6a7a045848bf59d44a5eaad3fbb6274929030a2030797d6001026105a07fa9e4c5b47fe3f0e61f6a7a045848bf59d44a5eaad3fbb6274929030a2030797d6001026101ec565b6040518363ffffffff167c01000000000000000000000000000000000000000000000000000000000281526004018083600019166000191681526020018273ffffffffffffffffffffffffffffffffffffffff1673ffffffffffffffffffffffffffffffffffffffff16815260200192505050602060405180830381600087803b15801561062d57600080fd5b505af1158015610641573d6000803e3d6000fd5b505050506040513d602081101561065757600080fd5b810190808051906020019092919050505093508873ffffffffffffffffffffffffffffffffffffffff166380cd5ac37f67c5438d71d05e58f99e88d6fb61ea5356b0f57106d3aba65c823267cc1cd07e6001026106d67f67c5438d71d05e58f99e88d6fb61ea5356b0f57106d3aba65c823267cc1cd07e6001026101ec565b6040518363ffffffff167c01000000000000000000000000000000000000000000000000000000000281526004018083600019166000191681526020018273ffffffffffffffffffffffffffffffffffffffff1673ffffffffffffffffffffffffffffffffffffffff16815260200192505050602060405180830381600087803b15801561076357600080fd5b505af1158015610777573d6000803e3d6000fd5b505050506040513d602081101561078d57600080fd5b810190808051906020019092919050505092508873ffffffffffffffffffffffffffffffffffffffff166380cd5ac37fb6461185219d266fa4eb5f1acad9b08a010bfd1e1f6a45fe3e169f161d8d5af160010261080c7fb6461185219d266fa4eb5f1acad9b08a010bfd1e1f6a45fe3e169f161d8d5af16001026101ec565b6040518363ffffffff167c01000000000000000000000000000000000000000000000000000000000281526004018083600019166000191681526020018273ffffffffffffffffffffffffffffffffffffffff1673ffffffffffffffffffffffffffffffffffffffff16815260200192505050602060405180830381600087803b15801561089957600080fd5b505af11580156108ad573d6000803e3d6000fd5b505050506040513d60208110156108c357600080fd5b810190808051906020019092919050505091508873ffffffffffffffffffffffffffffffffffffffff166380cd5ac37fc75d5f393be107a3b3f2b5ed1c1fa53b7fe1f347bac8cd9de9158b94312bfd596001026109427fc75d5f393be107a3b3f2b5ed1c1fa53b7fe1f347bac8cd9de9158b94312bfd596001026101ec565b6040518363ffffffff167c01000000000000000000000000000000000000000000000000000000000281526004018083600019166000191681526020018273ffffffffffffffffffffffffffffffffffffffff1673ffffffffffffffffffffffffffffffffffffffff16815260200192505050602060405180830381600087803b1580156109cf57600080fd5b505af11580156109e3573d6000803e3d6000fd5b505050506040513d60208110156109f957600080fd5b810190808051906020019092919050505090508373ffffffffffffffffffffffffffffffffffffffff1663485cc95588886040518363ffffffff167c0100000000000000000000000000000000000000000000000000000000028152600401808373ffffffffffffffffffffffffffffffffffffffff1673ffffffffffffffffffffffffffffffffffffffff1681526020018273ffffffffffffffffffffffffffffffffffffffff1673ffffffffffffffffffffffffffffffffffffffff16815260200192505050600060405180830381600087803b158015610adb57600080fd5b505af1158015610aef573d6000803e3d6000fd5b505050507f2b183a501d4b1bbd30e6611ebac40ab18a00390e6c6bed324bf92a265c9ce6e3847fa9e4c5b47fe3f0e61f6a7a045848bf59d44a5eaad3fbb6274929030a2030797d600102604051808373ffffffffffffffffffffffffffffffffffffffff1673ffffffffffffffffffffffffffffffffffffffff16815260200182600019166000191681526020019250505060405180910390a18273ffffffffffffffffffffffffffffffffffffffff1663a73dbc4e87670de0b6b3a7640000606402670de0b6b3a7640000600a02670de0b6b3a7640000603202603c80603c6040518863ffffffff167c0100000000000000000000000000000000000000000000000000000000028152600401808873ffffffffffffffffffffffffffffffffffffffff1673ffffffffffffffffffffffffffffffffffffffff1681526020018781526020018681526020018581526020018467ffffffffffffffff1667ffffffffffffffff1681526020018367ffffffffffffffff1667ffffffffffffffff1681526020018267ffffffffffffffff1667ffffffffffffffff168152602001975050505050505050600060405180830381600087803b158015610cb357600080fd5b505af1158015610cc7573d6000803e3d6000fd5b505050507f2b183a501d4b1bbd30e6611ebac40ab18a00390e6c6bed324bf92a265c9ce6e3837f67c5438d71d05e58f99e88d6fb61ea5356b0f57106d3aba65c823267cc1cd07e600102604051808373ffffffffffffffffffffffffffffffffffffffff1673ffffffffffffffffffffffffffffffffffffffff16815260200182600019166000191681526020019250505060405180910390a18173ffffffffffffffffffffffffffffffffffffffff1663d32ce5ae87670de0b6b3a76400006127100262278d006040518463ffffffff167c0100000000000000000000000000000000000000000000000000000000028152600401808473ffffffffffffffffffffffffffffffffffffffff1673ffffffffffffffffffffffffffffffffffffffff1681526020018381526020018267ffffffffffffffff1667ffffffffffffffff1681526020019350505050600060405180830381600087803b158015610e2f57600080fd5b505af1158015610e43573d6000803e3d6000fd5b505050507f2b183a501d4b1bbd30e6611ebac40ab18a00390e6c6bed324bf92a265c9ce6e3827fb6461185219d266fa4eb5f1acad9b08a010bfd1e1f6a45fe3e169f161d8d5af1600102604051808373ffffffffffffffffffffffffffffffffffffffff1673ffffffffffffffffffffffffffffffffffffffff16815260200182600019166000191681526020019250505060405180910390a18073ffffffffffffffffffffffffffffffffffffffff1663c4d66de88773ffffffffffffffffffffffffffffffffffffffff1663fc0c546a6040518163ffffffff167c0100000000000000000000000000000000000000000000000000000000028152600401602060405180830381600087803b158015610f5d57600080fd5b505af1158015610f71573d6000803e3d6000fd5b505050506040513d6020811015610f8757600080fd5b81019080805190602001909291905050506040518263ffffffff167c0100000000000000000000000000000000000000000000000000000000028152600401808273ffffffffffffffffffffffffffffffffffffffff1673ffffffffffffffffffffffffffffffffffffffff168152602001915050600060405180830381600087803b15801561101657600080fd5b505af115801561102a573d6000803e3d6000fd5b505050507f2b183a501d4b1bbd30e6611ebac40ab18a00390e6c6bed324bf92a265c9ce6e3817fc75d5f393be107a3b3f2b5ed1c1fa53b7fe1f347bac8cd9de9158b94312bfd59600102604051808373ffffffffffffffffffffffffffffffffffffffff1673ffffffffffffffffffffffffffffffffffffffff16815260200182600019166000191681526020019250505060405180910390a16110d589868a8a8a898989896110e0565b505050505050505050565b6000806000808c73ffffffffffffffffffffffffffffffffffffffff16638ea8dc9d6040518163ffffffff167c0100000000000000000000000000000000000000000000000000000000028152600401602060405180830381600087803b15801561114a57600080fd5b505af115801561115e573d6000803e3d6000fd5b505050506040513d602081101561117457600080fd5b810190808051906020019092919050505093508b73ffffffffffffffffffffffffffffffffffffffff16633d6ab68f6040518163ffffffff167c0100000000000000000000000000000000000000000000000000000000028152600401602060405180830381600087803b1580156111eb57600080fd5b505af11580156111ff573d6000803e3d6000fd5b505050506040513d602081101561121557600080fd5b810190808051906020019092919050505092508873ffffffffffffffffffffffffffffffffffffffff1663e9a9c8506040518163ffffffff167c0100000000000000000000000000000000000000000000000000000000028152600401602060405180830381600087803b15801561128c57600080fd5b505af11580156112a0573d6000803e3d6000fd5b505050506040513d60208110156112b657600080fd5b810190808051906020019092919050505091508873ffffffffffffffffffffffffffffffffffffffff1663b930908f6040518163ffffffff167c0100000000000000000000000000000000000000000000000000000000028152600401602060405180830381600087803b15801561132d57600080fd5b505af1158015611341573d6000803e3d6000fd5b505050506040513d602081101561135757600080fd5b810190808051906020019092919050505090508b73ffffffffffffffffffffffffffffffffffffffff1663be038478888b85306040518563ffffffff167c0100000000000000000000000000000000000000000000000000000000028152600401808573ffffffffffffffffffffffffffffffffffffffff1673ffffffffffffffffffffffffffffffffffffffff1681526020018473ffffffffffffffffffffffffffffffffffffffff1673ffffffffffffffffffffffffffffffffffffffff16815260200183600019166000191681526020018273ffffffffffffffffffffffffffffffffffffffff1673ffffffffffffffffffffffffffffffffffffffff168152602001945050505050600060405180830381600087803b15801561147d57600080fd5b505af1158015611491573d6000803e3d6000fd5b505050508b73ffffffffffffffffffffffffffffffffffffffff1663be038478888b84306040518563ffffffff167c0100000000000000000000000000000000000000000000000000000000028152600401808573ffffffffffffffffffffffffffffffffffffffff1673ffffffffffffffffffffffffffffffffffffffff1681526020018473ffffffffffffffffffffffffffffffffffffffff1673ffffffffffffffffffffffffffffffffffffffff16815260200183600019166000191681526020018273ffffffffffffffffffffffffffffffffffffffff1673ffffffffffffffffffffffffffffffffffffffff168152602001945050505050600060405180830381600087803b1580156115a857600080fd5b505af11580156115bc573d6000803e3d6000fd5b505050508b73ffffffffffffffffffffffffffffffffffffffff1663be038478898c8d73ffffffffffffffffffffffffffffffffffffffff1663e9a9c8506040518163ffffffff167c0100000000000000000000000000000000000000000000000000000000028152600401602060405180830381600087803b15801561164257600080fd5b505af1158015611656573d6000803e3d6000fd5b505050506040513d602081101561166c57600080fd5b81019080805190602001909291905050508f6040518563ffffffff167c0100000000000000000000000000000000000000000000000000000000028152600401808573ffffffffffffffffffffffffffffffffffffffff1673ffffffffffffffffffffffffffffffffffffffff1681526020018473ffffffffffffffffffffffffffffffffffffffff1673ffffffffffffffffffffffffffffffffffffffff16815260200183600019166000191681526020018273ffffffffffffffffffffffffffffffffffffffff1673ffffffffffffffffffffffffffffffffffffffff168152602001945050505050600060405180830381600087803b15801561177157600080fd5b505af1158015611785573d6000803e3d6000fd5b505050508b73ffffffffffffffffffffffffffffffffffffffff16630a8ed3db898b856040518463ffffffff167c0100000000000000000000000000000000000000000000000000000000028152600401808473ffffffffffffffffffffffffffffffffffffffff1673ffffffffffffffffffffffffffffffffffffffff1681526020018373ffffffffffffffffffffffffffffffffffffffff1673ffffffffffffffffffffffffffffffffffffffff16815260200182600019166000191681526020019350505050600060405180830381600087803b15801561186857600080fd5b505af115801561187c573d6000803e3d6000fd5b505050508b73ffffffffffffffffffffffffffffffffffffffff16630a8ed3db878b846040518463ffffffff167c0100000000000000000000000000000000000000000000000000000000028152600401808473ffffffffffffffffffffffffffffffffffffffff1673ffffffffffffffffffffffffffffffffffffffff1681526020018373ffffffffffffffffffffffffffffffffffffffff1673ffffffffffffffffffffffffffffffffffffffff16815260200182600019166000191681526020019350505050600060405180830381600087803b15801561195f57600080fd5b505af1158015611973573d6000803e3d6000fd5b505050508b73ffffffffffffffffffffffffffffffffffffffff1663be0384788c878873ffffffffffffffffffffffffffffffffffffffff1663835253946040518163ffffffff167c0100000000000000000000000000000000000000000000000000000000028152600401602060405180830381600087803b1580156119f957600080fd5b505af1158015611a0d573d6000803e3d6000fd5b505050506040513d6020811015611a2357600080fd5b81019080805190602001909291905050508f6040518563ffffffff167c0100000000000000000000000000000000000000000000000000000000028152600401808573ffffffffffffffffffffffffffffffffffffffff1673ffffffffffffffffffffffffffffffffffffffff1681526020018473ffffffffffffffffffffffffffffffffffffffff1673ffffffffffffffffffffffffffffffffffffffff16815260200183600019166000191681526020018273ffffffffffffffffffffffffffffffffffffffff1673ffffffffffffffffffffffffffffffffffffffff168152602001945050505050600060405180830381600087803b158015611b2857600080fd5b505af1158015611b3c573d6000803e3d6000fd5b505050508b73ffffffffffffffffffffffffffffffffffffffff1663be038478888a8b73ffffffffffffffffffffffffffffffffffffffff1663507b40636040518163ffffffff167c0100000000000000000000000000000000000000000000000000000000028152600401602060405180830381600087803b158015611bc257600080fd5b505af1158015611bd6573d6000803e3d6000fd5b505050506040513d6020811015611bec57600080fd5b81019080805190602001909291905050508f6040518563ffffffff167c0100000000000000000000000000000000000000000000000000000000028152600401808573ffffffffffffffffffffffffffffffffffffffff1673ffffffffffffffffffffffffffffffffffffffff1681526020018473ffffffffffffffffffffffffffffffffffffffff1673ffffffffffffffffffffffffffffffffffffffff16815260200183600019166000191681526020018273ffffffffffffffffffffffffffffffffffffffff1673ffffffffffffffffffffffffffffffffffffffff168152602001945050505050600060405180830381600087803b158015611cf157600080fd5b505af1158015611d05573d6000803e3d6000fd5b505050508b73ffffffffffffffffffffffffffffffffffffffff1663be03847888888973ffffffffffffffffffffffffffffffffffffffff166374e805e96040518163ffffffff167c0100000000000000000000000000000000000000000000000000000000028152600401602060405180830381600087803b158015611d8b57600080fd5b505af1158015611d9f573d6000803e3d6000fd5b505050506040513d6020811015611db557600080fd5b81019080805190602001909291905050508f6040518563ffffffff167c0100000000000000000000000000000000000000000000000000000000028152600401808573ffffffffffffffffffffffffffffffffffffffff1673ffffffffffffffffffffffffffffffffffffffff1681526020018473ffffffffffffffffffffffffffffffffffffffff1673ffffffffffffffffffffffffffffffffffffffff16815260200183600019166000191681526020018273ffffffffffffffffffffffffffffffffffffffff1673ffffffffffffffffffffffffffffffffffffffff168152602001945050505050600060405180830381600087803b158015611eba57600080fd5b505af1158015611ece573d6000803e3d6000fd5b505050508b73ffffffffffffffffffffffffffffffffffffffff1663be03847888888973ffffffffffffffffffffffffffffffffffffffff16631566085c6040518163ffffffff167c0100000000000000000000000000000000000000000000000000000000028152600401602060405180830381600087803b158015611f5457600080fd5b505af1158015611f68573d6000803e3d6000fd5b505050506040513d6020811015611f7e57600080fd5b81019080805190602001909291905050508f6040518563ffffffff167c0100000000000000000000000000000000000000000000000000000000028152600401808573ffffffffffffffffffffffffffffffffffffffff1673ffffffffffffffffffffffffffffffffffffffff1681526020018473ffffffffffffffffffffffffffffffffffffffff1673ffffffffffffffffffffffffffffffffffffffff16815260200183600019166000191681526020018273ffffffffffffffffffffffffffffffffffffffff1673ffffffffffffffffffffffffffffffffffffffff168152602001945050505050600060405180830381600087803b15801561208357600080fd5b505af1158015612097573d6000803e3d6000fd5b505050508b73ffffffffffffffffffffffffffffffffffffffff1663be0384787fffffffffffffffffffffffffffffffffffffffffffffffffffffffffffffffff898a73ffffffffffffffffffffffffffffffffffffffff1663d8e27bd06040518163ffffffff167c0100000000000000000000000000000000000000000000000000000000028152600401602060405180830381600087803b15801561213d57600080fd5b505af1158015612151573d6000803e3d6000fd5b505050506040513d602081101561216757600080fd5b81019080805190602001909291905050508f6040518563ffffffff167c0100000000000000000000000000000000000000000000000000000000028152600401808573ffffffffffffffffffffffffffffffffffffffff1673ffffffffffffffffffffffffffffffffffffffff1681526020018473ffffffffffffffffffffffffffffffffffffffff1673ffffffffffffffffffffffffffffffffffffffff16815260200183600019166000191681526020018273ffffffffffffffffffffffffffffffffffffffff1673ffffffffffffffffffffffffffffffffffffffff168152602001945050505050600060405180830381600087803b15801561226c57600080fd5b505af1158015612280573d6000803e3d6000fd5b505050508b73ffffffffffffffffffffffffffffffffffffffff1663be0384787fffffffffffffffffffffffffffffffffffffffffffffffffffffffffffffffff898a73ffffffffffffffffffffffffffffffffffffffff16638f911dca6040518163ffffffff167c0100000000000000000000000000000000000000000000000000000000028152600401602060405180830381600087803b15801561232657600080fd5b505af115801561233a573d6000803e3d6000fd5b505050506040513d602081101561235057600080fd5b81019080805190602001909291905050508f6040518563ffffffff167c0100000000000000000000000000000000000000000000000000000000028152600401808573ffffffffffffffffffffffffffffffffffffffff1673ffffffffffffffffffffffffffffffffffffffff1681526020018473ffffffffffffffffffffffffffffffffffffffff1673ffffffffffffffffffffffffffffffffffffffff16815260200183600019166000191681526020018273ffffffffffffffffffffffffffffffffffffffff1673ffffffffffffffffffffffffffffffffffffffff168152602001945050505050600060405180830381600087803b15801561245557600080fd5b505af1158015612469573d6000803e3d6000fd5b505050508b73ffffffffffffffffffffffffffffffffffffffff1663be0384788c898a73ffffffffffffffffffffffffffffffffffffffff166394b059ab6040518163ffffffff167c0100000000000000000000000000000000000000000000000000000000028152600401602060405180830381600087803b1580156124ef57600080fd5b505af1158015612503573d6000803e3d6000fd5b505050506040513d602081101561251957600080fd5b81019080805190602001909291905050508f6040518563ffffffff167c0100000000000000000000000000000000000000000000000000000000028152600401808573ffffffffffffffffffffffffffffffffffffffff1673ffffffffffffffffffffffffffffffffffffffff1681526020018473ffffffffffffffffffffffffffffffffffffffff1673ffffffffffffffffffffffffffffffffffffffff16815260200183600019166000191681526020018273ffffffffffffffffffffffffffffffffffffffff1673ffffffffffffffffffffffffffffffffffffffff168152602001945050505050600060405180830381600087803b15801561261e57600080fd5b505af1158015612632573d6000803e3d6000fd5b505050508b73ffffffffffffffffffffffffffffffffffffffff1663be03847888898a73ffffffffffffffffffffffffffffffffffffffff1663513638db6040518163ffffffff167c0100000000000000000000000000000000000000000000000000000000028152600401602060405180830381600087803b1580156126b857600080fd5b505af11580156126cc573d6000803e3d6000fd5b505050506040513d60208110156126e257600080fd5b81019080805190602001909291905050508f6040518563ffffffff167c0100000000000000000000000000000000000000000000000000000000028152600401808573ffffffffffffffffffffffffffffffffffffffff1673ffffffffffffffffffffffffffffffffffffffff1681526020018473ffffffffffffffffffffffffffffffffffffffff1673ffffffffffffffffffffffffffffffffffffffff16815260200183600019166000191681526020018273ffffffffffffffffffffffffffffffffffffffff1673ffffffffffffffffffffffffffffffffffffffff168152602001945050505050600060405180830381600087803b1580156127e757600080fd5b505af11580156127fb573d6000803e3d6000fd5b505050508b73ffffffffffffffffffffffffffffffffffffffff1663afd925df8c8b856040518463ffffffff167c0100000000000000000000000000000000000000000000000000000000028152600401808473ffffffffffffffffffffffffffffffffffffffff1673ffffffffffffffffffffffffffffffffffffffff1681526020018373ffffffffffffffffffffffffffffffffffffffff1673ffffffffffffffffffffffffffffffffffffffff16815260200182600019166000191681526020019350505050600060405180830381600087803b1580156128de57600080fd5b505af11580156128f2573d6000803e3d6000fd5b505050508b73ffffffffffffffffffffffffffffffffffffffff1663afd925df8c8b846040518463ffffffff167c0100000000000000000000000000000000000000000000000000000000028152600401808473ffffffffffffffffffffffffffffffffffffffff1673ffffffffffffffffffffffffffffffffffffffff1681526020018373ffffffffffffffffffffffffffffffffffffffff1673ffffffffffffffffffffffffffffffffffffffff16815260200182600019166000191681526020019350505050600060405180830381600087803b1580156129d557600080fd5b505af11580156129e9573d6000803e3d6000fd5b505050508b73ffffffffffffffffffffffffffffffffffffffff16630a8ed3db8c8f876040518463ffffffff167c0100000000000000000000000000000000000000000000000000000000028152600401808473ffffffffffffffffffffffffffffffffffffffff1673ffffffffffffffffffffffffffffffffffffffff1681526020018373ffffffffffffffffffffffffffffffffffffffff1673ffffffffffffffffffffffffffffffffffffffff16815260200182600019166000191681526020019350505050600060405180830381600087803b158015612acc57600080fd5b505af1158015612ae0573d6000803e3d6000fd5b505050508b73ffffffffffffffffffffffffffffffffffffffff16639d0effdb308f876040518463ffffffff167c0100000000000000000000000000000000000000000000000000000000028152600401808473ffffffffffffffffffffffffffffffffffffffff1673ffffffffffffffffffffffffffffffffffffffff1681526020018373ffffffffffffffffffffffffffffffffffffffff1673ffffffffffffffffffffffffffffffffffffffff16815260200182600019166000191681526020019350505050600060405180830381600087803b158015612bc357600080fd5b505af1158015612bd7573d6000803e3d6000fd5b505050508b73ffffffffffffffffffffffffffffffffffffffff1663afd925df8c8f876040518463ffffffff167c0100000000000000000000000000000000000000000000000000000000028152600401808473ffffffffffffffffffffffffffffffffffffffff1673ffffffffffffffffffffffffffffffffffffffff1681526020018373ffffffffffffffffffffffffffffffffffffffff1673ffffffffffffffffffffffffffffffffffffffff16815260200182600019166000191681526020019350505050600060405180830381600087803b158015612cba57600080fd5b505af1158015612cce573d6000803e3d6000fd5b505050508b73ffffffffffffffffffffffffffffffffffffffff16630a8ed3db8c8e866040518463ffffffff167c0100000000000000000000000000000000000000000000000000000000028152600401808473ffffffffffffffffffffffffffffffffffffffff1673ffffffffffffffffffffffffffffffffffffffff1681526020018373ffffffffffffffffffffffffffffffffffffffff1673ffffffffffffffffffffffffffffffffffffffff16815260200182600019166000191681526020019350505050600060405180830381600087803b158015612db157600080fd5b505af1158015612dc5573d6000803e3d6000fd5b505050508b73ffffffffffffffffffffffffffffffffffffffff16639d0effdb308e866040518463ffffffff167c0100000000000000000000000000000000000000000000000000000000028152600401808473ffffffffffffffffffffffffffffffffffffffff1673ffffffffffffffffffffffffffffffffffffffff1681526020018373ffffffffffffffffffffffffffffffffffffffff1673ffffffffffffffffffffffffffffffffffffffff16815260200182600019166000191681526020019350505050600060405180830381600087803b158015612ea857600080fd5b505af1158015612ebc573d6000803e3d6000fd5b505050508b73ffffffffffffffffffffffffffffffffffffffff1663afd925df8c8e866040518463ffffffff167c0100000000000000000000000000000000000000000000000000000000028152600401808473ffffffffffffffffffffffffffffffffffffffff1673ffffffffffffffffffffffffffffffffffffffff1681526020018373ffffffffffffffffffffffffffffffffffffffff1673ffffffffffffffffffffffffffffffffffffffff16815260200182600019166000191681526020019350505050600060405180830381600087803b158015612f9f57600080fd5b505af1158015612fb3573d6000803e3d6000fd5b50505050505050505050505050505050505600a165627a7a723058208f4a1f04ed0cb7daba75bb700723494e6711e83162adc5f88743e4548e94db000029",
  "source": "pragma solidity ^0.4.24;\n\nimport \"@aragon/os/contracts/kernel/Kernel.sol\";\nimport \"@aragon/os/contracts/acl/ACL.sol\";\nimport \"@aragon/os/contracts/apm/Repo.sol\";\nimport \"@aragon/os/contracts/lib/ens/ENS.sol\";\nimport \"@aragon/os/contracts/lib/ens/PublicResolver.sol\";\n\nimport \"@aragon/apps-token-manager/contracts/TokenManager.sol\";\nimport \"@aragon/apps-voting/contracts/Voting.sol\";\n\nimport \"@daonuts/airdrop-duo-app/contracts/AirdropDuo.sol\";\nimport \"@daonuts/challenge-app/contracts/Challenge.sol\";\nimport \"@daonuts/subscribe-app/contracts/Subscribe.sol\";\nimport \"@daonuts/tip-app/contracts/Tip.sol\";\n\ncontract TemplateApps {\n    ENS public ens;\n\n    uint constant TOKEN_UNIT = 10 ** 18;\n    address constant ANY_ENTITY = address(-1);\n\n    //namehash(\"airdrop-duo-app.open.aragonpm.eth\")\n    bytes32 constant airdropDuoAppId = 0xa9e4c5b47fe3f0e61f6a7a045848bf59d44a5eaad3fbb6274929030a2030797d;\n    //namehash(\"challenge-app.open.aragonpm.eth\")\n    bytes32 constant challengeAppId = 0x67c5438d71d05e58f99e88d6fb61ea5356b0f57106d3aba65c823267cc1cd07e;\n    //namehash(\"subscribe-app.open.aragonpm.eth\")\n    bytes32 constant subscribeAppId = 0xb6461185219d266fa4eb5f1acad9b08a010bfd1e1f6a45fe3e169f161d8d5af1;\n    //namehash(\"tip-app.open.aragonpm.eth\")\n    bytes32 constant tipAppId = 0xc75d5f393be107a3b3f2b5ed1c1fa53b7fe1f347bac8cd9de9158b94312bfd59;\n\n    event InstalledApp(address appProxy, bytes32 appId);\n\n    constructor(ENS _ens) public {\n        ens = _ens;\n    }\n\n    function install(\n        Kernel _dao, Voting _voting, TokenManager _contribManager, TokenManager _currencyManager\n    ) public {\n        ACL acl = ACL(_dao.acl());\n\n        AirdropDuo airdrop = AirdropDuo(_dao.newAppInstance(airdropDuoAppId, latestVersionAppBase(airdropDuoAppId)));\n        Challenge challenge = Challenge(_dao.newAppInstance(challengeAppId, latestVersionAppBase(challengeAppId)));\n        Subscribe subscribe = Subscribe(_dao.newAppInstance(subscribeAppId, latestVersionAppBase(subscribeAppId)));\n        Tip tip = Tip(_dao.newAppInstance(tipAppId, latestVersionAppBase(tipAppId)));\n\n        airdrop.initialize(_contribManager, _currencyManager);\n        emit InstalledApp(airdrop, airdropDuoAppId);\n        challenge.initialize(\n          _currencyManager, 100*TOKEN_UNIT, 10*TOKEN_UNIT, 50*TOKEN_UNIT,\n          uint64(1 minutes), uint64(1 minutes), uint64(1 minutes)\n        );\n        emit InstalledApp(challenge, challengeAppId);\n        subscribe.initialize(_currencyManager, 10000*TOKEN_UNIT, uint64(30 days));\n        emit InstalledApp(subscribe, subscribeAppId);\n        tip.initialize(_currencyManager.token());\n        emit InstalledApp(tip, tipAppId);\n\n        _permissions(_dao, acl, _voting, _contribManager, _currencyManager, airdrop, challenge, subscribe, tip);\n    }\n\n    function _permissions(\n        Kernel _dao, ACL _acl, Voting _voting, TokenManager _contribManager,\n        TokenManager _currencyManager, AirdropDuo _airdrop, Challenge _challenge,\n        Subscribe _subscribe, Tip tip\n    ) internal {\n\n        bytes32 APP_MANAGER_ROLE = _dao.APP_MANAGER_ROLE();\n        bytes32 CREATE_PERMISSIONS_ROLE = _acl.CREATE_PERMISSIONS_ROLE();\n        bytes32 CURRENCY_MINT_ROLE = _currencyManager.MINT_ROLE();\n        bytes32 CURRENCY_BURN_ROLE = _currencyManager.BURN_ROLE();\n\n        _acl.createPermission(_challenge, _currencyManager, CURRENCY_MINT_ROLE, this);\n        _acl.createPermission(_challenge, _currencyManager, CURRENCY_BURN_ROLE, this);\n        _acl.createPermission(_airdrop, _contribManager, _contribManager.MINT_ROLE(), _voting);\n        _acl.grantPermission(_airdrop, _currencyManager, CURRENCY_MINT_ROLE);\n        _acl.grantPermission(_subscribe, _currencyManager, CURRENCY_BURN_ROLE);\n        _acl.createPermission(_voting, tip, tip.NONE(), _voting);\n\n        _acl.createPermission(_challenge, _airdrop, _airdrop.START_ROLE(), _voting);\n        _acl.createPermission(_challenge, _subscribe, _subscribe.SET_PRICE_ROLE(), _voting);\n        _acl.createPermission(_challenge, _subscribe, _subscribe.SET_DURATION_ROLE(), _voting);\n\n        _acl.createPermission(ANY_ENTITY, _challenge, _challenge.PROPOSE_ROLE(), _voting);\n        _acl.createPermission(ANY_ENTITY, _challenge, _challenge.CHALLENGE_ROLE(), _voting);\n        _acl.createPermission(_voting, _challenge, _challenge.SUPPORT_ROLE(), _voting);\n        _acl.createPermission(_challenge, _challenge, _challenge.MODIFY_PARAMETER_ROLE(), _voting);\n\n        _acl.setPermissionManager(_voting, _currencyManager, CURRENCY_MINT_ROLE);\n        _acl.setPermissionManager(_voting, _currencyManager, CURRENCY_BURN_ROLE);\n\n        _acl.grantPermission(_voting, _dao, APP_MANAGER_ROLE);\n        _acl.revokePermission(this, _dao, APP_MANAGER_ROLE);\n        _acl.setPermissionManager(_voting, _dao, APP_MANAGER_ROLE);\n\n        _acl.grantPermission(_voting, _acl, CREATE_PERMISSIONS_ROLE);\n        _acl.revokePermission(this, _acl, CREATE_PERMISSIONS_ROLE);\n        _acl.setPermissionManager(_voting, _acl, CREATE_PERMISSIONS_ROLE);\n    }\n\n    function latestVersionAppBase(bytes32 appId) public view returns (address base) {\n        Repo repo = Repo(PublicResolver(ens.resolver(appId)).addr(appId));\n        (,base,) = repo.getLatest();\n\n        return base;\n    }\n\n}\n",
  "sourcePath": "/home/carl/Projects/daonuts/template-apps/contracts/TemplateApps.sol",
  "compiler": {
    "name": "solc",
    "version": "0.4.24+commit.e67f0147.Emscripten.clang"
  },
  "schemaVersion": "2.0.1",
  "updatedAt": "2019-10-25T13:11:26.106Z"
}